{
	"Prueva VS Code/proyecto-final-daniel-salinas/contract/banco-prestamo.sol": {
		"Banco": {
			"abi": [
				{
					"inputs": [],
					"stateMutability": "nonpayable",
					"type": "constructor"
				},
				{
					"anonymous": false,
					"inputs": [
						{
							"indexed": true,
							"internalType": "address",
							"name": "prestatario",
							"type": "address"
						},
						{
							"indexed": false,
							"internalType": "uint256",
							"name": "monto",
							"type": "uint256"
						}
					],
					"name": "GarantiaLiquidada",
					"type": "event"
				},
				{
					"anonymous": false,
					"inputs": [
						{
							"indexed": true,
							"internalType": "address",
							"name": "prestatario",
							"type": "address"
						},
						{
							"indexed": false,
							"internalType": "uint256",
							"name": "monto",
							"type": "uint256"
						},
						{
							"indexed": false,
							"internalType": "uint256",
							"name": "tiempoLimite",
							"type": "uint256"
						}
					],
					"name": "PrestamoAprobado",
					"type": "event"
				},
				{
					"anonymous": false,
					"inputs": [
						{
							"indexed": true,
							"internalType": "address",
							"name": "prestatario",
							"type": "address"
						},
						{
							"indexed": false,
							"internalType": "uint256",
							"name": "monto",
							"type": "uint256"
						}
					],
					"name": "PrestamoReembolsado",
					"type": "event"
				},
				{
					"anonymous": false,
					"inputs": [
						{
							"indexed": true,
							"internalType": "address",
							"name": "prestatario",
							"type": "address"
						},
						{
							"indexed": false,
							"internalType": "uint256",
							"name": "monto",
							"type": "uint256"
						},
						{
							"indexed": false,
							"internalType": "uint256",
							"name": "plazo",
							"type": "uint256"
						}
					],
					"name": "SolicitudPrestamo",
					"type": "event"
				},
				{
					"inputs": [
						{
							"internalType": "address",
							"name": "nuevoCliente",
							"type": "address"
						}
					],
					"name": "altaCliente",
					"outputs": [],
					"stateMutability": "nonpayable",
					"type": "function"
				},
				{
					"inputs": [
						{
							"internalType": "address",
							"name": "nuevoPrestamista",
							"type": "address"
						}
					],
					"name": "altaPrestamista",
					"outputs": [],
					"stateMutability": "nonpayable",
					"type": "function"
				},
				{
					"inputs": [
						{
							"internalType": "address",
							"name": "prestatario_",
							"type": "address"
						},
						{
							"internalType": "uint256",
							"name": "id_",
							"type": "uint256"
						}
					],
					"name": "aprobarPrestamo",
					"outputs": [],
					"stateMutability": "nonpayable",
					"type": "function"
				},
				{
					"inputs": [],
					"name": "depositarGarantia",
					"outputs": [],
					"stateMutability": "payable",
					"type": "function"
				},
				{
					"inputs": [
						{
							"internalType": "address",
							"name": "prestatario_",
							"type": "address"
						},
						{
							"internalType": "uint256",
							"name": "id_",
							"type": "uint256"
						}
					],
					"name": "liquidarGarantia",
					"outputs": [],
					"stateMutability": "nonpayable",
					"type": "function"
				},
				{
					"inputs": [
						{
							"internalType": "address",
							"name": "prestatario_",
							"type": "address"
						},
						{
							"internalType": "uint256",
							"name": "id_",
							"type": "uint256"
						}
					],
					"name": "obtenerDetalleDePrestamo",
					"outputs": [
						{
							"components": [
								{
									"internalType": "uint256",
									"name": "id",
									"type": "uint256"
								},
								{
									"internalType": "address",
									"name": "prestatario",
									"type": "address"
								},
								{
									"internalType": "uint256",
									"name": "monto",
									"type": "uint256"
								},
								{
									"internalType": "uint256",
									"name": "plazo",
									"type": "uint256"
								},
								{
									"internalType": "uint256",
									"name": "tiempoSolicitud",
									"type": "uint256"
								},
								{
									"internalType": "uint256",
									"name": "tiempoLimite",
									"type": "uint256"
								},
								{
									"internalType": "bool",
									"name": "aprobado",
									"type": "bool"
								},
								{
									"internalType": "bool",
									"name": "reembolsado",
									"type": "bool"
								},
								{
									"internalType": "bool",
									"name": "liquidado",
									"type": "bool"
								}
							],
							"internalType": "struct Banco.Prestamo",
							"name": "",
							"type": "tuple"
						}
					],
					"stateMutability": "view",
					"type": "function"
				},
				{
					"inputs": [
						{
							"internalType": "address",
							"name": "prestatario_",
							"type": "address"
						}
					],
					"name": "obtenerPrestamosPorPrestatario",
					"outputs": [
						{
							"internalType": "uint256[]",
							"name": "",
							"type": "uint256[]"
						}
					],
					"stateMutability": "view",
					"type": "function"
				},
				{
					"inputs": [
						{
							"internalType": "uint256",
							"name": "id_",
							"type": "uint256"
						}
					],
					"name": "reembolsarPrestamo",
					"outputs": [],
					"stateMutability": "nonpayable",
					"type": "function"
				},
				{
					"inputs": [],
					"name": "socioPrincipal",
					"outputs": [
						{
							"internalType": "address payable",
							"name": "",
							"type": "address"
						}
					],
					"stateMutability": "view",
					"type": "function"
				},
				{
					"inputs": [
						{
							"internalType": "uint256",
							"name": "monto_",
							"type": "uint256"
						},
						{
							"internalType": "uint256",
							"name": "plazo_",
							"type": "uint256"
						}
					],
					"name": "solicitarPrestamo",
					"outputs": [
						{
							"internalType": "uint256",
							"name": "",
							"type": "uint256"
						}
					],
					"stateMutability": "nonpayable",
					"type": "function"
				}
			],
			"devdoc": {
				"kind": "dev",
				"methods": {},
				"version": 1
			},
			"evm": {
				"assembly": "    /* \"Prueva VS Code/proyecto-final-daniel-salinas/contract/banco-prestamo.sol\":62:7654  contract Banco {\r... */\n  mstore(0x40, 0x80)\n    /* \"Prueva VS Code/proyecto-final-daniel-salinas/contract/banco-prestamo.sol\":1460:1583  constructor() {\r... */\n  callvalue\n  dup1\n  iszero\n  tag_1\n  jumpi\n  0x00\n  dup1\n  revert\ntag_1:\n  pop\n    /* \"Prueva VS Code/proyecto-final-daniel-salinas/contract/banco-prestamo.sol\":1510:1520  msg.sender */\n  caller\n    /* \"Prueva VS Code/proyecto-final-daniel-salinas/contract/banco-prestamo.sol\":1485:1499  socioPrincipal */\n  0x00\n  dup1\n    /* \"Prueva VS Code/proyecto-final-daniel-salinas/contract/banco-prestamo.sol\":1485:1521  socioPrincipal = payable(msg.sender) */\n  0x0100\n  exp\n  dup2\n  sload\n  dup2\n  0xffffffffffffffffffffffffffffffffffffffff\n  mul\n  not\n  and\n  swap1\n  dup4\n  0xffffffffffffffffffffffffffffffffffffffff\n  and\n  mul\n  or\n  swap1\n  sstore\n  pop\n    /* \"Prueva VS Code/proyecto-final-daniel-salinas/contract/banco-prestamo.sol\":1571:1575  true */\n  0x01\n    /* \"Prueva VS Code/proyecto-final-daniel-salinas/contract/banco-prestamo.sol\":1532:1552  empleadosPrestamista */\n  0x02\n    /* \"Prueva VS Code/proyecto-final-daniel-salinas/contract/banco-prestamo.sol\":1532:1568  empleadosPrestamista[socioPrincipal] */\n  0x00\n    /* \"Prueva VS Code/proyecto-final-daniel-salinas/contract/banco-prestamo.sol\":1553:1567  socioPrincipal */\n  dup1\n  0x00\n  swap1\n  sload\n  swap1\n  0x0100\n  exp\n  swap1\n  div\n  0xffffffffffffffffffffffffffffffffffffffff\n  and\n    /* \"Prueva VS Code/proyecto-final-daniel-salinas/contract/banco-prestamo.sol\":1532:1568  empleadosPrestamista[socioPrincipal] */\n  0xffffffffffffffffffffffffffffffffffffffff\n  and\n  0xffffffffffffffffffffffffffffffffffffffff\n  and\n  dup2\n  mstore\n  0x20\n  add\n  swap1\n  dup2\n  mstore\n  0x20\n  add\n  0x00\n  keccak256\n  0x00\n    /* \"Prueva VS Code/proyecto-final-daniel-salinas/contract/banco-prestamo.sol\":1532:1575  empleadosPrestamista[socioPrincipal] = true */\n  0x0100\n  exp\n  dup2\n  sload\n  dup2\n  0xff\n  mul\n  not\n  and\n  swap1\n  dup4\n  iszero\n  iszero\n  mul\n  or\n  swap1\n  sstore\n  pop\n    /* \"Prueva VS Code/proyecto-final-daniel-salinas/contract/banco-prestamo.sol\":62:7654  contract Banco {\r... */\n  dataSize(sub_0)\n  dup1\n  dataOffset(sub_0)\n  0x00\n  codecopy\n  0x00\n  return\nstop\n\nsub_0: assembly {\n        /* \"Prueva VS Code/proyecto-final-daniel-salinas/contract/banco-prestamo.sol\":62:7654  contract Banco {\r... */\n      mstore(0x40, 0x80)\n      jumpi(tag_1, lt(calldatasize, 0x04))\n      shr(0xe0, calldataload(0x00))\n      dup1\n      0xa26a1514\n      gt\n      tag_12\n      jumpi\n      dup1\n      0xa26a1514\n      eq\n      tag_7\n      jumpi\n      dup1\n      0xc1e83336\n      eq\n      tag_8\n      jumpi\n      dup1\n      0xcb4e6b66\n      eq\n      tag_9\n      jumpi\n      dup1\n      0xdea42370\n      eq\n      tag_10\n      jumpi\n      dup1\n      0xf56f47a8\n      eq\n      tag_11\n      jumpi\n      jump(tag_1)\n    tag_12:\n      dup1\n      0x209aa100\n      eq\n      tag_2\n      jumpi\n      dup1\n      0x3f881611\n      eq\n      tag_3\n      jumpi\n      dup1\n      0x425743bc\n      eq\n      tag_4\n      jumpi\n      dup1\n      0x69eb16b2\n      eq\n      tag_5\n      jumpi\n      dup1\n      0x8b08de28\n      eq\n      tag_6\n      jumpi\n    tag_1:\n      0x00\n      dup1\n      revert\n        /* \"Prueva VS Code/proyecto-final-daniel-salinas/contract/banco-prestamo.sol\":2299:3479  function solicitarPrestamo(uint256 monto_, uint256 plazo_) public soloClienteRegistrado returns (uint256) {\r... */\n    tag_2:\n      callvalue\n      dup1\n      iszero\n      tag_13\n      jumpi\n      0x00\n      dup1\n      revert\n    tag_13:\n      pop\n      tag_14\n      0x04\n      dup1\n      calldatasize\n      sub\n      dup2\n      add\n      swap1\n      tag_15\n      swap2\n      swap1\n      tag_16\n      jump\t// in\n    tag_15:\n      tag_17\n      jump\t// in\n    tag_14:\n      mload(0x40)\n      tag_18\n      swap2\n      swap1\n      tag_19\n      jump\t// in\n    tag_18:\n      mload(0x40)\n      dup1\n      swap2\n      sub\n      swap1\n      return\n        /* \"Prueva VS Code/proyecto-final-daniel-salinas/contract/banco-prestamo.sol\":84:121  address payable public socioPrincipal */\n    tag_3:\n      callvalue\n      dup1\n      iszero\n      tag_20\n      jumpi\n      0x00\n      dup1\n      revert\n    tag_20:\n      pop\n      tag_21\n      tag_22\n      jump\t// in\n    tag_21:\n      mload(0x40)\n      tag_23\n      swap2\n      swap1\n      tag_24\n      jump\t// in\n    tag_23:\n      mload(0x40)\n      dup1\n      swap2\n      sub\n      swap1\n      return\n        /* \"Prueva VS Code/proyecto-final-daniel-salinas/contract/banco-prestamo.sol\":1838:2155  function altaCliente(address nuevoCliente) public soloEmpleadoPrestamista {\r... */\n    tag_4:\n      callvalue\n      dup1\n      iszero\n      tag_25\n      jumpi\n      0x00\n      dup1\n      revert\n    tag_25:\n      pop\n      tag_26\n      0x04\n      dup1\n      calldatasize\n      sub\n      dup2\n      add\n      swap1\n      tag_27\n      swap2\n      swap1\n      tag_28\n      jump\t// in\n    tag_27:\n      tag_29\n      jump\t// in\n    tag_26:\n      stop\n        /* \"Prueva VS Code/proyecto-final-daniel-salinas/contract/banco-prestamo.sol\":5925:7175  function liquidarGarantia(address prestatario_, uint256 id_) public soloEmpleadoPrestamista {\r... */\n    tag_5:\n      callvalue\n      dup1\n      iszero\n      tag_30\n      jumpi\n      0x00\n      dup1\n      revert\n    tag_30:\n      pop\n      tag_31\n      0x04\n      dup1\n      calldatasize\n      sub\n      dup2\n      add\n      swap1\n      tag_32\n      swap2\n      swap1\n      tag_33\n      jump\t// in\n    tag_32:\n      tag_34\n      jump\t// in\n    tag_31:\n      stop\n        /* \"Prueva VS Code/proyecto-final-daniel-salinas/contract/banco-prestamo.sol\":3487:4574  function aprobarPrestamo(address prestatario_, uint256 id_) public soloEmpleadoPrestamista {\r... */\n    tag_6:\n      callvalue\n      dup1\n      iszero\n      tag_35\n      jumpi\n      0x00\n      dup1\n      revert\n    tag_35:\n      pop\n      tag_36\n      0x04\n      dup1\n      calldatasize\n      sub\n      dup2\n      add\n      swap1\n      tag_37\n      swap2\n      swap1\n      tag_33\n      jump\t// in\n    tag_37:\n      tag_38\n      jump\t// in\n    tag_36:\n      stop\n        /* \"Prueva VS Code/proyecto-final-daniel-salinas/contract/banco-prestamo.sol\":7407:7651  function obtenerDetalleDePrestamo(address prestatario_, uint256 id_) public view returns (Prestamo memory) {\r... */\n    tag_7:\n      callvalue\n      dup1\n      iszero\n      tag_39\n      jumpi\n      0x00\n      dup1\n      revert\n    tag_39:\n      pop\n      tag_40\n      0x04\n      dup1\n      calldatasize\n      sub\n      dup2\n      add\n      swap1\n      tag_41\n      swap2\n      swap1\n      tag_33\n      jump\t// in\n    tag_41:\n      tag_42\n      jump\t// in\n    tag_40:\n      mload(0x40)\n      tag_43\n      swap2\n      swap1\n      tag_44\n      jump\t// in\n    tag_43:\n      mload(0x40)\n      dup1\n      swap2\n      sub\n      swap1\n      return\n        /* \"Prueva VS Code/proyecto-final-daniel-salinas/contract/banco-prestamo.sol\":1597:1830  function altaPrestamista(address nuevoPrestamista) public soloSocioPrincipal {\r... */\n    tag_8:\n      callvalue\n      dup1\n      iszero\n      tag_45\n      jumpi\n      0x00\n      dup1\n      revert\n    tag_45:\n      pop\n      tag_46\n      0x04\n      dup1\n      calldatasize\n      sub\n      dup2\n      add\n      swap1\n      tag_47\n      swap2\n      swap1\n      tag_28\n      jump\t// in\n    tag_47:\n      tag_48\n      jump\t// in\n    tag_46:\n      stop\n        /* \"Prueva VS Code/proyecto-final-daniel-salinas/contract/banco-prestamo.sol\":7183:7399  function obtenerPrestamosPorPrestatario(address prestatario_) public view returns (uint256[] memory) {\r... */\n    tag_9:\n      callvalue\n      dup1\n      iszero\n      tag_49\n      jumpi\n      0x00\n      dup1\n      revert\n    tag_49:\n      pop\n      tag_50\n      0x04\n      dup1\n      calldatasize\n      sub\n      dup2\n      add\n      swap1\n      tag_51\n      swap2\n      swap1\n      tag_28\n      jump\t// in\n    tag_51:\n      tag_52\n      jump\t// in\n    tag_50:\n      mload(0x40)\n      tag_53\n      swap2\n      swap1\n      tag_54\n      jump\t// in\n    tag_53:\n      mload(0x40)\n      dup1\n      swap2\n      sub\n      swap1\n      return\n        /* \"Prueva VS Code/proyecto-final-daniel-salinas/contract/banco-prestamo.sol\":4582:5913  function reembolsarPrestamo(uint256 id_) public soloClienteRegistrado {\r... */\n    tag_10:\n      callvalue\n      dup1\n      iszero\n      tag_55\n      jumpi\n      0x00\n      dup1\n      revert\n    tag_55:\n      pop\n      tag_56\n      0x04\n      dup1\n      calldatasize\n      sub\n      dup2\n      add\n      swap1\n      tag_57\n      swap2\n      swap1\n      tag_58\n      jump\t// in\n    tag_57:\n      tag_59\n      jump\t// in\n    tag_56:\n      stop\n        /* \"Prueva VS Code/proyecto-final-daniel-salinas/contract/banco-prestamo.sol\":2163:2291  function depositarGarantia() public payable soloClienteRegistrado {\r... */\n    tag_11:\n      tag_60\n      tag_61\n      jump\t// in\n    tag_60:\n      stop\n        /* \"Prueva VS Code/proyecto-final-daniel-salinas/contract/banco-prestamo.sol\":2299:3479  function solicitarPrestamo(uint256 monto_, uint256 plazo_) public soloClienteRegistrado returns (uint256) {\r... */\n    tag_17:\n        /* \"Prueva VS Code/proyecto-final-daniel-salinas/contract/banco-prestamo.sol\":2396:2403  uint256 */\n      0x00\n        /* \"Prueva VS Code/proyecto-final-daniel-salinas/contract/banco-prestamo.sol\":1375:1383  clientes */\n      0x01\n        /* \"Prueva VS Code/proyecto-final-daniel-salinas/contract/banco-prestamo.sol\":1375:1395  clientes[msg.sender] */\n      0x00\n        /* \"Prueva VS Code/proyecto-final-daniel-salinas/contract/banco-prestamo.sol\":1384:1394  msg.sender */\n      caller\n        /* \"Prueva VS Code/proyecto-final-daniel-salinas/contract/banco-prestamo.sol\":1375:1395  clientes[msg.sender] */\n      0xffffffffffffffffffffffffffffffffffffffff\n      and\n      0xffffffffffffffffffffffffffffffffffffffff\n      and\n      dup2\n      mstore\n      0x20\n      add\n      swap1\n      dup2\n      mstore\n      0x20\n      add\n      0x00\n      keccak256\n        /* \"Prueva VS Code/proyecto-final-daniel-salinas/contract/banco-prestamo.sol\":1375:1404  clientes[msg.sender].activado */\n      0x00\n      add\n      0x00\n      swap1\n      sload\n      swap1\n      0x0100\n      exp\n      swap1\n      div\n      0xff\n      and\n        /* \"Prueva VS Code/proyecto-final-daniel-salinas/contract/banco-prestamo.sol\":1367:1432  require(clientes[msg.sender].activado, \"No es un cliente activo\") */\n      tag_63\n      jumpi\n      mload(0x40)\n      0x08c379a000000000000000000000000000000000000000000000000000000000\n      dup2\n      mstore\n      0x04\n      add\n      tag_64\n      swap1\n      tag_65\n      jump\t// in\n    tag_64:\n      mload(0x40)\n      dup1\n      swap2\n      sub\n      swap1\n      revert\n    tag_63:\n        /* \"Prueva VS Code/proyecto-final-daniel-salinas/contract/banco-prestamo.sol\":2524:2530  monto_ */\n      dup3\n        /* \"Prueva VS Code/proyecto-final-daniel-salinas/contract/banco-prestamo.sol\":2486:2494  clientes */\n      0x01\n        /* \"Prueva VS Code/proyecto-final-daniel-salinas/contract/banco-prestamo.sol\":2486:2506  clientes[msg.sender] */\n      0x00\n        /* \"Prueva VS Code/proyecto-final-daniel-salinas/contract/banco-prestamo.sol\":2495:2505  msg.sender */\n      caller\n        /* \"Prueva VS Code/proyecto-final-daniel-salinas/contract/banco-prestamo.sol\":2486:2506  clientes[msg.sender] */\n      0xffffffffffffffffffffffffffffffffffffffff\n      and\n      0xffffffffffffffffffffffffffffffffffffffff\n      and\n      dup2\n      mstore\n      0x20\n      add\n      swap1\n      dup2\n      mstore\n      0x20\n      add\n      0x00\n      keccak256\n        /* \"Prueva VS Code/proyecto-final-daniel-salinas/contract/banco-prestamo.sol\":2486:2520  clientes[msg.sender].saldoGarantia */\n      0x01\n      add\n      sload\n        /* \"Prueva VS Code/proyecto-final-daniel-salinas/contract/banco-prestamo.sol\":2486:2530  clientes[msg.sender].saldoGarantia >= monto_ */\n      lt\n      iszero\n        /* \"Prueva VS Code/proyecto-final-daniel-salinas/contract/banco-prestamo.sol\":2478:2565  require(clientes[msg.sender].saldoGarantia >= monto_, \"Saldo de garantia insuficiente\") */\n      tag_67\n      jumpi\n      mload(0x40)\n      0x08c379a000000000000000000000000000000000000000000000000000000000\n      dup2\n      mstore\n      0x04\n      add\n      tag_68\n      swap1\n      tag_69\n      jump\t// in\n    tag_68:\n      mload(0x40)\n      dup1\n      swap2\n      sub\n      swap1\n      revert\n    tag_67:\n        /* \"Prueva VS Code/proyecto-final-daniel-salinas/contract/banco-prestamo.sol\":2603:2618  uint256 nuevoId */\n      0x00\n        /* \"Prueva VS Code/proyecto-final-daniel-salinas/contract/banco-prestamo.sol\":2663:2664  1 */\n      0x01\n        /* \"Prueva VS Code/proyecto-final-daniel-salinas/contract/banco-prestamo.sol\":2621:2629  clientes */\n      dup1\n        /* \"Prueva VS Code/proyecto-final-daniel-salinas/contract/banco-prestamo.sol\":2621:2641  clientes[msg.sender] */\n      0x00\n        /* \"Prueva VS Code/proyecto-final-daniel-salinas/contract/banco-prestamo.sol\":2630:2640  msg.sender */\n      caller\n        /* \"Prueva VS Code/proyecto-final-daniel-salinas/contract/banco-prestamo.sol\":2621:2641  clientes[msg.sender] */\n      0xffffffffffffffffffffffffffffffffffffffff\n      and\n      0xffffffffffffffffffffffffffffffffffffffff\n      and\n      dup2\n      mstore\n      0x20\n      add\n      swap1\n      dup2\n      mstore\n      0x20\n      add\n      0x00\n      keccak256\n        /* \"Prueva VS Code/proyecto-final-daniel-salinas/contract/banco-prestamo.sol\":2621:2653  clientes[msg.sender].prestamoIds */\n      0x03\n      add\n        /* \"Prueva VS Code/proyecto-final-daniel-salinas/contract/banco-prestamo.sol\":2621:2660  clientes[msg.sender].prestamoIds.length */\n      dup1\n      sload\n      swap1\n      pop\n        /* \"Prueva VS Code/proyecto-final-daniel-salinas/contract/banco-prestamo.sol\":2621:2664  clientes[msg.sender].prestamoIds.length + 1 */\n      tag_70\n      swap2\n      swap1\n      tag_71\n      jump\t// in\n    tag_70:\n        /* \"Prueva VS Code/proyecto-final-daniel-salinas/contract/banco-prestamo.sol\":2603:2664  uint256 nuevoId = clientes[msg.sender].prestamoIds.length + 1 */\n      swap1\n      pop\n        /* \"Prueva VS Code/proyecto-final-daniel-salinas/contract/banco-prestamo.sol\":2712:2742  Prestamo storage nuevoPrestamo */\n      0x00\n        /* \"Prueva VS Code/proyecto-final-daniel-salinas/contract/banco-prestamo.sol\":2745:2753  clientes */\n      0x01\n        /* \"Prueva VS Code/proyecto-final-daniel-salinas/contract/banco-prestamo.sol\":2745:2765  clientes[msg.sender] */\n      0x00\n        /* \"Prueva VS Code/proyecto-final-daniel-salinas/contract/banco-prestamo.sol\":2754:2764  msg.sender */\n      caller\n        /* \"Prueva VS Code/proyecto-final-daniel-salinas/contract/banco-prestamo.sol\":2745:2765  clientes[msg.sender] */\n      0xffffffffffffffffffffffffffffffffffffffff\n      and\n      0xffffffffffffffffffffffffffffffffffffffff\n      and\n      dup2\n      mstore\n      0x20\n      add\n      swap1\n      dup2\n      mstore\n      0x20\n      add\n      0x00\n      keccak256\n        /* \"Prueva VS Code/proyecto-final-daniel-salinas/contract/banco-prestamo.sol\":2745:2775  clientes[msg.sender].prestamos */\n      0x02\n      add\n        /* \"Prueva VS Code/proyecto-final-daniel-salinas/contract/banco-prestamo.sol\":2745:2784  clientes[msg.sender].prestamos[nuevoId] */\n      0x00\n        /* \"Prueva VS Code/proyecto-final-daniel-salinas/contract/banco-prestamo.sol\":2776:2783  nuevoId */\n      dup4\n        /* \"Prueva VS Code/proyecto-final-daniel-salinas/contract/banco-prestamo.sol\":2745:2784  clientes[msg.sender].prestamos[nuevoId] */\n      dup2\n      mstore\n      0x20\n      add\n      swap1\n      dup2\n      mstore\n      0x20\n      add\n      0x00\n      keccak256\n        /* \"Prueva VS Code/proyecto-final-daniel-salinas/contract/banco-prestamo.sol\":2712:2784  Prestamo storage nuevoPrestamo = clientes[msg.sender].prestamos[nuevoId] */\n      swap1\n      pop\n        /* \"Prueva VS Code/proyecto-final-daniel-salinas/contract/banco-prestamo.sol\":2854:2861  nuevoId */\n      dup2\n        /* \"Prueva VS Code/proyecto-final-daniel-salinas/contract/banco-prestamo.sol\":2835:2848  nuevoPrestamo */\n      dup2\n        /* \"Prueva VS Code/proyecto-final-daniel-salinas/contract/banco-prestamo.sol\":2835:2851  nuevoPrestamo.id */\n      0x00\n      add\n        /* \"Prueva VS Code/proyecto-final-daniel-salinas/contract/banco-prestamo.sol\":2835:2861  nuevoPrestamo.id = nuevoId */\n      dup2\n      swap1\n      sstore\n      pop\n        /* \"Prueva VS Code/proyecto-final-daniel-salinas/contract/banco-prestamo.sol\":2896:2906  msg.sender */\n      caller\n        /* \"Prueva VS Code/proyecto-final-daniel-salinas/contract/banco-prestamo.sol\":2868:2881  nuevoPrestamo */\n      dup2\n        /* \"Prueva VS Code/proyecto-final-daniel-salinas/contract/banco-prestamo.sol\":2868:2893  nuevoPrestamo.prestatario */\n      0x01\n      add\n      0x00\n        /* \"Prueva VS Code/proyecto-final-daniel-salinas/contract/banco-prestamo.sol\":2868:2906  nuevoPrestamo.prestatario = msg.sender */\n      0x0100\n      exp\n      dup2\n      sload\n      dup2\n      0xffffffffffffffffffffffffffffffffffffffff\n      mul\n      not\n      and\n      swap1\n      dup4\n      0xffffffffffffffffffffffffffffffffffffffff\n      and\n      mul\n      or\n      swap1\n      sstore\n      pop\n        /* \"Prueva VS Code/proyecto-final-daniel-salinas/contract/banco-prestamo.sol\":2935:2941  monto_ */\n      dup5\n        /* \"Prueva VS Code/proyecto-final-daniel-salinas/contract/banco-prestamo.sol\":2913:2926  nuevoPrestamo */\n      dup2\n        /* \"Prueva VS Code/proyecto-final-daniel-salinas/contract/banco-prestamo.sol\":2913:2932  nuevoPrestamo.monto */\n      0x02\n      add\n        /* \"Prueva VS Code/proyecto-final-daniel-salinas/contract/banco-prestamo.sol\":2913:2941  nuevoPrestamo.monto = monto_ */\n      dup2\n      swap1\n      sstore\n      pop\n        /* \"Prueva VS Code/proyecto-final-daniel-salinas/contract/banco-prestamo.sol\":2970:2976  plazo_ */\n      dup4\n        /* \"Prueva VS Code/proyecto-final-daniel-salinas/contract/banco-prestamo.sol\":2948:2961  nuevoPrestamo */\n      dup2\n        /* \"Prueva VS Code/proyecto-final-daniel-salinas/contract/banco-prestamo.sol\":2948:2967  nuevoPrestamo.plazo */\n      0x03\n      add\n        /* \"Prueva VS Code/proyecto-final-daniel-salinas/contract/banco-prestamo.sol\":2948:2976  nuevoPrestamo.plazo = plazo_ */\n      dup2\n      swap1\n      sstore\n      pop\n        /* \"Prueva VS Code/proyecto-final-daniel-salinas/contract/banco-prestamo.sol\":3015:3030  block.timestamp */\n      timestamp\n        /* \"Prueva VS Code/proyecto-final-daniel-salinas/contract/banco-prestamo.sol\":2983:2996  nuevoPrestamo */\n      dup2\n        /* \"Prueva VS Code/proyecto-final-daniel-salinas/contract/banco-prestamo.sol\":2983:3012  nuevoPrestamo.tiempoSolicitud */\n      0x04\n      add\n        /* \"Prueva VS Code/proyecto-final-daniel-salinas/contract/banco-prestamo.sol\":2983:3030  nuevoPrestamo.tiempoSolicitud = block.timestamp */\n      dup2\n      swap1\n      sstore\n      pop\n        /* \"Prueva VS Code/proyecto-final-daniel-salinas/contract/banco-prestamo.sol\":3066:3067  0 */\n      0x00\n        /* \"Prueva VS Code/proyecto-final-daniel-salinas/contract/banco-prestamo.sol\":3037:3050  nuevoPrestamo */\n      dup2\n        /* \"Prueva VS Code/proyecto-final-daniel-salinas/contract/banco-prestamo.sol\":3037:3063  nuevoPrestamo.tiempoLimite */\n      0x05\n      add\n        /* \"Prueva VS Code/proyecto-final-daniel-salinas/contract/banco-prestamo.sol\":3037:3067  nuevoPrestamo.tiempoLimite = 0 */\n      dup2\n      swap1\n      sstore\n      pop\n        /* \"Prueva VS Code/proyecto-final-daniel-salinas/contract/banco-prestamo.sol\":3099:3104  false */\n      0x00\n        /* \"Prueva VS Code/proyecto-final-daniel-salinas/contract/banco-prestamo.sol\":3074:3087  nuevoPrestamo */\n      dup2\n        /* \"Prueva VS Code/proyecto-final-daniel-salinas/contract/banco-prestamo.sol\":3074:3096  nuevoPrestamo.aprobado */\n      0x06\n      add\n      0x00\n        /* \"Prueva VS Code/proyecto-final-daniel-salinas/contract/banco-prestamo.sol\":3074:3104  nuevoPrestamo.aprobado = false */\n      0x0100\n      exp\n      dup2\n      sload\n      dup2\n      0xff\n      mul\n      not\n      and\n      swap1\n      dup4\n      iszero\n      iszero\n      mul\n      or\n      swap1\n      sstore\n      pop\n        /* \"Prueva VS Code/proyecto-final-daniel-salinas/contract/banco-prestamo.sol\":3139:3144  false */\n      0x00\n        /* \"Prueva VS Code/proyecto-final-daniel-salinas/contract/banco-prestamo.sol\":3111:3124  nuevoPrestamo */\n      dup2\n        /* \"Prueva VS Code/proyecto-final-daniel-salinas/contract/banco-prestamo.sol\":3111:3136  nuevoPrestamo.reembolsado */\n      0x06\n      add\n      0x01\n        /* \"Prueva VS Code/proyecto-final-daniel-salinas/contract/banco-prestamo.sol\":3111:3144  nuevoPrestamo.reembolsado = false */\n      0x0100\n      exp\n      dup2\n      sload\n      dup2\n      0xff\n      mul\n      not\n      and\n      swap1\n      dup4\n      iszero\n      iszero\n      mul\n      or\n      swap1\n      sstore\n      pop\n        /* \"Prueva VS Code/proyecto-final-daniel-salinas/contract/banco-prestamo.sol\":3177:3182  false */\n      0x00\n        /* \"Prueva VS Code/proyecto-final-daniel-salinas/contract/banco-prestamo.sol\":3151:3164  nuevoPrestamo */\n      dup2\n        /* \"Prueva VS Code/proyecto-final-daniel-salinas/contract/banco-prestamo.sol\":3151:3174  nuevoPrestamo.liquidado */\n      0x06\n      add\n      0x02\n        /* \"Prueva VS Code/proyecto-final-daniel-salinas/contract/banco-prestamo.sol\":3151:3182  nuevoPrestamo.liquidado = false */\n      0x0100\n      exp\n      dup2\n      sload\n      dup2\n      0xff\n      mul\n      not\n      and\n      swap1\n      dup4\n      iszero\n      iszero\n      mul\n      or\n      swap1\n      sstore\n      pop\n        /* \"Prueva VS Code/proyecto-final-daniel-salinas/contract/banco-prestamo.sol\":3241:3249  clientes */\n      0x01\n        /* \"Prueva VS Code/proyecto-final-daniel-salinas/contract/banco-prestamo.sol\":3241:3261  clientes[msg.sender] */\n      0x00\n        /* \"Prueva VS Code/proyecto-final-daniel-salinas/contract/banco-prestamo.sol\":3250:3260  msg.sender */\n      caller\n        /* \"Prueva VS Code/proyecto-final-daniel-salinas/contract/banco-prestamo.sol\":3241:3261  clientes[msg.sender] */\n      0xffffffffffffffffffffffffffffffffffffffff\n      and\n      0xffffffffffffffffffffffffffffffffffffffff\n      and\n      dup2\n      mstore\n      0x20\n      add\n      swap1\n      dup2\n      mstore\n      0x20\n      add\n      0x00\n      keccak256\n        /* \"Prueva VS Code/proyecto-final-daniel-salinas/contract/banco-prestamo.sol\":3241:3273  clientes[msg.sender].prestamoIds */\n      0x03\n      add\n        /* \"Prueva VS Code/proyecto-final-daniel-salinas/contract/banco-prestamo.sol\":3279:3286  nuevoId */\n      dup3\n        /* \"Prueva VS Code/proyecto-final-daniel-salinas/contract/banco-prestamo.sol\":3241:3287  clientes[msg.sender].prestamoIds.push(nuevoId) */\n      swap1\n      dup1\n      0x01\n      dup2\n      sload\n      add\n      dup1\n      dup3\n      sstore\n      dup1\n      swap2\n      pop\n      pop\n      0x01\n      swap1\n      sub\n      swap1\n      0x00\n      mstore\n      keccak256(0x00, 0x20)\n      add\n      0x00\n      swap1\n      swap2\n      swap1\n      swap2\n      swap1\n      swap2\n      pop\n      sstore\n        /* \"Prueva VS Code/proyecto-final-daniel-salinas/contract/banco-prestamo.sol\":3364:3374  msg.sender */\n      caller\n        /* \"Prueva VS Code/proyecto-final-daniel-salinas/contract/banco-prestamo.sol\":3346:3391  SolicitudPrestamo(msg.sender, monto_, plazo_) */\n      0xffffffffffffffffffffffffffffffffffffffff\n      and\n      0x0d7150be5d539fdc82775ebdc49a82680eda44d3b26a2c76f5d6178c68912d1d\n        /* \"Prueva VS Code/proyecto-final-daniel-salinas/contract/banco-prestamo.sol\":3376:3382  monto_ */\n      dup7\n        /* \"Prueva VS Code/proyecto-final-daniel-salinas/contract/banco-prestamo.sol\":3384:3390  plazo_ */\n      dup7\n        /* \"Prueva VS Code/proyecto-final-daniel-salinas/contract/banco-prestamo.sol\":3346:3391  SolicitudPrestamo(msg.sender, monto_, plazo_) */\n      mload(0x40)\n      tag_73\n      swap3\n      swap2\n      swap1\n      tag_74\n      jump\t// in\n    tag_73:\n      mload(0x40)\n      dup1\n      swap2\n      sub\n      swap1\n      log2\n        /* \"Prueva VS Code/proyecto-final-daniel-salinas/contract/banco-prestamo.sol\":3464:3471  nuevoId */\n      dup2\n        /* \"Prueva VS Code/proyecto-final-daniel-salinas/contract/banco-prestamo.sol\":3457:3471  return nuevoId */\n      swap3\n      pop\n      pop\n      pop\n        /* \"Prueva VS Code/proyecto-final-daniel-salinas/contract/banco-prestamo.sol\":2299:3479  function solicitarPrestamo(uint256 monto_, uint256 plazo_) public soloClienteRegistrado returns (uint256) {\r... */\n      swap3\n      swap2\n      pop\n      pop\n      jump\t// out\n        /* \"Prueva VS Code/proyecto-final-daniel-salinas/contract/banco-prestamo.sol\":84:121  address payable public socioPrincipal */\n    tag_22:\n      0x00\n      dup1\n      sload\n      swap1\n      0x0100\n      exp\n      swap1\n      div\n      0xffffffffffffffffffffffffffffffffffffffff\n      and\n      dup2\n      jump\t// out\n        /* \"Prueva VS Code/proyecto-final-daniel-salinas/contract/banco-prestamo.sol\":1838:2155  function altaCliente(address nuevoCliente) public soloEmpleadoPrestamista {\r... */\n    tag_29:\n        /* \"Prueva VS Code/proyecto-final-daniel-salinas/contract/banco-prestamo.sol\":1246:1266  empleadosPrestamista */\n      0x02\n        /* \"Prueva VS Code/proyecto-final-daniel-salinas/contract/banco-prestamo.sol\":1246:1278  empleadosPrestamista[msg.sender] */\n      0x00\n        /* \"Prueva VS Code/proyecto-final-daniel-salinas/contract/banco-prestamo.sol\":1267:1277  msg.sender */\n      caller\n        /* \"Prueva VS Code/proyecto-final-daniel-salinas/contract/banco-prestamo.sol\":1246:1278  empleadosPrestamista[msg.sender] */\n      0xffffffffffffffffffffffffffffffffffffffff\n      and\n      0xffffffffffffffffffffffffffffffffffffffff\n      and\n      dup2\n      mstore\n      0x20\n      add\n      swap1\n      dup2\n      mstore\n      0x20\n      add\n      0x00\n      keccak256\n      0x00\n      swap1\n      sload\n      swap1\n      0x0100\n      exp\n      swap1\n      div\n      0xff\n      and\n        /* \"Prueva VS Code/proyecto-final-daniel-salinas/contract/banco-prestamo.sol\":1238:1297  require(empleadosPrestamista[msg.sender], \"No es empleado\") */\n      tag_76\n      jumpi\n      mload(0x40)\n      0x08c379a000000000000000000000000000000000000000000000000000000000\n      dup2\n      mstore\n      0x04\n      add\n      tag_77\n      swap1\n      tag_78\n      jump\t// in\n    tag_77:\n      mload(0x40)\n      dup1\n      swap2\n      sub\n      swap1\n      revert\n    tag_76:\n        /* \"Prueva VS Code/proyecto-final-daniel-salinas/contract/banco-prestamo.sol\":1928:1936  clientes */\n      0x01\n        /* \"Prueva VS Code/proyecto-final-daniel-salinas/contract/banco-prestamo.sol\":1928:1950  clientes[nuevoCliente] */\n      0x00\n        /* \"Prueva VS Code/proyecto-final-daniel-salinas/contract/banco-prestamo.sol\":1937:1949  nuevoCliente */\n      dup3\n        /* \"Prueva VS Code/proyecto-final-daniel-salinas/contract/banco-prestamo.sol\":1928:1950  clientes[nuevoCliente] */\n      0xffffffffffffffffffffffffffffffffffffffff\n      and\n      0xffffffffffffffffffffffffffffffffffffffff\n      and\n      dup2\n      mstore\n      0x20\n      add\n      swap1\n      dup2\n      mstore\n      0x20\n      add\n      0x00\n      keccak256\n        /* \"Prueva VS Code/proyecto-final-daniel-salinas/contract/banco-prestamo.sol\":1928:1959  clientes[nuevoCliente].activado */\n      0x00\n      add\n      0x00\n      swap1\n      sload\n      swap1\n      0x0100\n      exp\n      swap1\n      div\n      0xff\n      and\n        /* \"Prueva VS Code/proyecto-final-daniel-salinas/contract/banco-prestamo.sol\":1927:1959  !clientes[nuevoCliente].activado */\n      iszero\n        /* \"Prueva VS Code/proyecto-final-daniel-salinas/contract/banco-prestamo.sol\":1919:1995  require(!clientes[nuevoCliente].activado, \"El cliente ya esta dado de alta\") */\n      tag_80\n      jumpi\n      mload(0x40)\n      0x08c379a000000000000000000000000000000000000000000000000000000000\n      dup2\n      mstore\n      0x04\n      add\n      tag_81\n      swap1\n      tag_82\n      jump\t// in\n    tag_81:\n      mload(0x40)\n      dup1\n      swap2\n      sub\n      swap1\n      revert\n    tag_80:\n        /* \"Prueva VS Code/proyecto-final-daniel-salinas/contract/banco-prestamo.sol\":2004:2038  Cliente storage structNuevoCliente */\n      0x00\n        /* \"Prueva VS Code/proyecto-final-daniel-salinas/contract/banco-prestamo.sol\":2041:2049  clientes */\n      0x01\n        /* \"Prueva VS Code/proyecto-final-daniel-salinas/contract/banco-prestamo.sol\":2041:2063  clientes[nuevoCliente] */\n      0x00\n        /* \"Prueva VS Code/proyecto-final-daniel-salinas/contract/banco-prestamo.sol\":2050:2062  nuevoCliente */\n      dup4\n        /* \"Prueva VS Code/proyecto-final-daniel-salinas/contract/banco-prestamo.sol\":2041:2063  clientes[nuevoCliente] */\n      0xffffffffffffffffffffffffffffffffffffffff\n      and\n      0xffffffffffffffffffffffffffffffffffffffff\n      and\n      dup2\n      mstore\n      0x20\n      add\n      swap1\n      dup2\n      mstore\n      0x20\n      add\n      0x00\n      keccak256\n        /* \"Prueva VS Code/proyecto-final-daniel-salinas/contract/banco-prestamo.sol\":2004:2063  Cliente storage structNuevoCliente = clientes[nuevoCliente] */\n      swap1\n      pop\n        /* \"Prueva VS Code/proyecto-final-daniel-salinas/contract/banco-prestamo.sol\":2105:2106  0 */\n      0x00\n        /* \"Prueva VS Code/proyecto-final-daniel-salinas/contract/banco-prestamo.sol\":2070:2088  structNuevoCliente */\n      dup2\n        /* \"Prueva VS Code/proyecto-final-daniel-salinas/contract/banco-prestamo.sol\":2070:2102  structNuevoCliente.saldoGarantia */\n      0x01\n      add\n        /* \"Prueva VS Code/proyecto-final-daniel-salinas/contract/banco-prestamo.sol\":2070:2106  structNuevoCliente.saldoGarantia = 0 */\n      dup2\n      swap1\n      sstore\n      pop\n        /* \"Prueva VS Code/proyecto-final-daniel-salinas/contract/banco-prestamo.sol\":2143:2147  true */\n      0x01\n        /* \"Prueva VS Code/proyecto-final-daniel-salinas/contract/banco-prestamo.sol\":2113:2131  structNuevoCliente */\n      dup2\n        /* \"Prueva VS Code/proyecto-final-daniel-salinas/contract/banco-prestamo.sol\":2113:2140  structNuevoCliente.activado */\n      0x00\n      add\n      0x00\n        /* \"Prueva VS Code/proyecto-final-daniel-salinas/contract/banco-prestamo.sol\":2113:2147  structNuevoCliente.activado = true */\n      0x0100\n      exp\n      dup2\n      sload\n      dup2\n      0xff\n      mul\n      not\n      and\n      swap1\n      dup4\n      iszero\n      iszero\n      mul\n      or\n      swap1\n      sstore\n      pop\n        /* \"Prueva VS Code/proyecto-final-daniel-salinas/contract/banco-prestamo.sol\":1308:1309  _ */\n      pop\n        /* \"Prueva VS Code/proyecto-final-daniel-salinas/contract/banco-prestamo.sol\":1838:2155  function altaCliente(address nuevoCliente) public soloEmpleadoPrestamista {\r... */\n      pop\n      jump\t// out\n        /* \"Prueva VS Code/proyecto-final-daniel-salinas/contract/banco-prestamo.sol\":5925:7175  function liquidarGarantia(address prestatario_, uint256 id_) public soloEmpleadoPrestamista {\r... */\n    tag_34:\n        /* \"Prueva VS Code/proyecto-final-daniel-salinas/contract/banco-prestamo.sol\":1246:1266  empleadosPrestamista */\n      0x02\n        /* \"Prueva VS Code/proyecto-final-daniel-salinas/contract/banco-prestamo.sol\":1246:1278  empleadosPrestamista[msg.sender] */\n      0x00\n        /* \"Prueva VS Code/proyecto-final-daniel-salinas/contract/banco-prestamo.sol\":1267:1277  msg.sender */\n      caller\n        /* \"Prueva VS Code/proyecto-final-daniel-salinas/contract/banco-prestamo.sol\":1246:1278  empleadosPrestamista[msg.sender] */\n      0xffffffffffffffffffffffffffffffffffffffff\n      and\n      0xffffffffffffffffffffffffffffffffffffffff\n      and\n      dup2\n      mstore\n      0x20\n      add\n      swap1\n      dup2\n      mstore\n      0x20\n      add\n      0x00\n      keccak256\n      0x00\n      swap1\n      sload\n      swap1\n      0x0100\n      exp\n      swap1\n      div\n      0xff\n      and\n        /* \"Prueva VS Code/proyecto-final-daniel-salinas/contract/banco-prestamo.sol\":1238:1297  require(empleadosPrestamista[msg.sender], \"No es empleado\") */\n      tag_84\n      jumpi\n      mload(0x40)\n      0x08c379a000000000000000000000000000000000000000000000000000000000\n      dup2\n      mstore\n      0x04\n      add\n      tag_85\n      swap1\n      tag_78\n      jump\t// in\n    tag_85:\n      mload(0x40)\n      dup1\n      swap2\n      sub\n      swap1\n      revert\n    tag_84:\n        /* \"Prueva VS Code/proyecto-final-daniel-salinas/contract/banco-prestamo.sol\":6089:6116  Cliente storage prestatario */\n      0x00\n        /* \"Prueva VS Code/proyecto-final-daniel-salinas/contract/banco-prestamo.sol\":6119:6127  clientes */\n      0x01\n        /* \"Prueva VS Code/proyecto-final-daniel-salinas/contract/banco-prestamo.sol\":6119:6141  clientes[prestatario_] */\n      0x00\n        /* \"Prueva VS Code/proyecto-final-daniel-salinas/contract/banco-prestamo.sol\":6128:6140  prestatario_ */\n      dup5\n        /* \"Prueva VS Code/proyecto-final-daniel-salinas/contract/banco-prestamo.sol\":6119:6141  clientes[prestatario_] */\n      0xffffffffffffffffffffffffffffffffffffffff\n      and\n      0xffffffffffffffffffffffffffffffffffffffff\n      and\n      dup2\n      mstore\n      0x20\n      add\n      swap1\n      dup2\n      mstore\n      0x20\n      add\n      0x00\n      keccak256\n        /* \"Prueva VS Code/proyecto-final-daniel-salinas/contract/banco-prestamo.sol\":6089:6141  Cliente storage prestatario = clientes[prestatario_] */\n      swap1\n      pop\n        /* \"Prueva VS Code/proyecto-final-daniel-salinas/contract/banco-prestamo.sol\":6235:6236  0 */\n      0x00\n        /* \"Prueva VS Code/proyecto-final-daniel-salinas/contract/banco-prestamo.sol\":6229:6232  id_ */\n      dup3\n        /* \"Prueva VS Code/proyecto-final-daniel-salinas/contract/banco-prestamo.sol\":6229:6236  id_ > 0 */\n      gt\n        /* \"Prueva VS Code/proyecto-final-daniel-salinas/contract/banco-prestamo.sol\":6229:6277  id_ > 0 && id_ <= prestatario.prestamoIds.length */\n      dup1\n      iszero\n      tag_87\n      jumpi\n      pop\n        /* \"Prueva VS Code/proyecto-final-daniel-salinas/contract/banco-prestamo.sol\":6247:6258  prestatario */\n      dup1\n        /* \"Prueva VS Code/proyecto-final-daniel-salinas/contract/banco-prestamo.sol\":6247:6270  prestatario.prestamoIds */\n      0x03\n      add\n        /* \"Prueva VS Code/proyecto-final-daniel-salinas/contract/banco-prestamo.sol\":6247:6277  prestatario.prestamoIds.length */\n      dup1\n      sload\n      swap1\n      pop\n        /* \"Prueva VS Code/proyecto-final-daniel-salinas/contract/banco-prestamo.sol\":6240:6243  id_ */\n      dup3\n        /* \"Prueva VS Code/proyecto-final-daniel-salinas/contract/banco-prestamo.sol\":6240:6277  id_ <= prestatario.prestamoIds.length */\n      gt\n      iszero\n        /* \"Prueva VS Code/proyecto-final-daniel-salinas/contract/banco-prestamo.sol\":6229:6277  id_ > 0 && id_ <= prestatario.prestamoIds.length */\n    tag_87:\n        /* \"Prueva VS Code/proyecto-final-daniel-salinas/contract/banco-prestamo.sol\":6221:6306  require(id_ > 0 && id_ <= prestatario.prestamoIds.length, \"Id de prestamo no valido\") */\n      tag_88\n      jumpi\n      mload(0x40)\n      0x08c379a000000000000000000000000000000000000000000000000000000000\n      dup2\n      mstore\n      0x04\n      add\n      tag_89\n      swap1\n      tag_90\n      jump\t// in\n    tag_89:\n      mload(0x40)\n      dup1\n      swap2\n      sub\n      swap1\n      revert\n    tag_88:\n        /* \"Prueva VS Code/proyecto-final-daniel-salinas/contract/banco-prestamo.sol\":6381:6406  Prestamo storage prestamo */\n      0x00\n        /* \"Prueva VS Code/proyecto-final-daniel-salinas/contract/banco-prestamo.sol\":6409:6420  prestatario */\n      dup2\n        /* \"Prueva VS Code/proyecto-final-daniel-salinas/contract/banco-prestamo.sol\":6409:6430  prestatario.prestamos */\n      0x02\n      add\n        /* \"Prueva VS Code/proyecto-final-daniel-salinas/contract/banco-prestamo.sol\":6409:6435  prestatario.prestamos[id_] */\n      0x00\n        /* \"Prueva VS Code/proyecto-final-daniel-salinas/contract/banco-prestamo.sol\":6431:6434  id_ */\n      dup5\n        /* \"Prueva VS Code/proyecto-final-daniel-salinas/contract/banco-prestamo.sol\":6409:6435  prestatario.prestamos[id_] */\n      dup2\n      mstore\n      0x20\n      add\n      swap1\n      dup2\n      mstore\n      0x20\n      add\n      0x00\n      keccak256\n        /* \"Prueva VS Code/proyecto-final-daniel-salinas/contract/banco-prestamo.sol\":6381:6435  Prestamo storage prestamo = prestatario.prestamos[id_] */\n      swap1\n      pop\n        /* \"Prueva VS Code/proyecto-final-daniel-salinas/contract/banco-prestamo.sol\":6527:6535  prestamo */\n      dup1\n        /* \"Prueva VS Code/proyecto-final-daniel-salinas/contract/banco-prestamo.sol\":6527:6544  prestamo.aprobado */\n      0x06\n      add\n      0x00\n      swap1\n      sload\n      swap1\n      0x0100\n      exp\n      swap1\n      div\n      0xff\n      and\n        /* \"Prueva VS Code/proyecto-final-daniel-salinas/contract/banco-prestamo.sol\":6519:6577  require(prestamo.aprobado, \"El prestamo no esta aprobado\") */\n      tag_91\n      jumpi\n      mload(0x40)\n      0x08c379a000000000000000000000000000000000000000000000000000000000\n      dup2\n      mstore\n      0x04\n      add\n      tag_92\n      swap1\n      tag_93\n      jump\t// in\n    tag_92:\n      mload(0x40)\n      dup1\n      swap2\n      sub\n      swap1\n      revert\n    tag_91:\n        /* \"Prueva VS Code/proyecto-final-daniel-salinas/contract/banco-prestamo.sol\":6593:6601  prestamo */\n      dup1\n        /* \"Prueva VS Code/proyecto-final-daniel-salinas/contract/banco-prestamo.sol\":6593:6613  prestamo.reembolsado */\n      0x06\n      add\n      0x01\n      swap1\n      sload\n      swap1\n      0x0100\n      exp\n      swap1\n      div\n      0xff\n      and\n        /* \"Prueva VS Code/proyecto-final-daniel-salinas/contract/banco-prestamo.sol\":6592:6613  !prestamo.reembolsado */\n      iszero\n        /* \"Prueva VS Code/proyecto-final-daniel-salinas/contract/banco-prestamo.sol\":6584:6648  require(!prestamo.reembolsado, \"El prestamo ya fue reembolsado\") */\n      tag_94\n      jumpi\n      mload(0x40)\n      0x08c379a000000000000000000000000000000000000000000000000000000000\n      dup2\n      mstore\n      0x04\n      add\n      tag_95\n      swap1\n      tag_96\n      jump\t// in\n    tag_95:\n      mload(0x40)\n      dup1\n      swap2\n      sub\n      swap1\n      revert\n    tag_94:\n        /* \"Prueva VS Code/proyecto-final-daniel-salinas/contract/banco-prestamo.sol\":6664:6672  prestamo */\n      dup1\n        /* \"Prueva VS Code/proyecto-final-daniel-salinas/contract/banco-prestamo.sol\":6664:6682  prestamo.liquidado */\n      0x06\n      add\n      0x02\n      swap1\n      sload\n      swap1\n      0x0100\n      exp\n      swap1\n      div\n      0xff\n      and\n        /* \"Prueva VS Code/proyecto-final-daniel-salinas/contract/banco-prestamo.sol\":6663:6682  !prestamo.liquidado */\n      iszero\n        /* \"Prueva VS Code/proyecto-final-daniel-salinas/contract/banco-prestamo.sol\":6655:6715  require(!prestamo.liquidado, \"El prestamo ya fue liquidado\") */\n      tag_97\n      jumpi\n      mload(0x40)\n      0x08c379a000000000000000000000000000000000000000000000000000000000\n      dup2\n      mstore\n      0x04\n      add\n      tag_98\n      swap1\n      tag_99\n      jump\t// in\n    tag_98:\n      mload(0x40)\n      dup1\n      swap2\n      sub\n      swap1\n      revert\n    tag_97:\n        /* \"Prueva VS Code/proyecto-final-daniel-salinas/contract/banco-prestamo.sol\":6754:6769  block.timestamp */\n      timestamp\n        /* \"Prueva VS Code/proyecto-final-daniel-salinas/contract/banco-prestamo.sol\":6730:6738  prestamo */\n      dup2\n        /* \"Prueva VS Code/proyecto-final-daniel-salinas/contract/banco-prestamo.sol\":6730:6751  prestamo.tiempoLimite */\n      0x05\n      add\n      sload\n        /* \"Prueva VS Code/proyecto-final-daniel-salinas/contract/banco-prestamo.sol\":6730:6769  prestamo.tiempoLimite < block.timestamp */\n      lt\n        /* \"Prueva VS Code/proyecto-final-daniel-salinas/contract/banco-prestamo.sol\":6722:6804  require(prestamo.tiempoLimite < block.timestamp, \"El tiempo limite no ha vencido\") */\n      tag_100\n      jumpi\n      mload(0x40)\n      0x08c379a000000000000000000000000000000000000000000000000000000000\n      dup2\n      mstore\n      0x04\n      add\n      tag_101\n      swap1\n      tag_102\n      jump\t// in\n    tag_101:\n      mload(0x40)\n      dup1\n      swap2\n      sub\n      swap1\n      revert\n    tag_100:\n        /* \"Prueva VS Code/proyecto-final-daniel-salinas/contract/banco-prestamo.sol\":6873:6887  socioPrincipal */\n      0x00\n      dup1\n      sload\n      swap1\n      0x0100\n      exp\n      swap1\n      div\n      0xffffffffffffffffffffffffffffffffffffffff\n      and\n        /* \"Prueva VS Code/proyecto-final-daniel-salinas/contract/banco-prestamo.sol\":6873:6896  socioPrincipal.transfer */\n      0xffffffffffffffffffffffffffffffffffffffff\n      and\n        /* \"Prueva VS Code/proyecto-final-daniel-salinas/contract/banco-prestamo.sol\":6873:6912  socioPrincipal.transfer(prestamo.monto) */\n      0x08fc\n        /* \"Prueva VS Code/proyecto-final-daniel-salinas/contract/banco-prestamo.sol\":6897:6905  prestamo */\n      dup3\n        /* \"Prueva VS Code/proyecto-final-daniel-salinas/contract/banco-prestamo.sol\":6897:6911  prestamo.monto */\n      0x02\n      add\n      sload\n        /* \"Prueva VS Code/proyecto-final-daniel-salinas/contract/banco-prestamo.sol\":6873:6912  socioPrincipal.transfer(prestamo.monto) */\n      swap1\n      dup2\n      iszero\n      mul\n      swap1\n      mload(0x40)\n      0x00\n      mload(0x40)\n      dup1\n      dup4\n      sub\n      dup2\n      dup6\n      dup9\n      dup9\n      call\n      swap4\n      pop\n      pop\n      pop\n      pop\n      iszero\n      dup1\n      iszero\n      tag_104\n      jumpi\n      returndatasize\n      0x00\n      dup1\n      returndatacopy\n      revert(0x00, returndatasize)\n    tag_104:\n      pop\n        /* \"Prueva VS Code/proyecto-final-daniel-salinas/contract/banco-prestamo.sol\":7007:7011  true */\n      0x01\n        /* \"Prueva VS Code/proyecto-final-daniel-salinas/contract/banco-prestamo.sol\":6986:6994  prestamo */\n      dup2\n        /* \"Prueva VS Code/proyecto-final-daniel-salinas/contract/banco-prestamo.sol\":6986:7004  prestamo.liquidado */\n      0x06\n      add\n      0x02\n        /* \"Prueva VS Code/proyecto-final-daniel-salinas/contract/banco-prestamo.sol\":6986:7011  prestamo.liquidado = true */\n      0x0100\n      exp\n      dup2\n      sload\n      dup2\n      0xff\n      mul\n      not\n      and\n      swap1\n      dup4\n      iszero\n      iszero\n      mul\n      or\n      swap1\n      sstore\n      pop\n        /* \"Prueva VS Code/proyecto-final-daniel-salinas/contract/banco-prestamo.sol\":7047:7055  prestamo */\n      dup1\n        /* \"Prueva VS Code/proyecto-final-daniel-salinas/contract/banco-prestamo.sol\":7047:7061  prestamo.monto */\n      0x02\n      add\n      sload\n        /* \"Prueva VS Code/proyecto-final-daniel-salinas/contract/banco-prestamo.sol\":7018:7029  prestatario */\n      dup3\n        /* \"Prueva VS Code/proyecto-final-daniel-salinas/contract/banco-prestamo.sol\":7018:7043  prestatario.saldoGarantia */\n      0x01\n      add\n      0x00\n        /* \"Prueva VS Code/proyecto-final-daniel-salinas/contract/banco-prestamo.sol\":7018:7061  prestatario.saldoGarantia -= prestamo.monto */\n      dup3\n      dup3\n      sload\n      tag_105\n      swap2\n      swap1\n      tag_106\n      jump\t// in\n    tag_105:\n      swap3\n      pop\n      pop\n      dup2\n      swap1\n      sstore\n      pop\n        /* \"Prueva VS Code/proyecto-final-daniel-salinas/contract/banco-prestamo.sol\":7138:7150  prestatario_ */\n      dup4\n        /* \"Prueva VS Code/proyecto-final-daniel-salinas/contract/banco-prestamo.sol\":7120:7167  GarantiaLiquidada(prestatario_, prestamo.monto) */\n      0xffffffffffffffffffffffffffffffffffffffff\n      and\n      0x20a0b1dc781935ba0bbb6a4cd56d8d1fa7c8c14de23b10f7e34ec35bf57856f4\n        /* \"Prueva VS Code/proyecto-final-daniel-salinas/contract/banco-prestamo.sol\":7152:7160  prestamo */\n      dup3\n        /* \"Prueva VS Code/proyecto-final-daniel-salinas/contract/banco-prestamo.sol\":7152:7166  prestamo.monto */\n      0x02\n      add\n      sload\n        /* \"Prueva VS Code/proyecto-final-daniel-salinas/contract/banco-prestamo.sol\":7120:7167  GarantiaLiquidada(prestatario_, prestamo.monto) */\n      mload(0x40)\n      tag_107\n      swap2\n      swap1\n      tag_19\n      jump\t// in\n    tag_107:\n      mload(0x40)\n      dup1\n      swap2\n      sub\n      swap1\n      log2\n        /* \"Prueva VS Code/proyecto-final-daniel-salinas/contract/banco-prestamo.sol\":1308:1309  _ */\n      pop\n      pop\n        /* \"Prueva VS Code/proyecto-final-daniel-salinas/contract/banco-prestamo.sol\":5925:7175  function liquidarGarantia(address prestatario_, uint256 id_) public soloEmpleadoPrestamista {\r... */\n      pop\n      pop\n      jump\t// out\n        /* \"Prueva VS Code/proyecto-final-daniel-salinas/contract/banco-prestamo.sol\":3487:4574  function aprobarPrestamo(address prestatario_, uint256 id_) public soloEmpleadoPrestamista {\r... */\n    tag_38:\n        /* \"Prueva VS Code/proyecto-final-daniel-salinas/contract/banco-prestamo.sol\":1246:1266  empleadosPrestamista */\n      0x02\n        /* \"Prueva VS Code/proyecto-final-daniel-salinas/contract/banco-prestamo.sol\":1246:1278  empleadosPrestamista[msg.sender] */\n      0x00\n        /* \"Prueva VS Code/proyecto-final-daniel-salinas/contract/banco-prestamo.sol\":1267:1277  msg.sender */\n      caller\n        /* \"Prueva VS Code/proyecto-final-daniel-salinas/contract/banco-prestamo.sol\":1246:1278  empleadosPrestamista[msg.sender] */\n      0xffffffffffffffffffffffffffffffffffffffff\n      and\n      0xffffffffffffffffffffffffffffffffffffffff\n      and\n      dup2\n      mstore\n      0x20\n      add\n      swap1\n      dup2\n      mstore\n      0x20\n      add\n      0x00\n      keccak256\n      0x00\n      swap1\n      sload\n      swap1\n      0x0100\n      exp\n      swap1\n      div\n      0xff\n      and\n        /* \"Prueva VS Code/proyecto-final-daniel-salinas/contract/banco-prestamo.sol\":1238:1297  require(empleadosPrestamista[msg.sender], \"No es empleado\") */\n      tag_109\n      jumpi\n      mload(0x40)\n      0x08c379a000000000000000000000000000000000000000000000000000000000\n      dup2\n      mstore\n      0x04\n      add\n      tag_110\n      swap1\n      tag_78\n      jump\t// in\n    tag_110:\n      mload(0x40)\n      dup1\n      swap2\n      sub\n      swap1\n      revert\n    tag_109:\n        /* \"Prueva VS Code/proyecto-final-daniel-salinas/contract/banco-prestamo.sol\":3650:3677  Cliente storage prestatario */\n      0x00\n        /* \"Prueva VS Code/proyecto-final-daniel-salinas/contract/banco-prestamo.sol\":3680:3688  clientes */\n      0x01\n        /* \"Prueva VS Code/proyecto-final-daniel-salinas/contract/banco-prestamo.sol\":3680:3702  clientes[prestatario_] */\n      0x00\n        /* \"Prueva VS Code/proyecto-final-daniel-salinas/contract/banco-prestamo.sol\":3689:3701  prestatario_ */\n      dup5\n        /* \"Prueva VS Code/proyecto-final-daniel-salinas/contract/banco-prestamo.sol\":3680:3702  clientes[prestatario_] */\n      0xffffffffffffffffffffffffffffffffffffffff\n      and\n      0xffffffffffffffffffffffffffffffffffffffff\n      and\n      dup2\n      mstore\n      0x20\n      add\n      swap1\n      dup2\n      mstore\n      0x20\n      add\n      0x00\n      keccak256\n        /* \"Prueva VS Code/proyecto-final-daniel-salinas/contract/banco-prestamo.sol\":3650:3702  Cliente storage prestatario = clientes[prestatario_] */\n      swap1\n      pop\n        /* \"Prueva VS Code/proyecto-final-daniel-salinas/contract/banco-prestamo.sol\":3796:3797  0 */\n      0x00\n        /* \"Prueva VS Code/proyecto-final-daniel-salinas/contract/banco-prestamo.sol\":3790:3793  id_ */\n      dup3\n        /* \"Prueva VS Code/proyecto-final-daniel-salinas/contract/banco-prestamo.sol\":3790:3797  id_ > 0 */\n      gt\n        /* \"Prueva VS Code/proyecto-final-daniel-salinas/contract/banco-prestamo.sol\":3790:3838  id_ > 0 && id_ <= prestatario.prestamoIds.length */\n      dup1\n      iszero\n      tag_112\n      jumpi\n      pop\n        /* \"Prueva VS Code/proyecto-final-daniel-salinas/contract/banco-prestamo.sol\":3808:3819  prestatario */\n      dup1\n        /* \"Prueva VS Code/proyecto-final-daniel-salinas/contract/banco-prestamo.sol\":3808:3831  prestatario.prestamoIds */\n      0x03\n      add\n        /* \"Prueva VS Code/proyecto-final-daniel-salinas/contract/banco-prestamo.sol\":3808:3838  prestatario.prestamoIds.length */\n      dup1\n      sload\n      swap1\n      pop\n        /* \"Prueva VS Code/proyecto-final-daniel-salinas/contract/banco-prestamo.sol\":3801:3804  id_ */\n      dup3\n        /* \"Prueva VS Code/proyecto-final-daniel-salinas/contract/banco-prestamo.sol\":3801:3838  id_ <= prestatario.prestamoIds.length */\n      gt\n      iszero\n        /* \"Prueva VS Code/proyecto-final-daniel-salinas/contract/banco-prestamo.sol\":3790:3838  id_ > 0 && id_ <= prestatario.prestamoIds.length */\n    tag_112:\n        /* \"Prueva VS Code/proyecto-final-daniel-salinas/contract/banco-prestamo.sol\":3782:3867  require(id_ > 0 && id_ <= prestatario.prestamoIds.length, \"Id de prestamo no valido\") */\n      tag_113\n      jumpi\n      mload(0x40)\n      0x08c379a000000000000000000000000000000000000000000000000000000000\n      dup2\n      mstore\n      0x04\n      add\n      tag_114\n      swap1\n      tag_90\n      jump\t// in\n    tag_114:\n      mload(0x40)\n      dup1\n      swap2\n      sub\n      swap1\n      revert\n    tag_113:\n        /* \"Prueva VS Code/proyecto-final-daniel-salinas/contract/banco-prestamo.sol\":3942:3967  Prestamo storage prestamo */\n      0x00\n        /* \"Prueva VS Code/proyecto-final-daniel-salinas/contract/banco-prestamo.sol\":3970:3981  prestatario */\n      dup2\n        /* \"Prueva VS Code/proyecto-final-daniel-salinas/contract/banco-prestamo.sol\":3970:3991  prestatario.prestamos */\n      0x02\n      add\n        /* \"Prueva VS Code/proyecto-final-daniel-salinas/contract/banco-prestamo.sol\":3970:3996  prestatario.prestamos[id_] */\n      0x00\n        /* \"Prueva VS Code/proyecto-final-daniel-salinas/contract/banco-prestamo.sol\":3992:3995  id_ */\n      dup5\n        /* \"Prueva VS Code/proyecto-final-daniel-salinas/contract/banco-prestamo.sol\":3970:3996  prestatario.prestamos[id_] */\n      dup2\n      mstore\n      0x20\n      add\n      swap1\n      dup2\n      mstore\n      0x20\n      add\n      0x00\n      keccak256\n        /* \"Prueva VS Code/proyecto-final-daniel-salinas/contract/banco-prestamo.sol\":3942:3996  Prestamo storage prestamo = prestatario.prestamos[id_] */\n      swap1\n      pop\n        /* \"Prueva VS Code/proyecto-final-daniel-salinas/contract/banco-prestamo.sol\":4095:4103  prestamo */\n      dup1\n        /* \"Prueva VS Code/proyecto-final-daniel-salinas/contract/banco-prestamo.sol\":4095:4112  prestamo.aprobado */\n      0x06\n      add\n      0x00\n      swap1\n      sload\n      swap1\n      0x0100\n      exp\n      swap1\n      div\n      0xff\n      and\n        /* \"Prueva VS Code/proyecto-final-daniel-salinas/contract/banco-prestamo.sol\":4094:4112  !prestamo.aprobado */\n      iszero\n        /* \"Prueva VS Code/proyecto-final-daniel-salinas/contract/banco-prestamo.sol\":4086:4144  require(!prestamo.aprobado, \"El prestamo ya fue aprobado\") */\n      tag_115\n      jumpi\n      mload(0x40)\n      0x08c379a000000000000000000000000000000000000000000000000000000000\n      dup2\n      mstore\n      0x04\n      add\n      tag_116\n      swap1\n      tag_117\n      jump\t// in\n    tag_116:\n      mload(0x40)\n      dup1\n      swap2\n      sub\n      swap1\n      revert\n    tag_115:\n        /* \"Prueva VS Code/proyecto-final-daniel-salinas/contract/banco-prestamo.sol\":4160:4168  prestamo */\n      dup1\n        /* \"Prueva VS Code/proyecto-final-daniel-salinas/contract/banco-prestamo.sol\":4160:4180  prestamo.reembolsado */\n      0x06\n      add\n      0x01\n      swap1\n      sload\n      swap1\n      0x0100\n      exp\n      swap1\n      div\n      0xff\n      and\n        /* \"Prueva VS Code/proyecto-final-daniel-salinas/contract/banco-prestamo.sol\":4159:4180  !prestamo.reembolsado */\n      iszero\n        /* \"Prueva VS Code/proyecto-final-daniel-salinas/contract/banco-prestamo.sol\":4151:4215  require(!prestamo.reembolsado, \"El prestamo ya fue reembolsado\") */\n      tag_118\n      jumpi\n      mload(0x40)\n      0x08c379a000000000000000000000000000000000000000000000000000000000\n      dup2\n      mstore\n      0x04\n      add\n      tag_119\n      swap1\n      tag_96\n      jump\t// in\n    tag_119:\n      mload(0x40)\n      dup1\n      swap2\n      sub\n      swap1\n      revert\n    tag_118:\n        /* \"Prueva VS Code/proyecto-final-daniel-salinas/contract/banco-prestamo.sol\":4231:4239  prestamo */\n      dup1\n        /* \"Prueva VS Code/proyecto-final-daniel-salinas/contract/banco-prestamo.sol\":4231:4249  prestamo.liquidado */\n      0x06\n      add\n      0x02\n      swap1\n      sload\n      swap1\n      0x0100\n      exp\n      swap1\n      div\n      0xff\n      and\n        /* \"Prueva VS Code/proyecto-final-daniel-salinas/contract/banco-prestamo.sol\":4230:4249  !prestamo.liquidado */\n      iszero\n        /* \"Prueva VS Code/proyecto-final-daniel-salinas/contract/banco-prestamo.sol\":4222:4282  require(!prestamo.liquidado, \"El prestamo ya fue liquidado\") */\n      tag_120\n      jumpi\n      mload(0x40)\n      0x08c379a000000000000000000000000000000000000000000000000000000000\n      dup2\n      mstore\n      0x04\n      add\n      tag_121\n      swap1\n      tag_99\n      jump\t// in\n    tag_121:\n      mload(0x40)\n      dup1\n      swap2\n      sub\n      swap1\n      revert\n    tag_120:\n        /* \"Prueva VS Code/proyecto-final-daniel-salinas/contract/banco-prestamo.sol\":4372:4376  true */\n      0x01\n        /* \"Prueva VS Code/proyecto-final-daniel-salinas/contract/banco-prestamo.sol\":4352:4360  prestamo */\n      dup2\n        /* \"Prueva VS Code/proyecto-final-daniel-salinas/contract/banco-prestamo.sol\":4352:4369  prestamo.aprobado */\n      0x06\n      add\n      0x00\n        /* \"Prueva VS Code/proyecto-final-daniel-salinas/contract/banco-prestamo.sol\":4352:4376  prestamo.aprobado = true */\n      0x0100\n      exp\n      dup2\n      sload\n      dup2\n      0xff\n      mul\n      not\n      and\n      swap1\n      dup4\n      iszero\n      iszero\n      mul\n      or\n      swap1\n      sstore\n      pop\n        /* \"Prueva VS Code/proyecto-final-daniel-salinas/contract/banco-prestamo.sol\":4425:4433  prestamo */\n      dup1\n        /* \"Prueva VS Code/proyecto-final-daniel-salinas/contract/banco-prestamo.sol\":4425:4439  prestamo.plazo */\n      0x03\n      add\n      sload\n        /* \"Prueva VS Code/proyecto-final-daniel-salinas/contract/banco-prestamo.sol\":4407:4422  block.timestamp */\n      timestamp\n        /* \"Prueva VS Code/proyecto-final-daniel-salinas/contract/banco-prestamo.sol\":4407:4439  block.timestamp + prestamo.plazo */\n      tag_122\n      swap2\n      swap1\n      tag_71\n      jump\t// in\n    tag_122:\n        /* \"Prueva VS Code/proyecto-final-daniel-salinas/contract/banco-prestamo.sol\":4383:4391  prestamo */\n      dup2\n        /* \"Prueva VS Code/proyecto-final-daniel-salinas/contract/banco-prestamo.sol\":4383:4404  prestamo.tiempoLimite */\n      0x05\n      add\n        /* \"Prueva VS Code/proyecto-final-daniel-salinas/contract/banco-prestamo.sol\":4383:4439  prestamo.tiempoLimite = block.timestamp + prestamo.plazo */\n      dup2\n      swap1\n      sstore\n      pop\n        /* \"Prueva VS Code/proyecto-final-daniel-salinas/contract/banco-prestamo.sol\":4514:4526  prestatario_ */\n      dup4\n        /* \"Prueva VS Code/proyecto-final-daniel-salinas/contract/banco-prestamo.sol\":4497:4566  PrestamoAprobado(prestatario_, prestamo.monto, prestamo.tiempoLimite) */\n      0xffffffffffffffffffffffffffffffffffffffff\n      and\n      0x445af7b4d2a198a6605faa46d0d2d39abc590cc71f27c8e3f413078291fb77c0\n        /* \"Prueva VS Code/proyecto-final-daniel-salinas/contract/banco-prestamo.sol\":4528:4536  prestamo */\n      dup3\n        /* \"Prueva VS Code/proyecto-final-daniel-salinas/contract/banco-prestamo.sol\":4528:4542  prestamo.monto */\n      0x02\n      add\n      sload\n        /* \"Prueva VS Code/proyecto-final-daniel-salinas/contract/banco-prestamo.sol\":4544:4552  prestamo */\n      dup4\n        /* \"Prueva VS Code/proyecto-final-daniel-salinas/contract/banco-prestamo.sol\":4544:4565  prestamo.tiempoLimite */\n      0x05\n      add\n      sload\n        /* \"Prueva VS Code/proyecto-final-daniel-salinas/contract/banco-prestamo.sol\":4497:4566  PrestamoAprobado(prestatario_, prestamo.monto, prestamo.tiempoLimite) */\n      mload(0x40)\n      tag_123\n      swap3\n      swap2\n      swap1\n      tag_74\n      jump\t// in\n    tag_123:\n      mload(0x40)\n      dup1\n      swap2\n      sub\n      swap1\n      log2\n        /* \"Prueva VS Code/proyecto-final-daniel-salinas/contract/banco-prestamo.sol\":1308:1309  _ */\n      pop\n      pop\n        /* \"Prueva VS Code/proyecto-final-daniel-salinas/contract/banco-prestamo.sol\":3487:4574  function aprobarPrestamo(address prestatario_, uint256 id_) public soloEmpleadoPrestamista {\r... */\n      pop\n      pop\n      jump\t// out\n        /* \"Prueva VS Code/proyecto-final-daniel-salinas/contract/banco-prestamo.sol\":7407:7651  function obtenerDetalleDePrestamo(address prestatario_, uint256 id_) public view returns (Prestamo memory) {\r... */\n    tag_42:\n        /* \"Prueva VS Code/proyecto-final-daniel-salinas/contract/banco-prestamo.sol\":7497:7512  Prestamo memory */\n      tag_124\n      tag_125\n      jump\t// in\n    tag_124:\n        /* \"Prueva VS Code/proyecto-final-daniel-salinas/contract/banco-prestamo.sol\":7606:7614  clientes */\n      0x01\n        /* \"Prueva VS Code/proyecto-final-daniel-salinas/contract/banco-prestamo.sol\":7606:7628  clientes[prestatario_] */\n      0x00\n        /* \"Prueva VS Code/proyecto-final-daniel-salinas/contract/banco-prestamo.sol\":7615:7627  prestatario_ */\n      dup5\n        /* \"Prueva VS Code/proyecto-final-daniel-salinas/contract/banco-prestamo.sol\":7606:7628  clientes[prestatario_] */\n      0xffffffffffffffffffffffffffffffffffffffff\n      and\n      0xffffffffffffffffffffffffffffffffffffffff\n      and\n      dup2\n      mstore\n      0x20\n      add\n      swap1\n      dup2\n      mstore\n      0x20\n      add\n      0x00\n      keccak256\n        /* \"Prueva VS Code/proyecto-final-daniel-salinas/contract/banco-prestamo.sol\":7606:7638  clientes[prestatario_].prestamos */\n      0x02\n      add\n        /* \"Prueva VS Code/proyecto-final-daniel-salinas/contract/banco-prestamo.sol\":7606:7643  clientes[prestatario_].prestamos[id_] */\n      0x00\n        /* \"Prueva VS Code/proyecto-final-daniel-salinas/contract/banco-prestamo.sol\":7639:7642  id_ */\n      dup4\n        /* \"Prueva VS Code/proyecto-final-daniel-salinas/contract/banco-prestamo.sol\":7606:7643  clientes[prestatario_].prestamos[id_] */\n      dup2\n      mstore\n      0x20\n      add\n      swap1\n      dup2\n      mstore\n      0x20\n      add\n      0x00\n      keccak256\n        /* \"Prueva VS Code/proyecto-final-daniel-salinas/contract/banco-prestamo.sol\":7599:7643  return clientes[prestatario_].prestamos[id_] */\n      mload(0x40)\n      dup1\n      0x0120\n      add\n      0x40\n      mstore\n      swap1\n      dup2\n      0x00\n      dup3\n      add\n      sload\n      dup2\n      mstore\n      0x20\n      add\n      0x01\n      dup3\n      add\n      0x00\n      swap1\n      sload\n      swap1\n      0x0100\n      exp\n      swap1\n      div\n      0xffffffffffffffffffffffffffffffffffffffff\n      and\n      0xffffffffffffffffffffffffffffffffffffffff\n      and\n      0xffffffffffffffffffffffffffffffffffffffff\n      and\n      dup2\n      mstore\n      0x20\n      add\n      0x02\n      dup3\n      add\n      sload\n      dup2\n      mstore\n      0x20\n      add\n      0x03\n      dup3\n      add\n      sload\n      dup2\n      mstore\n      0x20\n      add\n      0x04\n      dup3\n      add\n      sload\n      dup2\n      mstore\n      0x20\n      add\n      0x05\n      dup3\n      add\n      sload\n      dup2\n      mstore\n      0x20\n      add\n      0x06\n      dup3\n      add\n      0x00\n      swap1\n      sload\n      swap1\n      0x0100\n      exp\n      swap1\n      div\n      0xff\n      and\n      iszero\n      iszero\n      iszero\n      iszero\n      dup2\n      mstore\n      0x20\n      add\n      0x06\n      dup3\n      add\n      0x01\n      swap1\n      sload\n      swap1\n      0x0100\n      exp\n      swap1\n      div\n      0xff\n      and\n      iszero\n      iszero\n      iszero\n      iszero\n      dup2\n      mstore\n      0x20\n      add\n      0x06\n      dup3\n      add\n      0x02\n      swap1\n      sload\n      swap1\n      0x0100\n      exp\n      swap1\n      div\n      0xff\n      and\n      iszero\n      iszero\n      iszero\n      iszero\n      dup2\n      mstore\n      pop\n      pop\n      swap1\n      pop\n        /* \"Prueva VS Code/proyecto-final-daniel-salinas/contract/banco-prestamo.sol\":7407:7651  function obtenerDetalleDePrestamo(address prestatario_, uint256 id_) public view returns (Prestamo memory) {\r... */\n      swap3\n      swap2\n      pop\n      pop\n      jump\t// out\n        /* \"Prueva VS Code/proyecto-final-daniel-salinas/contract/banco-prestamo.sol\":1597:1830  function altaPrestamista(address nuevoPrestamista) public soloSocioPrincipal {\r... */\n    tag_48:\n        /* \"Prueva VS Code/proyecto-final-daniel-salinas/contract/banco-prestamo.sol\":1104:1118  socioPrincipal */\n      0x00\n      dup1\n      sload\n      swap1\n      0x0100\n      exp\n      swap1\n      div\n      0xffffffffffffffffffffffffffffffffffffffff\n      and\n        /* \"Prueva VS Code/proyecto-final-daniel-salinas/contract/banco-prestamo.sol\":1090:1118  msg.sender == socioPrincipal */\n      0xffffffffffffffffffffffffffffffffffffffff\n      and\n        /* \"Prueva VS Code/proyecto-final-daniel-salinas/contract/banco-prestamo.sol\":1090:1100  msg.sender */\n      caller\n        /* \"Prueva VS Code/proyecto-final-daniel-salinas/contract/banco-prestamo.sol\":1090:1118  msg.sender == socioPrincipal */\n      0xffffffffffffffffffffffffffffffffffffffff\n      and\n      eq\n        /* \"Prueva VS Code/proyecto-final-daniel-salinas/contract/banco-prestamo.sol\":1082:1166  require(msg.sender == socioPrincipal, \"No posee permisos para ejecutar esta accion\") */\n      tag_128\n      jumpi\n      mload(0x40)\n      0x08c379a000000000000000000000000000000000000000000000000000000000\n      dup2\n      mstore\n      0x04\n      add\n      tag_129\n      swap1\n      tag_130\n      jump\t// in\n    tag_129:\n      mload(0x40)\n      dup1\n      swap2\n      sub\n      swap1\n      revert\n    tag_128:\n        /* \"Prueva VS Code/proyecto-final-daniel-salinas/contract/banco-prestamo.sol\":1690:1710  empleadosPrestamista */\n      0x02\n        /* \"Prueva VS Code/proyecto-final-daniel-salinas/contract/banco-prestamo.sol\":1690:1728  empleadosPrestamista[nuevoPrestamista] */\n      0x00\n        /* \"Prueva VS Code/proyecto-final-daniel-salinas/contract/banco-prestamo.sol\":1711:1727  nuevoPrestamista */\n      dup3\n        /* \"Prueva VS Code/proyecto-final-daniel-salinas/contract/banco-prestamo.sol\":1690:1728  empleadosPrestamista[nuevoPrestamista] */\n      0xffffffffffffffffffffffffffffffffffffffff\n      and\n      0xffffffffffffffffffffffffffffffffffffffff\n      and\n      dup2\n      mstore\n      0x20\n      add\n      swap1\n      dup2\n      mstore\n      0x20\n      add\n      0x00\n      keccak256\n      0x00\n      swap1\n      sload\n      swap1\n      0x0100\n      exp\n      swap1\n      div\n      0xff\n      and\n        /* \"Prueva VS Code/proyecto-final-daniel-salinas/contract/banco-prestamo.sol\":1689:1728  !empleadosPrestamista[nuevoPrestamista] */\n      iszero\n        /* \"Prueva VS Code/proyecto-final-daniel-salinas/contract/banco-prestamo.sol\":1681:1768  require(!empleadosPrestamista[nuevoPrestamista], \"El prestamista ya esta dado de alta\") */\n      tag_132\n      jumpi\n      mload(0x40)\n      0x08c379a000000000000000000000000000000000000000000000000000000000\n      dup2\n      mstore\n      0x04\n      add\n      tag_133\n      swap1\n      tag_134\n      jump\t// in\n    tag_133:\n      mload(0x40)\n      dup1\n      swap2\n      sub\n      swap1\n      revert\n    tag_132:\n        /* \"Prueva VS Code/proyecto-final-daniel-salinas/contract/banco-prestamo.sol\":1818:1822  true */\n      0x01\n        /* \"Prueva VS Code/proyecto-final-daniel-salinas/contract/banco-prestamo.sol\":1777:1797  empleadosPrestamista */\n      0x02\n        /* \"Prueva VS Code/proyecto-final-daniel-salinas/contract/banco-prestamo.sol\":1777:1815  empleadosPrestamista[nuevoPrestamista] */\n      0x00\n        /* \"Prueva VS Code/proyecto-final-daniel-salinas/contract/banco-prestamo.sol\":1798:1814  nuevoPrestamista */\n      dup4\n        /* \"Prueva VS Code/proyecto-final-daniel-salinas/contract/banco-prestamo.sol\":1777:1815  empleadosPrestamista[nuevoPrestamista] */\n      0xffffffffffffffffffffffffffffffffffffffff\n      and\n      0xffffffffffffffffffffffffffffffffffffffff\n      and\n      dup2\n      mstore\n      0x20\n      add\n      swap1\n      dup2\n      mstore\n      0x20\n      add\n      0x00\n      keccak256\n      0x00\n        /* \"Prueva VS Code/proyecto-final-daniel-salinas/contract/banco-prestamo.sol\":1777:1822  empleadosPrestamista[nuevoPrestamista] = true */\n      0x0100\n      exp\n      dup2\n      sload\n      dup2\n      0xff\n      mul\n      not\n      and\n      swap1\n      dup4\n      iszero\n      iszero\n      mul\n      or\n      swap1\n      sstore\n      pop\n        /* \"Prueva VS Code/proyecto-final-daniel-salinas/contract/banco-prestamo.sol\":1597:1830  function altaPrestamista(address nuevoPrestamista) public soloSocioPrincipal {\r... */\n      pop\n      jump\t// out\n        /* \"Prueva VS Code/proyecto-final-daniel-salinas/contract/banco-prestamo.sol\":7183:7399  function obtenerPrestamosPorPrestatario(address prestatario_) public view returns (uint256[] memory) {\r... */\n    tag_52:\n        /* \"Prueva VS Code/proyecto-final-daniel-salinas/contract/banco-prestamo.sol\":7266:7282  uint256[] memory */\n      0x60\n        /* \"Prueva VS Code/proyecto-final-daniel-salinas/contract/banco-prestamo.sol\":7357:7365  clientes */\n      0x01\n        /* \"Prueva VS Code/proyecto-final-daniel-salinas/contract/banco-prestamo.sol\":7357:7379  clientes[prestatario_] */\n      0x00\n        /* \"Prueva VS Code/proyecto-final-daniel-salinas/contract/banco-prestamo.sol\":7366:7378  prestatario_ */\n      dup4\n        /* \"Prueva VS Code/proyecto-final-daniel-salinas/contract/banco-prestamo.sol\":7357:7379  clientes[prestatario_] */\n      0xffffffffffffffffffffffffffffffffffffffff\n      and\n      0xffffffffffffffffffffffffffffffffffffffff\n      and\n      dup2\n      mstore\n      0x20\n      add\n      swap1\n      dup2\n      mstore\n      0x20\n      add\n      0x00\n      keccak256\n        /* \"Prueva VS Code/proyecto-final-daniel-salinas/contract/banco-prestamo.sol\":7357:7391  clientes[prestatario_].prestamoIds */\n      0x03\n      add\n        /* \"Prueva VS Code/proyecto-final-daniel-salinas/contract/banco-prestamo.sol\":7350:7391  return clientes[prestatario_].prestamoIds */\n      dup1\n      sload\n      dup1\n      0x20\n      mul\n      0x20\n      add\n      mload(0x40)\n      swap1\n      dup2\n      add\n      0x40\n      mstore\n      dup1\n      swap3\n      swap2\n      swap1\n      dup2\n      dup2\n      mstore\n      0x20\n      add\n      dup3\n      dup1\n      sload\n      dup1\n      iszero\n      tag_136\n      jumpi\n      0x20\n      mul\n      dup3\n      add\n      swap2\n      swap1\n      0x00\n      mstore\n      keccak256(0x00, 0x20)\n      swap1\n    tag_137:\n      dup2\n      sload\n      dup2\n      mstore\n      0x20\n      add\n      swap1\n      0x01\n      add\n      swap1\n      dup1\n      dup4\n      gt\n      tag_137\n      jumpi\n    tag_136:\n      pop\n      pop\n      pop\n      pop\n      pop\n      swap1\n      pop\n        /* \"Prueva VS Code/proyecto-final-daniel-salinas/contract/banco-prestamo.sol\":7183:7399  function obtenerPrestamosPorPrestatario(address prestatario_) public view returns (uint256[] memory) {\r... */\n      swap2\n      swap1\n      pop\n      jump\t// out\n        /* \"Prueva VS Code/proyecto-final-daniel-salinas/contract/banco-prestamo.sol\":4582:5913  function reembolsarPrestamo(uint256 id_) public soloClienteRegistrado {\r... */\n    tag_59:\n        /* \"Prueva VS Code/proyecto-final-daniel-salinas/contract/banco-prestamo.sol\":1375:1383  clientes */\n      0x01\n        /* \"Prueva VS Code/proyecto-final-daniel-salinas/contract/banco-prestamo.sol\":1375:1395  clientes[msg.sender] */\n      0x00\n        /* \"Prueva VS Code/proyecto-final-daniel-salinas/contract/banco-prestamo.sol\":1384:1394  msg.sender */\n      caller\n        /* \"Prueva VS Code/proyecto-final-daniel-salinas/contract/banco-prestamo.sol\":1375:1395  clientes[msg.sender] */\n      0xffffffffffffffffffffffffffffffffffffffff\n      and\n      0xffffffffffffffffffffffffffffffffffffffff\n      and\n      dup2\n      mstore\n      0x20\n      add\n      swap1\n      dup2\n      mstore\n      0x20\n      add\n      0x00\n      keccak256\n        /* \"Prueva VS Code/proyecto-final-daniel-salinas/contract/banco-prestamo.sol\":1375:1404  clientes[msg.sender].activado */\n      0x00\n      add\n      0x00\n      swap1\n      sload\n      swap1\n      0x0100\n      exp\n      swap1\n      div\n      0xff\n      and\n        /* \"Prueva VS Code/proyecto-final-daniel-salinas/contract/banco-prestamo.sol\":1367:1432  require(clientes[msg.sender].activado, \"No es un cliente activo\") */\n      tag_139\n      jumpi\n      mload(0x40)\n      0x08c379a000000000000000000000000000000000000000000000000000000000\n      dup2\n      mstore\n      0x04\n      add\n      tag_140\n      swap1\n      tag_65\n      jump\t// in\n    tag_140:\n      mload(0x40)\n      dup1\n      swap2\n      sub\n      swap1\n      revert\n    tag_139:\n        /* \"Prueva VS Code/proyecto-final-daniel-salinas/contract/banco-prestamo.sol\":4724:4751  Cliente storage prestatario */\n      0x00\n        /* \"Prueva VS Code/proyecto-final-daniel-salinas/contract/banco-prestamo.sol\":4754:4762  clientes */\n      0x01\n        /* \"Prueva VS Code/proyecto-final-daniel-salinas/contract/banco-prestamo.sol\":4754:4774  clientes[msg.sender] */\n      0x00\n        /* \"Prueva VS Code/proyecto-final-daniel-salinas/contract/banco-prestamo.sol\":4763:4773  msg.sender */\n      caller\n        /* \"Prueva VS Code/proyecto-final-daniel-salinas/contract/banco-prestamo.sol\":4754:4774  clientes[msg.sender] */\n      0xffffffffffffffffffffffffffffffffffffffff\n      and\n      0xffffffffffffffffffffffffffffffffffffffff\n      and\n      dup2\n      mstore\n      0x20\n      add\n      swap1\n      dup2\n      mstore\n      0x20\n      add\n      0x00\n      keccak256\n        /* \"Prueva VS Code/proyecto-final-daniel-salinas/contract/banco-prestamo.sol\":4724:4774  Cliente storage prestatario = clientes[msg.sender] */\n      swap1\n      pop\n        /* \"Prueva VS Code/proyecto-final-daniel-salinas/contract/banco-prestamo.sol\":4868:4869  0 */\n      0x00\n        /* \"Prueva VS Code/proyecto-final-daniel-salinas/contract/banco-prestamo.sol\":4862:4865  id_ */\n      dup3\n        /* \"Prueva VS Code/proyecto-final-daniel-salinas/contract/banco-prestamo.sol\":4862:4869  id_ > 0 */\n      gt\n        /* \"Prueva VS Code/proyecto-final-daniel-salinas/contract/banco-prestamo.sol\":4862:4910  id_ > 0 && id_ <= prestatario.prestamoIds.length */\n      dup1\n      iszero\n      tag_142\n      jumpi\n      pop\n        /* \"Prueva VS Code/proyecto-final-daniel-salinas/contract/banco-prestamo.sol\":4880:4891  prestatario */\n      dup1\n        /* \"Prueva VS Code/proyecto-final-daniel-salinas/contract/banco-prestamo.sol\":4880:4903  prestatario.prestamoIds */\n      0x03\n      add\n        /* \"Prueva VS Code/proyecto-final-daniel-salinas/contract/banco-prestamo.sol\":4880:4910  prestatario.prestamoIds.length */\n      dup1\n      sload\n      swap1\n      pop\n        /* \"Prueva VS Code/proyecto-final-daniel-salinas/contract/banco-prestamo.sol\":4873:4876  id_ */\n      dup3\n        /* \"Prueva VS Code/proyecto-final-daniel-salinas/contract/banco-prestamo.sol\":4873:4910  id_ <= prestatario.prestamoIds.length */\n      gt\n      iszero\n        /* \"Prueva VS Code/proyecto-final-daniel-salinas/contract/banco-prestamo.sol\":4862:4910  id_ > 0 && id_ <= prestatario.prestamoIds.length */\n    tag_142:\n        /* \"Prueva VS Code/proyecto-final-daniel-salinas/contract/banco-prestamo.sol\":4854:4939  require(id_ > 0 && id_ <= prestatario.prestamoIds.length, \"Id de prestamo no valido\") */\n      tag_143\n      jumpi\n      mload(0x40)\n      0x08c379a000000000000000000000000000000000000000000000000000000000\n      dup2\n      mstore\n      0x04\n      add\n      tag_144\n      swap1\n      tag_90\n      jump\t// in\n    tag_144:\n      mload(0x40)\n      dup1\n      swap2\n      sub\n      swap1\n      revert\n    tag_143:\n        /* \"Prueva VS Code/proyecto-final-daniel-salinas/contract/banco-prestamo.sol\":5014:5039  Prestamo storage prestamo */\n      0x00\n        /* \"Prueva VS Code/proyecto-final-daniel-salinas/contract/banco-prestamo.sol\":5042:5053  prestatario */\n      dup2\n        /* \"Prueva VS Code/proyecto-final-daniel-salinas/contract/banco-prestamo.sol\":5042:5063  prestatario.prestamos */\n      0x02\n      add\n        /* \"Prueva VS Code/proyecto-final-daniel-salinas/contract/banco-prestamo.sol\":5042:5068  prestatario.prestamos[id_] */\n      0x00\n        /* \"Prueva VS Code/proyecto-final-daniel-salinas/contract/banco-prestamo.sol\":5064:5067  id_ */\n      dup5\n        /* \"Prueva VS Code/proyecto-final-daniel-salinas/contract/banco-prestamo.sol\":5042:5068  prestatario.prestamos[id_] */\n      dup2\n      mstore\n      0x20\n      add\n      swap1\n      dup2\n      mstore\n      0x20\n      add\n      0x00\n      keccak256\n        /* \"Prueva VS Code/proyecto-final-daniel-salinas/contract/banco-prestamo.sol\":5014:5068  Prestamo storage prestamo = prestatario.prestamos[id_] */\n      swap1\n      pop\n        /* \"Prueva VS Code/proyecto-final-daniel-salinas/contract/banco-prestamo.sol\":5186:5196  msg.sender */\n      caller\n        /* \"Prueva VS Code/proyecto-final-daniel-salinas/contract/banco-prestamo.sol\":5162:5196  prestamo.prestatario == msg.sender */\n      0xffffffffffffffffffffffffffffffffffffffff\n      and\n        /* \"Prueva VS Code/proyecto-final-daniel-salinas/contract/banco-prestamo.sol\":5162:5170  prestamo */\n      dup2\n        /* \"Prueva VS Code/proyecto-final-daniel-salinas/contract/banco-prestamo.sol\":5162:5182  prestamo.prestatario */\n      0x01\n      add\n      0x00\n      swap1\n      sload\n      swap1\n      0x0100\n      exp\n      swap1\n      div\n      0xffffffffffffffffffffffffffffffffffffffff\n      and\n        /* \"Prueva VS Code/proyecto-final-daniel-salinas/contract/banco-prestamo.sol\":5162:5196  prestamo.prestatario == msg.sender */\n      0xffffffffffffffffffffffffffffffffffffffff\n      and\n      eq\n        /* \"Prueva VS Code/proyecto-final-daniel-salinas/contract/banco-prestamo.sol\":5154:5249  require(prestamo.prestatario == msg.sender, \"No tienes permisos para reembolsar este prestamo\") */\n      tag_145\n      jumpi\n      mload(0x40)\n      0x08c379a000000000000000000000000000000000000000000000000000000000\n      dup2\n      mstore\n      0x04\n      add\n      tag_146\n      swap1\n      tag_147\n      jump\t// in\n    tag_146:\n      mload(0x40)\n      dup1\n      swap2\n      sub\n      swap1\n      revert\n    tag_145:\n        /* \"Prueva VS Code/proyecto-final-daniel-salinas/contract/banco-prestamo.sol\":5264:5272  prestamo */\n      dup1\n        /* \"Prueva VS Code/proyecto-final-daniel-salinas/contract/banco-prestamo.sol\":5264:5281  prestamo.aprobado */\n      0x06\n      add\n      0x00\n      swap1\n      sload\n      swap1\n      0x0100\n      exp\n      swap1\n      div\n      0xff\n      and\n        /* \"Prueva VS Code/proyecto-final-daniel-salinas/contract/banco-prestamo.sol\":5256:5314  require(prestamo.aprobado, \"El prestamo no esta aprobado\") */\n      tag_148\n      jumpi\n      mload(0x40)\n      0x08c379a000000000000000000000000000000000000000000000000000000000\n      dup2\n      mstore\n      0x04\n      add\n      tag_149\n      swap1\n      tag_93\n      jump\t// in\n    tag_149:\n      mload(0x40)\n      dup1\n      swap2\n      sub\n      swap1\n      revert\n    tag_148:\n        /* \"Prueva VS Code/proyecto-final-daniel-salinas/contract/banco-prestamo.sol\":5330:5338  prestamo */\n      dup1\n        /* \"Prueva VS Code/proyecto-final-daniel-salinas/contract/banco-prestamo.sol\":5330:5350  prestamo.reembolsado */\n      0x06\n      add\n      0x01\n      swap1\n      sload\n      swap1\n      0x0100\n      exp\n      swap1\n      div\n      0xff\n      and\n        /* \"Prueva VS Code/proyecto-final-daniel-salinas/contract/banco-prestamo.sol\":5329:5350  !prestamo.reembolsado */\n      iszero\n        /* \"Prueva VS Code/proyecto-final-daniel-salinas/contract/banco-prestamo.sol\":5321:5386  require(!prestamo.reembolsado, \"El prestamo ya esta reembolsado\") */\n      tag_150\n      jumpi\n      mload(0x40)\n      0x08c379a000000000000000000000000000000000000000000000000000000000\n      dup2\n      mstore\n      0x04\n      add\n      tag_151\n      swap1\n      tag_152\n      jump\t// in\n    tag_151:\n      mload(0x40)\n      dup1\n      swap2\n      sub\n      swap1\n      revert\n    tag_150:\n        /* \"Prueva VS Code/proyecto-final-daniel-salinas/contract/banco-prestamo.sol\":5402:5410  prestamo */\n      dup1\n        /* \"Prueva VS Code/proyecto-final-daniel-salinas/contract/banco-prestamo.sol\":5402:5420  prestamo.liquidado */\n      0x06\n      add\n      0x02\n      swap1\n      sload\n      swap1\n      0x0100\n      exp\n      swap1\n      div\n      0xff\n      and\n        /* \"Prueva VS Code/proyecto-final-daniel-salinas/contract/banco-prestamo.sol\":5401:5420  !prestamo.liquidado */\n      iszero\n        /* \"Prueva VS Code/proyecto-final-daniel-salinas/contract/banco-prestamo.sol\":5393:5451  require(!prestamo.liquidado, \"El prestamo esta liquidado\") */\n      tag_153\n      jumpi\n      mload(0x40)\n      0x08c379a000000000000000000000000000000000000000000000000000000000\n      dup2\n      mstore\n      0x04\n      add\n      tag_154\n      swap1\n      tag_155\n      jump\t// in\n    tag_154:\n      mload(0x40)\n      dup1\n      swap2\n      sub\n      swap1\n      revert\n    tag_153:\n        /* \"Prueva VS Code/proyecto-final-daniel-salinas/contract/banco-prestamo.sol\":5491:5506  block.timestamp */\n      timestamp\n        /* \"Prueva VS Code/proyecto-final-daniel-salinas/contract/banco-prestamo.sol\":5466:5474  prestamo */\n      dup2\n        /* \"Prueva VS Code/proyecto-final-daniel-salinas/contract/banco-prestamo.sol\":5466:5487  prestamo.tiempoLimite */\n      0x05\n      add\n      sload\n        /* \"Prueva VS Code/proyecto-final-daniel-salinas/contract/banco-prestamo.sol\":5466:5506  prestamo.tiempoLimite >= block.timestamp */\n      lt\n      iszero\n        /* \"Prueva VS Code/proyecto-final-daniel-salinas/contract/banco-prestamo.sol\":5458:5538  require(prestamo.tiempoLimite >= block.timestamp, \"El tiempo limite ha vencido\") */\n      tag_156\n      jumpi\n      mload(0x40)\n      0x08c379a000000000000000000000000000000000000000000000000000000000\n      dup2\n      mstore\n      0x04\n      add\n      tag_157\n      swap1\n      tag_158\n      jump\t// in\n    tag_157:\n      mload(0x40)\n      dup1\n      swap2\n      sub\n      swap1\n      revert\n    tag_156:\n        /* \"Prueva VS Code/proyecto-final-daniel-salinas/contract/banco-prestamo.sol\":5607:5621  socioPrincipal */\n      0x00\n      dup1\n      sload\n      swap1\n      0x0100\n      exp\n      swap1\n      div\n      0xffffffffffffffffffffffffffffffffffffffff\n      and\n        /* \"Prueva VS Code/proyecto-final-daniel-salinas/contract/banco-prestamo.sol\":5607:5630  socioPrincipal.transfer */\n      0xffffffffffffffffffffffffffffffffffffffff\n      and\n        /* \"Prueva VS Code/proyecto-final-daniel-salinas/contract/banco-prestamo.sol\":5607:5646  socioPrincipal.transfer(prestamo.monto) */\n      0x08fc\n        /* \"Prueva VS Code/proyecto-final-daniel-salinas/contract/banco-prestamo.sol\":5631:5639  prestamo */\n      dup3\n        /* \"Prueva VS Code/proyecto-final-daniel-salinas/contract/banco-prestamo.sol\":5631:5645  prestamo.monto */\n      0x02\n      add\n      sload\n        /* \"Prueva VS Code/proyecto-final-daniel-salinas/contract/banco-prestamo.sol\":5607:5646  socioPrincipal.transfer(prestamo.monto) */\n      swap1\n      dup2\n      iszero\n      mul\n      swap1\n      mload(0x40)\n      0x00\n      mload(0x40)\n      dup1\n      dup4\n      sub\n      dup2\n      dup6\n      dup9\n      dup9\n      call\n      swap4\n      pop\n      pop\n      pop\n      pop\n      iszero\n      dup1\n      iszero\n      tag_160\n      jumpi\n      returndatasize\n      0x00\n      dup1\n      returndatacopy\n      revert(0x00, returndatasize)\n    tag_160:\n      pop\n        /* \"Prueva VS Code/proyecto-final-daniel-salinas/contract/banco-prestamo.sol\":5743:5747  true */\n      0x01\n        /* \"Prueva VS Code/proyecto-final-daniel-salinas/contract/banco-prestamo.sol\":5720:5728  prestamo */\n      dup2\n        /* \"Prueva VS Code/proyecto-final-daniel-salinas/contract/banco-prestamo.sol\":5720:5740  prestamo.reembolsado */\n      0x06\n      add\n      0x01\n        /* \"Prueva VS Code/proyecto-final-daniel-salinas/contract/banco-prestamo.sol\":5720:5747  prestamo.reembolsado = true */\n      0x0100\n      exp\n      dup2\n      sload\n      dup2\n      0xff\n      mul\n      not\n      and\n      swap1\n      dup4\n      iszero\n      iszero\n      mul\n      or\n      swap1\n      sstore\n      pop\n        /* \"Prueva VS Code/proyecto-final-daniel-salinas/contract/banco-prestamo.sol\":5783:5791  prestamo */\n      dup1\n        /* \"Prueva VS Code/proyecto-final-daniel-salinas/contract/banco-prestamo.sol\":5783:5797  prestamo.monto */\n      0x02\n      add\n      sload\n        /* \"Prueva VS Code/proyecto-final-daniel-salinas/contract/banco-prestamo.sol\":5754:5765  prestatario */\n      dup3\n        /* \"Prueva VS Code/proyecto-final-daniel-salinas/contract/banco-prestamo.sol\":5754:5779  prestatario.saldoGarantia */\n      0x01\n      add\n      0x00\n        /* \"Prueva VS Code/proyecto-final-daniel-salinas/contract/banco-prestamo.sol\":5754:5797  prestatario.saldoGarantia -= prestamo.monto */\n      dup3\n      dup3\n      sload\n      tag_161\n      swap2\n      swap1\n      tag_106\n      jump\t// in\n    tag_161:\n      swap3\n      pop\n      pop\n      dup2\n      swap1\n      sstore\n      pop\n        /* \"Prueva VS Code/proyecto-final-daniel-salinas/contract/banco-prestamo.sol\":5878:5888  msg.sender */\n      caller\n        /* \"Prueva VS Code/proyecto-final-daniel-salinas/contract/banco-prestamo.sol\":5858:5905  PrestamoReembolsado(msg.sender, prestamo.monto) */\n      0xffffffffffffffffffffffffffffffffffffffff\n      and\n      0xcafe7262442382b92dbcf9d83f09d266be4eb5af9cf783bc0a28eab4015defd8\n        /* \"Prueva VS Code/proyecto-final-daniel-salinas/contract/banco-prestamo.sol\":5890:5898  prestamo */\n      dup3\n        /* \"Prueva VS Code/proyecto-final-daniel-salinas/contract/banco-prestamo.sol\":5890:5904  prestamo.monto */\n      0x02\n      add\n      sload\n        /* \"Prueva VS Code/proyecto-final-daniel-salinas/contract/banco-prestamo.sol\":5858:5905  PrestamoReembolsado(msg.sender, prestamo.monto) */\n      mload(0x40)\n      tag_162\n      swap2\n      swap1\n      tag_19\n      jump\t// in\n    tag_162:\n      mload(0x40)\n      dup1\n      swap2\n      sub\n      swap1\n      log2\n        /* \"Prueva VS Code/proyecto-final-daniel-salinas/contract/banco-prestamo.sol\":1443:1444  _ */\n      pop\n      pop\n        /* \"Prueva VS Code/proyecto-final-daniel-salinas/contract/banco-prestamo.sol\":4582:5913  function reembolsarPrestamo(uint256 id_) public soloClienteRegistrado {\r... */\n      pop\n      jump\t// out\n        /* \"Prueva VS Code/proyecto-final-daniel-salinas/contract/banco-prestamo.sol\":2163:2291  function depositarGarantia() public payable soloClienteRegistrado {\r... */\n    tag_61:\n        /* \"Prueva VS Code/proyecto-final-daniel-salinas/contract/banco-prestamo.sol\":1375:1383  clientes */\n      0x01\n        /* \"Prueva VS Code/proyecto-final-daniel-salinas/contract/banco-prestamo.sol\":1375:1395  clientes[msg.sender] */\n      0x00\n        /* \"Prueva VS Code/proyecto-final-daniel-salinas/contract/banco-prestamo.sol\":1384:1394  msg.sender */\n      caller\n        /* \"Prueva VS Code/proyecto-final-daniel-salinas/contract/banco-prestamo.sol\":1375:1395  clientes[msg.sender] */\n      0xffffffffffffffffffffffffffffffffffffffff\n      and\n      0xffffffffffffffffffffffffffffffffffffffff\n      and\n      dup2\n      mstore\n      0x20\n      add\n      swap1\n      dup2\n      mstore\n      0x20\n      add\n      0x00\n      keccak256\n        /* \"Prueva VS Code/proyecto-final-daniel-salinas/contract/banco-prestamo.sol\":1375:1404  clientes[msg.sender].activado */\n      0x00\n      add\n      0x00\n      swap1\n      sload\n      swap1\n      0x0100\n      exp\n      swap1\n      div\n      0xff\n      and\n        /* \"Prueva VS Code/proyecto-final-daniel-salinas/contract/banco-prestamo.sol\":1367:1432  require(clientes[msg.sender].activado, \"No es un cliente activo\") */\n      tag_164\n      jumpi\n      mload(0x40)\n      0x08c379a000000000000000000000000000000000000000000000000000000000\n      dup2\n      mstore\n      0x04\n      add\n      tag_165\n      swap1\n      tag_65\n      jump\t// in\n    tag_165:\n      mload(0x40)\n      dup1\n      swap2\n      sub\n      swap1\n      revert\n    tag_164:\n        /* \"Prueva VS Code/proyecto-final-daniel-salinas/contract/banco-prestamo.sol\":2274:2283  msg.value */\n      callvalue\n        /* \"Prueva VS Code/proyecto-final-daniel-salinas/contract/banco-prestamo.sol\":2236:2244  clientes */\n      0x01\n        /* \"Prueva VS Code/proyecto-final-daniel-salinas/contract/banco-prestamo.sol\":2236:2256  clientes[msg.sender] */\n      0x00\n        /* \"Prueva VS Code/proyecto-final-daniel-salinas/contract/banco-prestamo.sol\":2245:2255  msg.sender */\n      caller\n        /* \"Prueva VS Code/proyecto-final-daniel-salinas/contract/banco-prestamo.sol\":2236:2256  clientes[msg.sender] */\n      0xffffffffffffffffffffffffffffffffffffffff\n      and\n      0xffffffffffffffffffffffffffffffffffffffff\n      and\n      dup2\n      mstore\n      0x20\n      add\n      swap1\n      dup2\n      mstore\n      0x20\n      add\n      0x00\n      keccak256\n        /* \"Prueva VS Code/proyecto-final-daniel-salinas/contract/banco-prestamo.sol\":2236:2270  clientes[msg.sender].saldoGarantia */\n      0x01\n      add\n      0x00\n        /* \"Prueva VS Code/proyecto-final-daniel-salinas/contract/banco-prestamo.sol\":2236:2283  clientes[msg.sender].saldoGarantia += msg.value */\n      dup3\n      dup3\n      sload\n      tag_167\n      swap2\n      swap1\n      tag_71\n      jump\t// in\n    tag_167:\n      swap3\n      pop\n      pop\n      dup2\n      swap1\n      sstore\n      pop\n        /* \"Prueva VS Code/proyecto-final-daniel-salinas/contract/banco-prestamo.sol\":2163:2291  function depositarGarantia() public payable soloClienteRegistrado {\r... */\n      jump\t// out\n    tag_125:\n      mload(0x40)\n      dup1\n      0x0120\n      add\n      0x40\n      mstore\n      dup1\n      0x00\n      dup2\n      mstore\n      0x20\n      add\n      and(0xffffffffffffffffffffffffffffffffffffffff, 0x00)\n      dup2\n      mstore\n      0x20\n      add\n      0x00\n      dup2\n      mstore\n      0x20\n      add\n      0x00\n      dup2\n      mstore\n      0x20\n      add\n      0x00\n      dup2\n      mstore\n      0x20\n      add\n      0x00\n      dup2\n      mstore\n      0x20\n      add\n      iszero(iszero(0x00))\n      dup2\n      mstore\n      0x20\n      add\n      iszero(iszero(0x00))\n      dup2\n      mstore\n      0x20\n      add\n      iszero(iszero(0x00))\n      dup2\n      mstore\n      pop\n      swap1\n      jump\t// out\n        /* \"#utility.yul\":7:146   */\n    tag_169:\n      0x00\n        /* \"#utility.yul\":91:97   */\n      dup2\n        /* \"#utility.yul\":78:98   */\n      calldataload\n        /* \"#utility.yul\":69:98   */\n      swap1\n      pop\n        /* \"#utility.yul\":107:140   */\n      tag_171\n        /* \"#utility.yul\":134:139   */\n      dup2\n        /* \"#utility.yul\":107:140   */\n      tag_172\n      jump\t// in\n    tag_171:\n        /* \"#utility.yul\":59:146   */\n      swap3\n      swap2\n      pop\n      pop\n      jump\t// out\n        /* \"#utility.yul\":152:291   */\n    tag_173:\n      0x00\n        /* \"#utility.yul\":236:242   */\n      dup2\n        /* \"#utility.yul\":223:243   */\n      calldataload\n        /* \"#utility.yul\":214:243   */\n      swap1\n      pop\n        /* \"#utility.yul\":252:285   */\n      tag_175\n        /* \"#utility.yul\":279:284   */\n      dup2\n        /* \"#utility.yul\":252:285   */\n      tag_176\n      jump\t// in\n    tag_175:\n        /* \"#utility.yul\":204:291   */\n      swap3\n      swap2\n      pop\n      pop\n      jump\t// out\n        /* \"#utility.yul\":297:559   */\n    tag_28:\n      0x00\n        /* \"#utility.yul\":405:407   */\n      0x20\n        /* \"#utility.yul\":393:402   */\n      dup3\n        /* \"#utility.yul\":384:391   */\n      dup5\n        /* \"#utility.yul\":380:403   */\n      sub\n        /* \"#utility.yul\":376:408   */\n      slt\n        /* \"#utility.yul\":373:375   */\n      iszero\n      tag_178\n      jumpi\n        /* \"#utility.yul\":421:422   */\n      0x00\n        /* \"#utility.yul\":418:419   */\n      dup1\n        /* \"#utility.yul\":411:423   */\n      revert\n        /* \"#utility.yul\":373:375   */\n    tag_178:\n        /* \"#utility.yul\":464:465   */\n      0x00\n        /* \"#utility.yul\":489:542   */\n      tag_179\n        /* \"#utility.yul\":534:541   */\n      dup5\n        /* \"#utility.yul\":525:531   */\n      dup3\n        /* \"#utility.yul\":514:523   */\n      dup6\n        /* \"#utility.yul\":510:532   */\n      add\n        /* \"#utility.yul\":489:542   */\n      tag_169\n      jump\t// in\n    tag_179:\n        /* \"#utility.yul\":479:542   */\n      swap2\n      pop\n        /* \"#utility.yul\":435:552   */\n      pop\n        /* \"#utility.yul\":363:559   */\n      swap3\n      swap2\n      pop\n      pop\n      jump\t// out\n        /* \"#utility.yul\":565:972   */\n    tag_33:\n      0x00\n      dup1\n        /* \"#utility.yul\":690:692   */\n      0x40\n        /* \"#utility.yul\":678:687   */\n      dup4\n        /* \"#utility.yul\":669:676   */\n      dup6\n        /* \"#utility.yul\":665:688   */\n      sub\n        /* \"#utility.yul\":661:693   */\n      slt\n        /* \"#utility.yul\":658:660   */\n      iszero\n      tag_181\n      jumpi\n        /* \"#utility.yul\":706:707   */\n      0x00\n        /* \"#utility.yul\":703:704   */\n      dup1\n        /* \"#utility.yul\":696:708   */\n      revert\n        /* \"#utility.yul\":658:660   */\n    tag_181:\n        /* \"#utility.yul\":749:750   */\n      0x00\n        /* \"#utility.yul\":774:827   */\n      tag_182\n        /* \"#utility.yul\":819:826   */\n      dup6\n        /* \"#utility.yul\":810:816   */\n      dup3\n        /* \"#utility.yul\":799:808   */\n      dup7\n        /* \"#utility.yul\":795:817   */\n      add\n        /* \"#utility.yul\":774:827   */\n      tag_169\n      jump\t// in\n    tag_182:\n        /* \"#utility.yul\":764:827   */\n      swap3\n      pop\n        /* \"#utility.yul\":720:837   */\n      pop\n        /* \"#utility.yul\":876:878   */\n      0x20\n        /* \"#utility.yul\":902:955   */\n      tag_183\n        /* \"#utility.yul\":947:954   */\n      dup6\n        /* \"#utility.yul\":938:944   */\n      dup3\n        /* \"#utility.yul\":927:936   */\n      dup7\n        /* \"#utility.yul\":923:945   */\n      add\n        /* \"#utility.yul\":902:955   */\n      tag_173\n      jump\t// in\n    tag_183:\n        /* \"#utility.yul\":892:955   */\n      swap2\n      pop\n        /* \"#utility.yul\":847:965   */\n      pop\n        /* \"#utility.yul\":648:972   */\n      swap3\n      pop\n      swap3\n      swap1\n      pop\n      jump\t// out\n        /* \"#utility.yul\":978:1240   */\n    tag_58:\n      0x00\n        /* \"#utility.yul\":1086:1088   */\n      0x20\n        /* \"#utility.yul\":1074:1083   */\n      dup3\n        /* \"#utility.yul\":1065:1072   */\n      dup5\n        /* \"#utility.yul\":1061:1084   */\n      sub\n        /* \"#utility.yul\":1057:1089   */\n      slt\n        /* \"#utility.yul\":1054:1056   */\n      iszero\n      tag_185\n      jumpi\n        /* \"#utility.yul\":1102:1103   */\n      0x00\n        /* \"#utility.yul\":1099:1100   */\n      dup1\n        /* \"#utility.yul\":1092:1104   */\n      revert\n        /* \"#utility.yul\":1054:1056   */\n    tag_185:\n        /* \"#utility.yul\":1145:1146   */\n      0x00\n        /* \"#utility.yul\":1170:1223   */\n      tag_186\n        /* \"#utility.yul\":1215:1222   */\n      dup5\n        /* \"#utility.yul\":1206:1212   */\n      dup3\n        /* \"#utility.yul\":1195:1204   */\n      dup6\n        /* \"#utility.yul\":1191:1213   */\n      add\n        /* \"#utility.yul\":1170:1223   */\n      tag_173\n      jump\t// in\n    tag_186:\n        /* \"#utility.yul\":1160:1223   */\n      swap2\n      pop\n        /* \"#utility.yul\":1116:1233   */\n      pop\n        /* \"#utility.yul\":1044:1240   */\n      swap3\n      swap2\n      pop\n      pop\n      jump\t// out\n        /* \"#utility.yul\":1246:1653   */\n    tag_16:\n      0x00\n      dup1\n        /* \"#utility.yul\":1371:1373   */\n      0x40\n        /* \"#utility.yul\":1359:1368   */\n      dup4\n        /* \"#utility.yul\":1350:1357   */\n      dup6\n        /* \"#utility.yul\":1346:1369   */\n      sub\n        /* \"#utility.yul\":1342:1374   */\n      slt\n        /* \"#utility.yul\":1339:1341   */\n      iszero\n      tag_188\n      jumpi\n        /* \"#utility.yul\":1387:1388   */\n      0x00\n        /* \"#utility.yul\":1384:1385   */\n      dup1\n        /* \"#utility.yul\":1377:1389   */\n      revert\n        /* \"#utility.yul\":1339:1341   */\n    tag_188:\n        /* \"#utility.yul\":1430:1431   */\n      0x00\n        /* \"#utility.yul\":1455:1508   */\n      tag_189\n        /* \"#utility.yul\":1500:1507   */\n      dup6\n        /* \"#utility.yul\":1491:1497   */\n      dup3\n        /* \"#utility.yul\":1480:1489   */\n      dup7\n        /* \"#utility.yul\":1476:1498   */\n      add\n        /* \"#utility.yul\":1455:1508   */\n      tag_173\n      jump\t// in\n    tag_189:\n        /* \"#utility.yul\":1445:1508   */\n      swap3\n      pop\n        /* \"#utility.yul\":1401:1518   */\n      pop\n        /* \"#utility.yul\":1557:1559   */\n      0x20\n        /* \"#utility.yul\":1583:1636   */\n      tag_190\n        /* \"#utility.yul\":1628:1635   */\n      dup6\n        /* \"#utility.yul\":1619:1625   */\n      dup3\n        /* \"#utility.yul\":1608:1617   */\n      dup7\n        /* \"#utility.yul\":1604:1626   */\n      add\n        /* \"#utility.yul\":1583:1636   */\n      tag_173\n      jump\t// in\n    tag_190:\n        /* \"#utility.yul\":1573:1636   */\n      swap2\n      pop\n        /* \"#utility.yul\":1528:1646   */\n      pop\n        /* \"#utility.yul\":1329:1653   */\n      swap3\n      pop\n      swap3\n      swap1\n      pop\n      jump\t// out\n        /* \"#utility.yul\":1659:1838   */\n    tag_191:\n      0x00\n        /* \"#utility.yul\":1749:1795   */\n      tag_193\n        /* \"#utility.yul\":1791:1794   */\n      dup4\n        /* \"#utility.yul\":1783:1789   */\n      dup4\n        /* \"#utility.yul\":1749:1795   */\n      tag_194\n      jump\t// in\n    tag_193:\n        /* \"#utility.yul\":1827:1831   */\n      0x20\n        /* \"#utility.yul\":1822:1825   */\n      dup4\n        /* \"#utility.yul\":1818:1832   */\n      add\n        /* \"#utility.yul\":1804:1832   */\n      swap1\n      pop\n        /* \"#utility.yul\":1739:1838   */\n      swap3\n      swap2\n      pop\n      pop\n      jump\t// out\n        /* \"#utility.yul\":1844:1986   */\n    tag_195:\n        /* \"#utility.yul\":1947:1979   */\n      tag_197\n        /* \"#utility.yul\":1973:1978   */\n      dup2\n        /* \"#utility.yul\":1947:1979   */\n      tag_198\n      jump\t// in\n    tag_197:\n        /* \"#utility.yul\":1942:1945   */\n      dup3\n        /* \"#utility.yul\":1935:1980   */\n      mstore\n        /* \"#utility.yul\":1925:1986   */\n      pop\n      pop\n      jump\t// out\n        /* \"#utility.yul\":1992:2100   */\n    tag_199:\n        /* \"#utility.yul\":2069:2093   */\n      tag_201\n        /* \"#utility.yul\":2087:2092   */\n      dup2\n        /* \"#utility.yul\":2069:2093   */\n      tag_202\n      jump\t// in\n    tag_201:\n        /* \"#utility.yul\":2064:2067   */\n      dup3\n        /* \"#utility.yul\":2057:2094   */\n      mstore\n        /* \"#utility.yul\":2047:2100   */\n      pop\n      pop\n      jump\t// out\n        /* \"#utility.yul\":2136:2868   */\n    tag_203:\n      0x00\n        /* \"#utility.yul\":2284:2338   */\n      tag_205\n        /* \"#utility.yul\":2332:2337   */\n      dup3\n        /* \"#utility.yul\":2284:2338   */\n      tag_206\n      jump\t// in\n    tag_205:\n        /* \"#utility.yul\":2354:2440   */\n      tag_207\n        /* \"#utility.yul\":2433:2439   */\n      dup2\n        /* \"#utility.yul\":2428:2431   */\n      dup6\n        /* \"#utility.yul\":2354:2440   */\n      tag_208\n      jump\t// in\n    tag_207:\n        /* \"#utility.yul\":2347:2440   */\n      swap4\n      pop\n        /* \"#utility.yul\":2464:2520   */\n      tag_209\n        /* \"#utility.yul\":2514:2519   */\n      dup4\n        /* \"#utility.yul\":2464:2520   */\n      tag_210\n      jump\t// in\n    tag_209:\n        /* \"#utility.yul\":2543:2550   */\n      dup1\n        /* \"#utility.yul\":2574:2575   */\n      0x00\n        /* \"#utility.yul\":2559:2843   */\n    tag_211:\n        /* \"#utility.yul\":2584:2590   */\n      dup4\n        /* \"#utility.yul\":2581:2582   */\n      dup2\n        /* \"#utility.yul\":2578:2591   */\n      lt\n        /* \"#utility.yul\":2559:2843   */\n      iszero\n      tag_213\n      jumpi\n        /* \"#utility.yul\":2660:2666   */\n      dup2\n        /* \"#utility.yul\":2654:2667   */\n      mload\n        /* \"#utility.yul\":2687:2750   */\n      tag_214\n        /* \"#utility.yul\":2746:2749   */\n      dup9\n        /* \"#utility.yul\":2731:2744   */\n      dup3\n        /* \"#utility.yul\":2687:2750   */\n      tag_191\n      jump\t// in\n    tag_214:\n        /* \"#utility.yul\":2680:2750   */\n      swap8\n      pop\n        /* \"#utility.yul\":2773:2833   */\n      tag_215\n        /* \"#utility.yul\":2826:2832   */\n      dup4\n        /* \"#utility.yul\":2773:2833   */\n      tag_216\n      jump\t// in\n    tag_215:\n        /* \"#utility.yul\":2763:2833   */\n      swap3\n      pop\n        /* \"#utility.yul\":2619:2843   */\n      pop\n        /* \"#utility.yul\":2606:2607   */\n      0x01\n        /* \"#utility.yul\":2603:2604   */\n      dup2\n        /* \"#utility.yul\":2599:2608   */\n      add\n        /* \"#utility.yul\":2594:2608   */\n      swap1\n      pop\n        /* \"#utility.yul\":2559:2843   */\n      jump(tag_211)\n    tag_213:\n        /* \"#utility.yul\":2563:2577   */\n      pop\n        /* \"#utility.yul\":2859:2862   */\n      dup6\n        /* \"#utility.yul\":2852:2862   */\n      swap4\n      pop\n        /* \"#utility.yul\":2260:2868   */\n      pop\n      pop\n      pop\n      swap3\n      swap2\n      pop\n      pop\n      jump\t// out\n        /* \"#utility.yul\":2874:2973   */\n    tag_217:\n        /* \"#utility.yul\":2945:2966   */\n      tag_219\n        /* \"#utility.yul\":2960:2965   */\n      dup2\n        /* \"#utility.yul\":2945:2966   */\n      tag_220\n      jump\t// in\n    tag_219:\n        /* \"#utility.yul\":2940:2943   */\n      dup3\n        /* \"#utility.yul\":2933:2967   */\n      mstore\n        /* \"#utility.yul\":2923:2973   */\n      pop\n      pop\n      jump\t// out\n        /* \"#utility.yul\":2979:3307   */\n    tag_221:\n      0x00\n        /* \"#utility.yul\":3142:3209   */\n      tag_223\n        /* \"#utility.yul\":3206:3208   */\n      0x1e\n        /* \"#utility.yul\":3201:3204   */\n      dup4\n        /* \"#utility.yul\":3142:3209   */\n      tag_224\n      jump\t// in\n    tag_223:\n        /* \"#utility.yul\":3135:3209   */\n      swap2\n      pop\n        /* \"#utility.yul\":3239:3271   */\n      0x456c207072657374616d6f20796120667565207265656d626f6c7361646f0000\n        /* \"#utility.yul\":3235:3236   */\n      0x00\n        /* \"#utility.yul\":3230:3233   */\n      dup4\n        /* \"#utility.yul\":3226:3237   */\n      add\n        /* \"#utility.yul\":3219:3272   */\n      mstore\n        /* \"#utility.yul\":3298:3300   */\n      0x20\n        /* \"#utility.yul\":3293:3296   */\n      dup3\n        /* \"#utility.yul\":3289:3301   */\n      add\n        /* \"#utility.yul\":3282:3301   */\n      swap1\n      pop\n        /* \"#utility.yul\":3125:3307   */\n      swap2\n      swap1\n      pop\n      jump\t// out\n        /* \"#utility.yul\":3313:3642   */\n    tag_225:\n      0x00\n        /* \"#utility.yul\":3476:3543   */\n      tag_227\n        /* \"#utility.yul\":3540:3542   */\n      0x1f\n        /* \"#utility.yul\":3535:3538   */\n      dup4\n        /* \"#utility.yul\":3476:3543   */\n      tag_224\n      jump\t// in\n    tag_227:\n        /* \"#utility.yul\":3469:3543   */\n      swap2\n      pop\n        /* \"#utility.yul\":3573:3606   */\n      0x456c207072657374616d6f2079612065737461207265656d626f6c7361646f00\n        /* \"#utility.yul\":3569:3570   */\n      0x00\n        /* \"#utility.yul\":3564:3567   */\n      dup4\n        /* \"#utility.yul\":3560:3571   */\n      add\n        /* \"#utility.yul\":3553:3607   */\n      mstore\n        /* \"#utility.yul\":3633:3635   */\n      0x20\n        /* \"#utility.yul\":3628:3631   */\n      dup3\n        /* \"#utility.yul\":3624:3636   */\n      add\n        /* \"#utility.yul\":3617:3636   */\n      swap1\n      pop\n        /* \"#utility.yul\":3459:3642   */\n      swap2\n      swap1\n      pop\n      jump\t// out\n        /* \"#utility.yul\":3648:3976   */\n    tag_228:\n      0x00\n        /* \"#utility.yul\":3811:3878   */\n      tag_230\n        /* \"#utility.yul\":3875:3877   */\n      0x1e\n        /* \"#utility.yul\":3870:3873   */\n      dup4\n        /* \"#utility.yul\":3811:3878   */\n      tag_224\n      jump\t// in\n    tag_230:\n        /* \"#utility.yul\":3804:3878   */\n      swap2\n      pop\n        /* \"#utility.yul\":3908:3940   */\n      0x456c207469656d706f206c696d697465206e6f2068612076656e6369646f0000\n        /* \"#utility.yul\":3904:3905   */\n      0x00\n        /* \"#utility.yul\":3899:3902   */\n      dup4\n        /* \"#utility.yul\":3895:3906   */\n      add\n        /* \"#utility.yul\":3888:3941   */\n      mstore\n        /* \"#utility.yul\":3967:3969   */\n      0x20\n        /* \"#utility.yul\":3962:3965   */\n      dup3\n        /* \"#utility.yul\":3958:3970   */\n      add\n        /* \"#utility.yul\":3951:3970   */\n      swap1\n      pop\n        /* \"#utility.yul\":3794:3976   */\n      swap2\n      swap1\n      pop\n      jump\t// out\n        /* \"#utility.yul\":3982:4307   */\n    tag_231:\n      0x00\n        /* \"#utility.yul\":4145:4212   */\n      tag_233\n        /* \"#utility.yul\":4209:4211   */\n      0x1b\n        /* \"#utility.yul\":4204:4207   */\n      dup4\n        /* \"#utility.yul\":4145:4212   */\n      tag_224\n      jump\t// in\n    tag_233:\n        /* \"#utility.yul\":4138:4212   */\n      swap2\n      pop\n        /* \"#utility.yul\":4242:4271   */\n      0x456c207469656d706f206c696d6974652068612076656e6369646f0000000000\n        /* \"#utility.yul\":4238:4239   */\n      0x00\n        /* \"#utility.yul\":4233:4236   */\n      dup4\n        /* \"#utility.yul\":4229:4240   */\n      add\n        /* \"#utility.yul\":4222:4272   */\n      mstore\n        /* \"#utility.yul\":4298:4300   */\n      0x20\n        /* \"#utility.yul\":4293:4296   */\n      dup3\n        /* \"#utility.yul\":4289:4301   */\n      add\n        /* \"#utility.yul\":4282:4301   */\n      swap1\n      pop\n        /* \"#utility.yul\":4128:4307   */\n      swap2\n      swap1\n      pop\n      jump\t// out\n        /* \"#utility.yul\":4313:4634   */\n    tag_234:\n      0x00\n        /* \"#utility.yul\":4476:4543   */\n      tag_236\n        /* \"#utility.yul\":4540:4542   */\n      0x17\n        /* \"#utility.yul\":4535:4538   */\n      dup4\n        /* \"#utility.yul\":4476:4543   */\n      tag_224\n      jump\t// in\n    tag_236:\n        /* \"#utility.yul\":4469:4543   */\n      swap2\n      pop\n        /* \"#utility.yul\":4573:4598   */\n      0x4e6f20657320756e20636c69656e74652061637469766f000000000000000000\n        /* \"#utility.yul\":4569:4570   */\n      0x00\n        /* \"#utility.yul\":4564:4567   */\n      dup4\n        /* \"#utility.yul\":4560:4571   */\n      add\n        /* \"#utility.yul\":4553:4599   */\n      mstore\n        /* \"#utility.yul\":4625:4627   */\n      0x20\n        /* \"#utility.yul\":4620:4623   */\n      dup3\n        /* \"#utility.yul\":4616:4628   */\n      add\n        /* \"#utility.yul\":4609:4628   */\n      swap1\n      pop\n        /* \"#utility.yul\":4459:4634   */\n      swap2\n      swap1\n      pop\n      jump\t// out\n        /* \"#utility.yul\":4640:4952   */\n    tag_237:\n      0x00\n        /* \"#utility.yul\":4803:4870   */\n      tag_239\n        /* \"#utility.yul\":4867:4869   */\n      0x0e\n        /* \"#utility.yul\":4862:4865   */\n      dup4\n        /* \"#utility.yul\":4803:4870   */\n      tag_224\n      jump\t// in\n    tag_239:\n        /* \"#utility.yul\":4796:4870   */\n      swap2\n      pop\n        /* \"#utility.yul\":4900:4916   */\n      0x4e6f20657320656d706c6561646f000000000000000000000000000000000000\n        /* \"#utility.yul\":4896:4897   */\n      0x00\n        /* \"#utility.yul\":4891:4894   */\n      dup4\n        /* \"#utility.yul\":4887:4898   */\n      add\n        /* \"#utility.yul\":4880:4917   */\n      mstore\n        /* \"#utility.yul\":4943:4945   */\n      0x20\n        /* \"#utility.yul\":4938:4941   */\n      dup3\n        /* \"#utility.yul\":4934:4946   */\n      add\n        /* \"#utility.yul\":4927:4946   */\n      swap1\n      pop\n        /* \"#utility.yul\":4786:4952   */\n      swap2\n      swap1\n      pop\n      jump\t// out\n        /* \"#utility.yul\":4958:5283   */\n    tag_240:\n      0x00\n        /* \"#utility.yul\":5121:5188   */\n      tag_242\n        /* \"#utility.yul\":5185:5187   */\n      0x1b\n        /* \"#utility.yul\":5180:5183   */\n      dup4\n        /* \"#utility.yul\":5121:5188   */\n      tag_224\n      jump\t// in\n    tag_242:\n        /* \"#utility.yul\":5114:5188   */\n      swap2\n      pop\n        /* \"#utility.yul\":5218:5247   */\n      0x456c207072657374616d6f20796120667565206170726f6261646f0000000000\n        /* \"#utility.yul\":5214:5215   */\n      0x00\n        /* \"#utility.yul\":5209:5212   */\n      dup4\n        /* \"#utility.yul\":5205:5216   */\n      add\n        /* \"#utility.yul\":5198:5248   */\n      mstore\n        /* \"#utility.yul\":5274:5276   */\n      0x20\n        /* \"#utility.yul\":5269:5272   */\n      dup3\n        /* \"#utility.yul\":5265:5277   */\n      add\n        /* \"#utility.yul\":5258:5277   */\n      swap1\n      pop\n        /* \"#utility.yul\":5104:5283   */\n      swap2\n      swap1\n      pop\n      jump\t// out\n        /* \"#utility.yul\":5289:5656   */\n    tag_243:\n      0x00\n        /* \"#utility.yul\":5452:5519   */\n      tag_245\n        /* \"#utility.yul\":5516:5518   */\n      0x23\n        /* \"#utility.yul\":5511:5514   */\n      dup4\n        /* \"#utility.yul\":5452:5519   */\n      tag_224\n      jump\t// in\n    tag_245:\n        /* \"#utility.yul\":5445:5519   */\n      swap2\n      pop\n        /* \"#utility.yul\":5549:5583   */\n      0x456c207072657374616d697374612079612065737461206461646f2064652061\n        /* \"#utility.yul\":5545:5546   */\n      0x00\n        /* \"#utility.yul\":5540:5543   */\n      dup4\n        /* \"#utility.yul\":5536:5547   */\n      add\n        /* \"#utility.yul\":5529:5584   */\n      mstore\n        /* \"#utility.yul\":5615:5620   */\n      0x6c74610000000000000000000000000000000000000000000000000000000000\n        /* \"#utility.yul\":5610:5612   */\n      0x20\n        /* \"#utility.yul\":5605:5608   */\n      dup4\n        /* \"#utility.yul\":5601:5613   */\n      add\n        /* \"#utility.yul\":5594:5621   */\n      mstore\n        /* \"#utility.yul\":5647:5649   */\n      0x40\n        /* \"#utility.yul\":5642:5645   */\n      dup3\n        /* \"#utility.yul\":5638:5650   */\n      add\n        /* \"#utility.yul\":5631:5650   */\n      swap1\n      pop\n        /* \"#utility.yul\":5435:5656   */\n      swap2\n      swap1\n      pop\n      jump\t// out\n        /* \"#utility.yul\":5662:5988   */\n    tag_246:\n      0x00\n        /* \"#utility.yul\":5825:5892   */\n      tag_248\n        /* \"#utility.yul\":5889:5891   */\n      0x1c\n        /* \"#utility.yul\":5884:5887   */\n      dup4\n        /* \"#utility.yul\":5825:5892   */\n      tag_224\n      jump\t// in\n    tag_248:\n        /* \"#utility.yul\":5818:5892   */\n      swap2\n      pop\n        /* \"#utility.yul\":5922:5952   */\n      0x456c207072657374616d6f20796120667565206c697175696461646f00000000\n        /* \"#utility.yul\":5918:5919   */\n      0x00\n        /* \"#utility.yul\":5913:5916   */\n      dup4\n        /* \"#utility.yul\":5909:5920   */\n      add\n        /* \"#utility.yul\":5902:5953   */\n      mstore\n        /* \"#utility.yul\":5979:5981   */\n      0x20\n        /* \"#utility.yul\":5974:5977   */\n      dup3\n        /* \"#utility.yul\":5970:5982   */\n      add\n        /* \"#utility.yul\":5963:5982   */\n      swap1\n      pop\n        /* \"#utility.yul\":5808:5988   */\n      swap2\n      swap1\n      pop\n      jump\t// out\n        /* \"#utility.yul\":5994:6369   */\n    tag_249:\n      0x00\n        /* \"#utility.yul\":6157:6224   */\n      tag_251\n        /* \"#utility.yul\":6221:6223   */\n      0x2b\n        /* \"#utility.yul\":6216:6219   */\n      dup4\n        /* \"#utility.yul\":6157:6224   */\n      tag_224\n      jump\t// in\n    tag_251:\n        /* \"#utility.yul\":6150:6224   */\n      swap2\n      pop\n        /* \"#utility.yul\":6254:6288   */\n      0x4e6f20706f736565207065726d69736f73207061726120656a65637574617220\n        /* \"#utility.yul\":6250:6251   */\n      0x00\n        /* \"#utility.yul\":6245:6248   */\n      dup4\n        /* \"#utility.yul\":6241:6252   */\n      add\n        /* \"#utility.yul\":6234:6289   */\n      mstore\n        /* \"#utility.yul\":6320:6333   */\n      0x6573746120616363696f6e000000000000000000000000000000000000000000\n        /* \"#utility.yul\":6315:6317   */\n      0x20\n        /* \"#utility.yul\":6310:6313   */\n      dup4\n        /* \"#utility.yul\":6306:6318   */\n      add\n        /* \"#utility.yul\":6299:6334   */\n      mstore\n        /* \"#utility.yul\":6360:6362   */\n      0x40\n        /* \"#utility.yul\":6355:6358   */\n      dup3\n        /* \"#utility.yul\":6351:6363   */\n      add\n        /* \"#utility.yul\":6344:6363   */\n      swap1\n      pop\n        /* \"#utility.yul\":6140:6369   */\n      swap2\n      swap1\n      pop\n      jump\t// out\n        /* \"#utility.yul\":6375:6699   */\n    tag_252:\n      0x00\n        /* \"#utility.yul\":6538:6605   */\n      tag_254\n        /* \"#utility.yul\":6602:6604   */\n      0x1a\n        /* \"#utility.yul\":6597:6600   */\n      dup4\n        /* \"#utility.yul\":6538:6605   */\n      tag_224\n      jump\t// in\n    tag_254:\n        /* \"#utility.yul\":6531:6605   */\n      swap2\n      pop\n        /* \"#utility.yul\":6635:6663   */\n      0x456c207072657374616d6f2065737461206c697175696461646f000000000000\n        /* \"#utility.yul\":6631:6632   */\n      0x00\n        /* \"#utility.yul\":6626:6629   */\n      dup4\n        /* \"#utility.yul\":6622:6633   */\n      add\n        /* \"#utility.yul\":6615:6664   */\n      mstore\n        /* \"#utility.yul\":6690:6692   */\n      0x20\n        /* \"#utility.yul\":6685:6688   */\n      dup3\n        /* \"#utility.yul\":6681:6693   */\n      add\n        /* \"#utility.yul\":6674:6693   */\n      swap1\n      pop\n        /* \"#utility.yul\":6521:6699   */\n      swap2\n      swap1\n      pop\n      jump\t// out\n        /* \"#utility.yul\":6705:7033   */\n    tag_255:\n      0x00\n        /* \"#utility.yul\":6868:6935   */\n      tag_257\n        /* \"#utility.yul\":6932:6934   */\n      0x1e\n        /* \"#utility.yul\":6927:6930   */\n      dup4\n        /* \"#utility.yul\":6868:6935   */\n      tag_224\n      jump\t// in\n    tag_257:\n        /* \"#utility.yul\":6861:6935   */\n      swap2\n      pop\n        /* \"#utility.yul\":6965:6997   */\n      0x53616c646f20646520676172616e74696120696e737566696369656e74650000\n        /* \"#utility.yul\":6961:6962   */\n      0x00\n        /* \"#utility.yul\":6956:6959   */\n      dup4\n        /* \"#utility.yul\":6952:6963   */\n      add\n        /* \"#utility.yul\":6945:6998   */\n      mstore\n        /* \"#utility.yul\":7024:7026   */\n      0x20\n        /* \"#utility.yul\":7019:7022   */\n      dup3\n        /* \"#utility.yul\":7015:7027   */\n      add\n        /* \"#utility.yul\":7008:7027   */\n      swap1\n      pop\n        /* \"#utility.yul\":6851:7033   */\n      swap2\n      swap1\n      pop\n      jump\t// out\n        /* \"#utility.yul\":7039:7368   */\n    tag_258:\n      0x00\n        /* \"#utility.yul\":7202:7269   */\n      tag_260\n        /* \"#utility.yul\":7266:7268   */\n      0x1f\n        /* \"#utility.yul\":7261:7264   */\n      dup4\n        /* \"#utility.yul\":7202:7269   */\n      tag_224\n      jump\t// in\n    tag_260:\n        /* \"#utility.yul\":7195:7269   */\n      swap2\n      pop\n        /* \"#utility.yul\":7299:7332   */\n      0x456c20636c69656e74652079612065737461206461646f20646520616c746100\n        /* \"#utility.yul\":7295:7296   */\n      0x00\n        /* \"#utility.yul\":7290:7293   */\n      dup4\n        /* \"#utility.yul\":7286:7297   */\n      add\n        /* \"#utility.yul\":7279:7333   */\n      mstore\n        /* \"#utility.yul\":7359:7361   */\n      0x20\n        /* \"#utility.yul\":7354:7357   */\n      dup3\n        /* \"#utility.yul\":7350:7362   */\n      add\n        /* \"#utility.yul\":7343:7362   */\n      swap1\n      pop\n        /* \"#utility.yul\":7185:7368   */\n      swap2\n      swap1\n      pop\n      jump\t// out\n        /* \"#utility.yul\":7374:7696   */\n    tag_261:\n      0x00\n        /* \"#utility.yul\":7537:7604   */\n      tag_263\n        /* \"#utility.yul\":7601:7603   */\n      0x18\n        /* \"#utility.yul\":7596:7599   */\n      dup4\n        /* \"#utility.yul\":7537:7604   */\n      tag_224\n      jump\t// in\n    tag_263:\n        /* \"#utility.yul\":7530:7604   */\n      swap2\n      pop\n        /* \"#utility.yul\":7634:7660   */\n      0x4964206465207072657374616d6f206e6f2076616c69646f0000000000000000\n        /* \"#utility.yul\":7630:7631   */\n      0x00\n        /* \"#utility.yul\":7625:7628   */\n      dup4\n        /* \"#utility.yul\":7621:7632   */\n      add\n        /* \"#utility.yul\":7614:7661   */\n      mstore\n        /* \"#utility.yul\":7687:7689   */\n      0x20\n        /* \"#utility.yul\":7682:7685   */\n      dup3\n        /* \"#utility.yul\":7678:7690   */\n      add\n        /* \"#utility.yul\":7671:7690   */\n      swap1\n      pop\n        /* \"#utility.yul\":7520:7696   */\n      swap2\n      swap1\n      pop\n      jump\t// out\n        /* \"#utility.yul\":7702:8028   */\n    tag_264:\n      0x00\n        /* \"#utility.yul\":7865:7932   */\n      tag_266\n        /* \"#utility.yul\":7929:7931   */\n      0x1c\n        /* \"#utility.yul\":7924:7927   */\n      dup4\n        /* \"#utility.yul\":7865:7932   */\n      tag_224\n      jump\t// in\n    tag_266:\n        /* \"#utility.yul\":7858:7932   */\n      swap2\n      pop\n        /* \"#utility.yul\":7962:7992   */\n      0x456c207072657374616d6f206e6f2065737461206170726f6261646f00000000\n        /* \"#utility.yul\":7958:7959   */\n      0x00\n        /* \"#utility.yul\":7953:7956   */\n      dup4\n        /* \"#utility.yul\":7949:7960   */\n      add\n        /* \"#utility.yul\":7942:7993   */\n      mstore\n        /* \"#utility.yul\":8019:8021   */\n      0x20\n        /* \"#utility.yul\":8014:8017   */\n      dup3\n        /* \"#utility.yul\":8010:8022   */\n      add\n        /* \"#utility.yul\":8003:8022   */\n      swap1\n      pop\n        /* \"#utility.yul\":7848:8028   */\n      swap2\n      swap1\n      pop\n      jump\t// out\n        /* \"#utility.yul\":8034:8414   */\n    tag_267:\n      0x00\n        /* \"#utility.yul\":8197:8264   */\n      tag_269\n        /* \"#utility.yul\":8261:8263   */\n      0x30\n        /* \"#utility.yul\":8256:8259   */\n      dup4\n        /* \"#utility.yul\":8197:8264   */\n      tag_224\n      jump\t// in\n    tag_269:\n        /* \"#utility.yul\":8190:8264   */\n      swap2\n      pop\n        /* \"#utility.yul\":8294:8328   */\n      0x4e6f207469656e6573207065726d69736f732070617261207265656d626f6c73\n        /* \"#utility.yul\":8290:8291   */\n      0x00\n        /* \"#utility.yul\":8285:8288   */\n      dup4\n        /* \"#utility.yul\":8281:8292   */\n      add\n        /* \"#utility.yul\":8274:8329   */\n      mstore\n        /* \"#utility.yul\":8360:8378   */\n      0x61722065737465207072657374616d6f00000000000000000000000000000000\n        /* \"#utility.yul\":8355:8357   */\n      0x20\n        /* \"#utility.yul\":8350:8353   */\n      dup4\n        /* \"#utility.yul\":8346:8358   */\n      add\n        /* \"#utility.yul\":8339:8379   */\n      mstore\n        /* \"#utility.yul\":8405:8407   */\n      0x40\n        /* \"#utility.yul\":8400:8403   */\n      dup3\n        /* \"#utility.yul\":8396:8408   */\n      add\n        /* \"#utility.yul\":8389:8408   */\n      swap1\n      pop\n        /* \"#utility.yul\":8180:8414   */\n      swap2\n      swap1\n      pop\n      jump\t// out\n        /* \"#utility.yul\":8474:10227   */\n    tag_270:\n        /* \"#utility.yul\":8619:8625   */\n      0x0120\n        /* \"#utility.yul\":8614:8617   */\n      dup3\n        /* \"#utility.yul\":8610:8626   */\n      add\n        /* \"#utility.yul\":8706:8710   */\n      0x00\n        /* \"#utility.yul\":8699:8704   */\n      dup3\n        /* \"#utility.yul\":8695:8711   */\n      add\n        /* \"#utility.yul\":8689:8712   */\n      mload\n        /* \"#utility.yul\":8725:8788   */\n      tag_272\n        /* \"#utility.yul\":8782:8786   */\n      0x00\n        /* \"#utility.yul\":8777:8780   */\n      dup6\n        /* \"#utility.yul\":8773:8787   */\n      add\n        /* \"#utility.yul\":8759:8771   */\n      dup3\n        /* \"#utility.yul\":8725:8788   */\n      tag_194\n      jump\t// in\n    tag_272:\n        /* \"#utility.yul\":8636:8798   */\n      pop\n        /* \"#utility.yul\":8887:8891   */\n      0x20\n        /* \"#utility.yul\":8880:8885   */\n      dup3\n        /* \"#utility.yul\":8876:8892   */\n      add\n        /* \"#utility.yul\":8870:8893   */\n      mload\n        /* \"#utility.yul\":8906:8969   */\n      tag_273\n        /* \"#utility.yul\":8963:8967   */\n      0x20\n        /* \"#utility.yul\":8958:8961   */\n      dup6\n        /* \"#utility.yul\":8954:8968   */\n      add\n        /* \"#utility.yul\":8940:8952   */\n      dup3\n        /* \"#utility.yul\":8906:8969   */\n      tag_199\n      jump\t// in\n    tag_273:\n        /* \"#utility.yul\":8808:8979   */\n      pop\n        /* \"#utility.yul\":9062:9066   */\n      0x40\n        /* \"#utility.yul\":9055:9060   */\n      dup3\n        /* \"#utility.yul\":9051:9067   */\n      add\n        /* \"#utility.yul\":9045:9068   */\n      mload\n        /* \"#utility.yul\":9081:9144   */\n      tag_274\n        /* \"#utility.yul\":9138:9142   */\n      0x40\n        /* \"#utility.yul\":9133:9136   */\n      dup6\n        /* \"#utility.yul\":9129:9143   */\n      add\n        /* \"#utility.yul\":9115:9127   */\n      dup3\n        /* \"#utility.yul\":9081:9144   */\n      tag_194\n      jump\t// in\n    tag_274:\n        /* \"#utility.yul\":8989:9154   */\n      pop\n        /* \"#utility.yul\":9237:9241   */\n      0x60\n        /* \"#utility.yul\":9230:9235   */\n      dup3\n        /* \"#utility.yul\":9226:9242   */\n      add\n        /* \"#utility.yul\":9220:9243   */\n      mload\n        /* \"#utility.yul\":9256:9319   */\n      tag_275\n        /* \"#utility.yul\":9313:9317   */\n      0x60\n        /* \"#utility.yul\":9308:9311   */\n      dup6\n        /* \"#utility.yul\":9304:9318   */\n      add\n        /* \"#utility.yul\":9290:9302   */\n      dup3\n        /* \"#utility.yul\":9256:9319   */\n      tag_194\n      jump\t// in\n    tag_275:\n        /* \"#utility.yul\":9164:9329   */\n      pop\n        /* \"#utility.yul\":9422:9426   */\n      0x80\n        /* \"#utility.yul\":9415:9420   */\n      dup3\n        /* \"#utility.yul\":9411:9427   */\n      add\n        /* \"#utility.yul\":9405:9428   */\n      mload\n        /* \"#utility.yul\":9441:9504   */\n      tag_276\n        /* \"#utility.yul\":9498:9502   */\n      0x80\n        /* \"#utility.yul\":9493:9496   */\n      dup6\n        /* \"#utility.yul\":9489:9503   */\n      add\n        /* \"#utility.yul\":9475:9487   */\n      dup3\n        /* \"#utility.yul\":9441:9504   */\n      tag_194\n      jump\t// in\n    tag_276:\n        /* \"#utility.yul\":9339:9514   */\n      pop\n        /* \"#utility.yul\":9604:9608   */\n      0xa0\n        /* \"#utility.yul\":9597:9602   */\n      dup3\n        /* \"#utility.yul\":9593:9609   */\n      add\n        /* \"#utility.yul\":9587:9610   */\n      mload\n        /* \"#utility.yul\":9623:9686   */\n      tag_277\n        /* \"#utility.yul\":9680:9684   */\n      0xa0\n        /* \"#utility.yul\":9675:9678   */\n      dup6\n        /* \"#utility.yul\":9671:9685   */\n      add\n        /* \"#utility.yul\":9657:9669   */\n      dup3\n        /* \"#utility.yul\":9623:9686   */\n      tag_194\n      jump\t// in\n    tag_277:\n        /* \"#utility.yul\":9524:9696   */\n      pop\n        /* \"#utility.yul\":9782:9786   */\n      0xc0\n        /* \"#utility.yul\":9775:9780   */\n      dup3\n        /* \"#utility.yul\":9771:9787   */\n      add\n        /* \"#utility.yul\":9765:9788   */\n      mload\n        /* \"#utility.yul\":9801:9858   */\n      tag_278\n        /* \"#utility.yul\":9852:9856   */\n      0xc0\n        /* \"#utility.yul\":9847:9850   */\n      dup6\n        /* \"#utility.yul\":9843:9857   */\n      add\n        /* \"#utility.yul\":9829:9841   */\n      dup3\n        /* \"#utility.yul\":9801:9858   */\n      tag_217\n      jump\t// in\n    tag_278:\n        /* \"#utility.yul\":9706:9868   */\n      pop\n        /* \"#utility.yul\":9957:9961   */\n      0xe0\n        /* \"#utility.yul\":9950:9955   */\n      dup3\n        /* \"#utility.yul\":9946:9962   */\n      add\n        /* \"#utility.yul\":9940:9963   */\n      mload\n        /* \"#utility.yul\":9976:10033   */\n      tag_279\n        /* \"#utility.yul\":10027:10031   */\n      0xe0\n        /* \"#utility.yul\":10022:10025   */\n      dup6\n        /* \"#utility.yul\":10018:10032   */\n      add\n        /* \"#utility.yul\":10004:10016   */\n      dup3\n        /* \"#utility.yul\":9976:10033   */\n      tag_217\n      jump\t// in\n    tag_279:\n        /* \"#utility.yul\":9878:10043   */\n      pop\n        /* \"#utility.yul\":10130:10136   */\n      0x0100\n        /* \"#utility.yul\":10123:10128   */\n      dup3\n        /* \"#utility.yul\":10119:10137   */\n      add\n        /* \"#utility.yul\":10113:10138   */\n      mload\n        /* \"#utility.yul\":10151:10210   */\n      tag_280\n        /* \"#utility.yul\":10202:10208   */\n      0x0100\n        /* \"#utility.yul\":10197:10200   */\n      dup6\n        /* \"#utility.yul\":10193:10209   */\n      add\n        /* \"#utility.yul\":10179:10191   */\n      dup3\n        /* \"#utility.yul\":10151:10210   */\n      tag_217\n      jump\t// in\n    tag_280:\n        /* \"#utility.yul\":10053:10220   */\n      pop\n        /* \"#utility.yul\":8588:10227   */\n      pop\n      pop\n      pop\n      jump\t// out\n        /* \"#utility.yul\":10233:10341   */\n    tag_194:\n        /* \"#utility.yul\":10310:10334   */\n      tag_282\n        /* \"#utility.yul\":10328:10333   */\n      dup2\n        /* \"#utility.yul\":10310:10334   */\n      tag_283\n      jump\t// in\n    tag_282:\n        /* \"#utility.yul\":10305:10308   */\n      dup3\n        /* \"#utility.yul\":10298:10335   */\n      mstore\n        /* \"#utility.yul\":10288:10341   */\n      pop\n      pop\n      jump\t// out\n        /* \"#utility.yul\":10347:10465   */\n    tag_284:\n        /* \"#utility.yul\":10434:10458   */\n      tag_286\n        /* \"#utility.yul\":10452:10457   */\n      dup2\n        /* \"#utility.yul\":10434:10458   */\n      tag_283\n      jump\t// in\n    tag_286:\n        /* \"#utility.yul\":10429:10432   */\n      dup3\n        /* \"#utility.yul\":10422:10459   */\n      mstore\n        /* \"#utility.yul\":10412:10465   */\n      pop\n      pop\n      jump\t// out\n        /* \"#utility.yul\":10471:10725   */\n    tag_24:\n      0x00\n        /* \"#utility.yul\":10618:10620   */\n      0x20\n        /* \"#utility.yul\":10607:10616   */\n      dup3\n        /* \"#utility.yul\":10603:10621   */\n      add\n        /* \"#utility.yul\":10595:10621   */\n      swap1\n      pop\n        /* \"#utility.yul\":10631:10718   */\n      tag_288\n        /* \"#utility.yul\":10715:10716   */\n      0x00\n        /* \"#utility.yul\":10704:10713   */\n      dup4\n        /* \"#utility.yul\":10700:10717   */\n      add\n        /* \"#utility.yul\":10691:10697   */\n      dup5\n        /* \"#utility.yul\":10631:10718   */\n      tag_195\n      jump\t// in\n    tag_288:\n        /* \"#utility.yul\":10585:10725   */\n      swap3\n      swap2\n      pop\n      pop\n      jump\t// out\n        /* \"#utility.yul\":10731:11104   */\n    tag_54:\n      0x00\n        /* \"#utility.yul\":10912:10914   */\n      0x20\n        /* \"#utility.yul\":10901:10910   */\n      dup3\n        /* \"#utility.yul\":10897:10915   */\n      add\n        /* \"#utility.yul\":10889:10915   */\n      swap1\n      pop\n        /* \"#utility.yul\":10961:10970   */\n      dup2\n        /* \"#utility.yul\":10955:10959   */\n      dup2\n        /* \"#utility.yul\":10951:10971   */\n      sub\n        /* \"#utility.yul\":10947:10948   */\n      0x00\n        /* \"#utility.yul\":10936:10945   */\n      dup4\n        /* \"#utility.yul\":10932:10949   */\n      add\n        /* \"#utility.yul\":10925:10972   */\n      mstore\n        /* \"#utility.yul\":10989:11097   */\n      tag_290\n        /* \"#utility.yul\":11092:11096   */\n      dup2\n        /* \"#utility.yul\":11083:11089   */\n      dup5\n        /* \"#utility.yul\":10989:11097   */\n      tag_203\n      jump\t// in\n    tag_290:\n        /* \"#utility.yul\":10981:11097   */\n      swap1\n      pop\n        /* \"#utility.yul\":10879:11104   */\n      swap3\n      swap2\n      pop\n      pop\n      jump\t// out\n        /* \"#utility.yul\":11110:11529   */\n    tag_96:\n      0x00\n        /* \"#utility.yul\":11314:11316   */\n      0x20\n        /* \"#utility.yul\":11303:11312   */\n      dup3\n        /* \"#utility.yul\":11299:11317   */\n      add\n        /* \"#utility.yul\":11291:11317   */\n      swap1\n      pop\n        /* \"#utility.yul\":11363:11372   */\n      dup2\n        /* \"#utility.yul\":11357:11361   */\n      dup2\n        /* \"#utility.yul\":11353:11373   */\n      sub\n        /* \"#utility.yul\":11349:11350   */\n      0x00\n        /* \"#utility.yul\":11338:11347   */\n      dup4\n        /* \"#utility.yul\":11334:11351   */\n      add\n        /* \"#utility.yul\":11327:11374   */\n      mstore\n        /* \"#utility.yul\":11391:11522   */\n      tag_292\n        /* \"#utility.yul\":11517:11521   */\n      dup2\n        /* \"#utility.yul\":11391:11522   */\n      tag_221\n      jump\t// in\n    tag_292:\n        /* \"#utility.yul\":11383:11522   */\n      swap1\n      pop\n        /* \"#utility.yul\":11281:11529   */\n      swap2\n      swap1\n      pop\n      jump\t// out\n        /* \"#utility.yul\":11535:11954   */\n    tag_152:\n      0x00\n        /* \"#utility.yul\":11739:11741   */\n      0x20\n        /* \"#utility.yul\":11728:11737   */\n      dup3\n        /* \"#utility.yul\":11724:11742   */\n      add\n        /* \"#utility.yul\":11716:11742   */\n      swap1\n      pop\n        /* \"#utility.yul\":11788:11797   */\n      dup2\n        /* \"#utility.yul\":11782:11786   */\n      dup2\n        /* \"#utility.yul\":11778:11798   */\n      sub\n        /* \"#utility.yul\":11774:11775   */\n      0x00\n        /* \"#utility.yul\":11763:11772   */\n      dup4\n        /* \"#utility.yul\":11759:11776   */\n      add\n        /* \"#utility.yul\":11752:11799   */\n      mstore\n        /* \"#utility.yul\":11816:11947   */\n      tag_294\n        /* \"#utility.yul\":11942:11946   */\n      dup2\n        /* \"#utility.yul\":11816:11947   */\n      tag_225\n      jump\t// in\n    tag_294:\n        /* \"#utility.yul\":11808:11947   */\n      swap1\n      pop\n        /* \"#utility.yul\":11706:11954   */\n      swap2\n      swap1\n      pop\n      jump\t// out\n        /* \"#utility.yul\":11960:12379   */\n    tag_102:\n      0x00\n        /* \"#utility.yul\":12164:12166   */\n      0x20\n        /* \"#utility.yul\":12153:12162   */\n      dup3\n        /* \"#utility.yul\":12149:12167   */\n      add\n        /* \"#utility.yul\":12141:12167   */\n      swap1\n      pop\n        /* \"#utility.yul\":12213:12222   */\n      dup2\n        /* \"#utility.yul\":12207:12211   */\n      dup2\n        /* \"#utility.yul\":12203:12223   */\n      sub\n        /* \"#utility.yul\":12199:12200   */\n      0x00\n        /* \"#utility.yul\":12188:12197   */\n      dup4\n        /* \"#utility.yul\":12184:12201   */\n      add\n        /* \"#utility.yul\":12177:12224   */\n      mstore\n        /* \"#utility.yul\":12241:12372   */\n      tag_296\n        /* \"#utility.yul\":12367:12371   */\n      dup2\n        /* \"#utility.yul\":12241:12372   */\n      tag_228\n      jump\t// in\n    tag_296:\n        /* \"#utility.yul\":12233:12372   */\n      swap1\n      pop\n        /* \"#utility.yul\":12131:12379   */\n      swap2\n      swap1\n      pop\n      jump\t// out\n        /* \"#utility.yul\":12385:12804   */\n    tag_158:\n      0x00\n        /* \"#utility.yul\":12589:12591   */\n      0x20\n        /* \"#utility.yul\":12578:12587   */\n      dup3\n        /* \"#utility.yul\":12574:12592   */\n      add\n        /* \"#utility.yul\":12566:12592   */\n      swap1\n      pop\n        /* \"#utility.yul\":12638:12647   */\n      dup2\n        /* \"#utility.yul\":12632:12636   */\n      dup2\n        /* \"#utility.yul\":12628:12648   */\n      sub\n        /* \"#utility.yul\":12624:12625   */\n      0x00\n        /* \"#utility.yul\":12613:12622   */\n      dup4\n        /* \"#utility.yul\":12609:12626   */\n      add\n        /* \"#utility.yul\":12602:12649   */\n      mstore\n        /* \"#utility.yul\":12666:12797   */\n      tag_298\n        /* \"#utility.yul\":12792:12796   */\n      dup2\n        /* \"#utility.yul\":12666:12797   */\n      tag_231\n      jump\t// in\n    tag_298:\n        /* \"#utility.yul\":12658:12797   */\n      swap1\n      pop\n        /* \"#utility.yul\":12556:12804   */\n      swap2\n      swap1\n      pop\n      jump\t// out\n        /* \"#utility.yul\":12810:13229   */\n    tag_65:\n      0x00\n        /* \"#utility.yul\":13014:13016   */\n      0x20\n        /* \"#utility.yul\":13003:13012   */\n      dup3\n        /* \"#utility.yul\":12999:13017   */\n      add\n        /* \"#utility.yul\":12991:13017   */\n      swap1\n      pop\n        /* \"#utility.yul\":13063:13072   */\n      dup2\n        /* \"#utility.yul\":13057:13061   */\n      dup2\n        /* \"#utility.yul\":13053:13073   */\n      sub\n        /* \"#utility.yul\":13049:13050   */\n      0x00\n        /* \"#utility.yul\":13038:13047   */\n      dup4\n        /* \"#utility.yul\":13034:13051   */\n      add\n        /* \"#utility.yul\":13027:13074   */\n      mstore\n        /* \"#utility.yul\":13091:13222   */\n      tag_300\n        /* \"#utility.yul\":13217:13221   */\n      dup2\n        /* \"#utility.yul\":13091:13222   */\n      tag_234\n      jump\t// in\n    tag_300:\n        /* \"#utility.yul\":13083:13222   */\n      swap1\n      pop\n        /* \"#utility.yul\":12981:13229   */\n      swap2\n      swap1\n      pop\n      jump\t// out\n        /* \"#utility.yul\":13235:13654   */\n    tag_78:\n      0x00\n        /* \"#utility.yul\":13439:13441   */\n      0x20\n        /* \"#utility.yul\":13428:13437   */\n      dup3\n        /* \"#utility.yul\":13424:13442   */\n      add\n        /* \"#utility.yul\":13416:13442   */\n      swap1\n      pop\n        /* \"#utility.yul\":13488:13497   */\n      dup2\n        /* \"#utility.yul\":13482:13486   */\n      dup2\n        /* \"#utility.yul\":13478:13498   */\n      sub\n        /* \"#utility.yul\":13474:13475   */\n      0x00\n        /* \"#utility.yul\":13463:13472   */\n      dup4\n        /* \"#utility.yul\":13459:13476   */\n      add\n        /* \"#utility.yul\":13452:13499   */\n      mstore\n        /* \"#utility.yul\":13516:13647   */\n      tag_302\n        /* \"#utility.yul\":13642:13646   */\n      dup2\n        /* \"#utility.yul\":13516:13647   */\n      tag_237\n      jump\t// in\n    tag_302:\n        /* \"#utility.yul\":13508:13647   */\n      swap1\n      pop\n        /* \"#utility.yul\":13406:13654   */\n      swap2\n      swap1\n      pop\n      jump\t// out\n        /* \"#utility.yul\":13660:14079   */\n    tag_117:\n      0x00\n        /* \"#utility.yul\":13864:13866   */\n      0x20\n        /* \"#utility.yul\":13853:13862   */\n      dup3\n        /* \"#utility.yul\":13849:13867   */\n      add\n        /* \"#utility.yul\":13841:13867   */\n      swap1\n      pop\n        /* \"#utility.yul\":13913:13922   */\n      dup2\n        /* \"#utility.yul\":13907:13911   */\n      dup2\n        /* \"#utility.yul\":13903:13923   */\n      sub\n        /* \"#utility.yul\":13899:13900   */\n      0x00\n        /* \"#utility.yul\":13888:13897   */\n      dup4\n        /* \"#utility.yul\":13884:13901   */\n      add\n        /* \"#utility.yul\":13877:13924   */\n      mstore\n        /* \"#utility.yul\":13941:14072   */\n      tag_304\n        /* \"#utility.yul\":14067:14071   */\n      dup2\n        /* \"#utility.yul\":13941:14072   */\n      tag_240\n      jump\t// in\n    tag_304:\n        /* \"#utility.yul\":13933:14072   */\n      swap1\n      pop\n        /* \"#utility.yul\":13831:14079   */\n      swap2\n      swap1\n      pop\n      jump\t// out\n        /* \"#utility.yul\":14085:14504   */\n    tag_134:\n      0x00\n        /* \"#utility.yul\":14289:14291   */\n      0x20\n        /* \"#utility.yul\":14278:14287   */\n      dup3\n        /* \"#utility.yul\":14274:14292   */\n      add\n        /* \"#utility.yul\":14266:14292   */\n      swap1\n      pop\n        /* \"#utility.yul\":14338:14347   */\n      dup2\n        /* \"#utility.yul\":14332:14336   */\n      dup2\n        /* \"#utility.yul\":14328:14348   */\n      sub\n        /* \"#utility.yul\":14324:14325   */\n      0x00\n        /* \"#utility.yul\":14313:14322   */\n      dup4\n        /* \"#utility.yul\":14309:14326   */\n      add\n        /* \"#utility.yul\":14302:14349   */\n      mstore\n        /* \"#utility.yul\":14366:14497   */\n      tag_306\n        /* \"#utility.yul\":14492:14496   */\n      dup2\n        /* \"#utility.yul\":14366:14497   */\n      tag_243\n      jump\t// in\n    tag_306:\n        /* \"#utility.yul\":14358:14497   */\n      swap1\n      pop\n        /* \"#utility.yul\":14256:14504   */\n      swap2\n      swap1\n      pop\n      jump\t// out\n        /* \"#utility.yul\":14510:14929   */\n    tag_99:\n      0x00\n        /* \"#utility.yul\":14714:14716   */\n      0x20\n        /* \"#utility.yul\":14703:14712   */\n      dup3\n        /* \"#utility.yul\":14699:14717   */\n      add\n        /* \"#utility.yul\":14691:14717   */\n      swap1\n      pop\n        /* \"#utility.yul\":14763:14772   */\n      dup2\n        /* \"#utility.yul\":14757:14761   */\n      dup2\n        /* \"#utility.yul\":14753:14773   */\n      sub\n        /* \"#utility.yul\":14749:14750   */\n      0x00\n        /* \"#utility.yul\":14738:14747   */\n      dup4\n        /* \"#utility.yul\":14734:14751   */\n      add\n        /* \"#utility.yul\":14727:14774   */\n      mstore\n        /* \"#utility.yul\":14791:14922   */\n      tag_308\n        /* \"#utility.yul\":14917:14921   */\n      dup2\n        /* \"#utility.yul\":14791:14922   */\n      tag_246\n      jump\t// in\n    tag_308:\n        /* \"#utility.yul\":14783:14922   */\n      swap1\n      pop\n        /* \"#utility.yul\":14681:14929   */\n      swap2\n      swap1\n      pop\n      jump\t// out\n        /* \"#utility.yul\":14935:15354   */\n    tag_130:\n      0x00\n        /* \"#utility.yul\":15139:15141   */\n      0x20\n        /* \"#utility.yul\":15128:15137   */\n      dup3\n        /* \"#utility.yul\":15124:15142   */\n      add\n        /* \"#utility.yul\":15116:15142   */\n      swap1\n      pop\n        /* \"#utility.yul\":15188:15197   */\n      dup2\n        /* \"#utility.yul\":15182:15186   */\n      dup2\n        /* \"#utility.yul\":15178:15198   */\n      sub\n        /* \"#utility.yul\":15174:15175   */\n      0x00\n        /* \"#utility.yul\":15163:15172   */\n      dup4\n        /* \"#utility.yul\":15159:15176   */\n      add\n        /* \"#utility.yul\":15152:15199   */\n      mstore\n        /* \"#utility.yul\":15216:15347   */\n      tag_310\n        /* \"#utility.yul\":15342:15346   */\n      dup2\n        /* \"#utility.yul\":15216:15347   */\n      tag_249\n      jump\t// in\n    tag_310:\n        /* \"#utility.yul\":15208:15347   */\n      swap1\n      pop\n        /* \"#utility.yul\":15106:15354   */\n      swap2\n      swap1\n      pop\n      jump\t// out\n        /* \"#utility.yul\":15360:15779   */\n    tag_155:\n      0x00\n        /* \"#utility.yul\":15564:15566   */\n      0x20\n        /* \"#utility.yul\":15553:15562   */\n      dup3\n        /* \"#utility.yul\":15549:15567   */\n      add\n        /* \"#utility.yul\":15541:15567   */\n      swap1\n      pop\n        /* \"#utility.yul\":15613:15622   */\n      dup2\n        /* \"#utility.yul\":15607:15611   */\n      dup2\n        /* \"#utility.yul\":15603:15623   */\n      sub\n        /* \"#utility.yul\":15599:15600   */\n      0x00\n        /* \"#utility.yul\":15588:15597   */\n      dup4\n        /* \"#utility.yul\":15584:15601   */\n      add\n        /* \"#utility.yul\":15577:15624   */\n      mstore\n        /* \"#utility.yul\":15641:15772   */\n      tag_312\n        /* \"#utility.yul\":15767:15771   */\n      dup2\n        /* \"#utility.yul\":15641:15772   */\n      tag_252\n      jump\t// in\n    tag_312:\n        /* \"#utility.yul\":15633:15772   */\n      swap1\n      pop\n        /* \"#utility.yul\":15531:15779   */\n      swap2\n      swap1\n      pop\n      jump\t// out\n        /* \"#utility.yul\":15785:16204   */\n    tag_69:\n      0x00\n        /* \"#utility.yul\":15989:15991   */\n      0x20\n        /* \"#utility.yul\":15978:15987   */\n      dup3\n        /* \"#utility.yul\":15974:15992   */\n      add\n        /* \"#utility.yul\":15966:15992   */\n      swap1\n      pop\n        /* \"#utility.yul\":16038:16047   */\n      dup2\n        /* \"#utility.yul\":16032:16036   */\n      dup2\n        /* \"#utility.yul\":16028:16048   */\n      sub\n        /* \"#utility.yul\":16024:16025   */\n      0x00\n        /* \"#utility.yul\":16013:16022   */\n      dup4\n        /* \"#utility.yul\":16009:16026   */\n      add\n        /* \"#utility.yul\":16002:16049   */\n      mstore\n        /* \"#utility.yul\":16066:16197   */\n      tag_314\n        /* \"#utility.yul\":16192:16196   */\n      dup2\n        /* \"#utility.yul\":16066:16197   */\n      tag_255\n      jump\t// in\n    tag_314:\n        /* \"#utility.yul\":16058:16197   */\n      swap1\n      pop\n        /* \"#utility.yul\":15956:16204   */\n      swap2\n      swap1\n      pop\n      jump\t// out\n        /* \"#utility.yul\":16210:16629   */\n    tag_82:\n      0x00\n        /* \"#utility.yul\":16414:16416   */\n      0x20\n        /* \"#utility.yul\":16403:16412   */\n      dup3\n        /* \"#utility.yul\":16399:16417   */\n      add\n        /* \"#utility.yul\":16391:16417   */\n      swap1\n      pop\n        /* \"#utility.yul\":16463:16472   */\n      dup2\n        /* \"#utility.yul\":16457:16461   */\n      dup2\n        /* \"#utility.yul\":16453:16473   */\n      sub\n        /* \"#utility.yul\":16449:16450   */\n      0x00\n        /* \"#utility.yul\":16438:16447   */\n      dup4\n        /* \"#utility.yul\":16434:16451   */\n      add\n        /* \"#utility.yul\":16427:16474   */\n      mstore\n        /* \"#utility.yul\":16491:16622   */\n      tag_316\n        /* \"#utility.yul\":16617:16621   */\n      dup2\n        /* \"#utility.yul\":16491:16622   */\n      tag_258\n      jump\t// in\n    tag_316:\n        /* \"#utility.yul\":16483:16622   */\n      swap1\n      pop\n        /* \"#utility.yul\":16381:16629   */\n      swap2\n      swap1\n      pop\n      jump\t// out\n        /* \"#utility.yul\":16635:17054   */\n    tag_90:\n      0x00\n        /* \"#utility.yul\":16839:16841   */\n      0x20\n        /* \"#utility.yul\":16828:16837   */\n      dup3\n        /* \"#utility.yul\":16824:16842   */\n      add\n        /* \"#utility.yul\":16816:16842   */\n      swap1\n      pop\n        /* \"#utility.yul\":16888:16897   */\n      dup2\n        /* \"#utility.yul\":16882:16886   */\n      dup2\n        /* \"#utility.yul\":16878:16898   */\n      sub\n        /* \"#utility.yul\":16874:16875   */\n      0x00\n        /* \"#utility.yul\":16863:16872   */\n      dup4\n        /* \"#utility.yul\":16859:16876   */\n      add\n        /* \"#utility.yul\":16852:16899   */\n      mstore\n        /* \"#utility.yul\":16916:17047   */\n      tag_318\n        /* \"#utility.yul\":17042:17046   */\n      dup2\n        /* \"#utility.yul\":16916:17047   */\n      tag_261\n      jump\t// in\n    tag_318:\n        /* \"#utility.yul\":16908:17047   */\n      swap1\n      pop\n        /* \"#utility.yul\":16806:17054   */\n      swap2\n      swap1\n      pop\n      jump\t// out\n        /* \"#utility.yul\":17060:17479   */\n    tag_93:\n      0x00\n        /* \"#utility.yul\":17264:17266   */\n      0x20\n        /* \"#utility.yul\":17253:17262   */\n      dup3\n        /* \"#utility.yul\":17249:17267   */\n      add\n        /* \"#utility.yul\":17241:17267   */\n      swap1\n      pop\n        /* \"#utility.yul\":17313:17322   */\n      dup2\n        /* \"#utility.yul\":17307:17311   */\n      dup2\n        /* \"#utility.yul\":17303:17323   */\n      sub\n        /* \"#utility.yul\":17299:17300   */\n      0x00\n        /* \"#utility.yul\":17288:17297   */\n      dup4\n        /* \"#utility.yul\":17284:17301   */\n      add\n        /* \"#utility.yul\":17277:17324   */\n      mstore\n        /* \"#utility.yul\":17341:17472   */\n      tag_320\n        /* \"#utility.yul\":17467:17471   */\n      dup2\n        /* \"#utility.yul\":17341:17472   */\n      tag_264\n      jump\t// in\n    tag_320:\n        /* \"#utility.yul\":17333:17472   */\n      swap1\n      pop\n        /* \"#utility.yul\":17231:17479   */\n      swap2\n      swap1\n      pop\n      jump\t// out\n        /* \"#utility.yul\":17485:17904   */\n    tag_147:\n      0x00\n        /* \"#utility.yul\":17689:17691   */\n      0x20\n        /* \"#utility.yul\":17678:17687   */\n      dup3\n        /* \"#utility.yul\":17674:17692   */\n      add\n        /* \"#utility.yul\":17666:17692   */\n      swap1\n      pop\n        /* \"#utility.yul\":17738:17747   */\n      dup2\n        /* \"#utility.yul\":17732:17736   */\n      dup2\n        /* \"#utility.yul\":17728:17748   */\n      sub\n        /* \"#utility.yul\":17724:17725   */\n      0x00\n        /* \"#utility.yul\":17713:17722   */\n      dup4\n        /* \"#utility.yul\":17709:17726   */\n      add\n        /* \"#utility.yul\":17702:17749   */\n      mstore\n        /* \"#utility.yul\":17766:17897   */\n      tag_322\n        /* \"#utility.yul\":17892:17896   */\n      dup2\n        /* \"#utility.yul\":17766:17897   */\n      tag_267\n      jump\t// in\n    tag_322:\n        /* \"#utility.yul\":17758:17897   */\n      swap1\n      pop\n        /* \"#utility.yul\":17656:17904   */\n      swap2\n      swap1\n      pop\n      jump\t// out\n        /* \"#utility.yul\":17910:18229   */\n    tag_44:\n      0x00\n        /* \"#utility.yul\":18089:18092   */\n      0x0120\n        /* \"#utility.yul\":18078:18087   */\n      dup3\n        /* \"#utility.yul\":18074:18093   */\n      add\n        /* \"#utility.yul\":18066:18093   */\n      swap1\n      pop\n        /* \"#utility.yul\":18103:18222   */\n      tag_324\n        /* \"#utility.yul\":18219:18220   */\n      0x00\n        /* \"#utility.yul\":18208:18217   */\n      dup4\n        /* \"#utility.yul\":18204:18221   */\n      add\n        /* \"#utility.yul\":18195:18201   */\n      dup5\n        /* \"#utility.yul\":18103:18222   */\n      tag_270\n      jump\t// in\n    tag_324:\n        /* \"#utility.yul\":18056:18229   */\n      swap3\n      swap2\n      pop\n      pop\n      jump\t// out\n        /* \"#utility.yul\":18235:18457   */\n    tag_19:\n      0x00\n        /* \"#utility.yul\":18366:18368   */\n      0x20\n        /* \"#utility.yul\":18355:18364   */\n      dup3\n        /* \"#utility.yul\":18351:18369   */\n      add\n        /* \"#utility.yul\":18343:18369   */\n      swap1\n      pop\n        /* \"#utility.yul\":18379:18450   */\n      tag_326\n        /* \"#utility.yul\":18447:18448   */\n      0x00\n        /* \"#utility.yul\":18436:18445   */\n      dup4\n        /* \"#utility.yul\":18432:18449   */\n      add\n        /* \"#utility.yul\":18423:18429   */\n      dup5\n        /* \"#utility.yul\":18379:18450   */\n      tag_284\n      jump\t// in\n    tag_326:\n        /* \"#utility.yul\":18333:18457   */\n      swap3\n      swap2\n      pop\n      pop\n      jump\t// out\n        /* \"#utility.yul\":18463:18795   */\n    tag_74:\n      0x00\n        /* \"#utility.yul\":18622:18624   */\n      0x40\n        /* \"#utility.yul\":18611:18620   */\n      dup3\n        /* \"#utility.yul\":18607:18625   */\n      add\n        /* \"#utility.yul\":18599:18625   */\n      swap1\n      pop\n        /* \"#utility.yul\":18635:18706   */\n      tag_328\n        /* \"#utility.yul\":18703:18704   */\n      0x00\n        /* \"#utility.yul\":18692:18701   */\n      dup4\n        /* \"#utility.yul\":18688:18705   */\n      add\n        /* \"#utility.yul\":18679:18685   */\n      dup6\n        /* \"#utility.yul\":18635:18706   */\n      tag_284\n      jump\t// in\n    tag_328:\n        /* \"#utility.yul\":18716:18788   */\n      tag_329\n        /* \"#utility.yul\":18784:18786   */\n      0x20\n        /* \"#utility.yul\":18773:18782   */\n      dup4\n        /* \"#utility.yul\":18769:18787   */\n      add\n        /* \"#utility.yul\":18760:18766   */\n      dup5\n        /* \"#utility.yul\":18716:18788   */\n      tag_284\n      jump\t// in\n    tag_329:\n        /* \"#utility.yul\":18589:18795   */\n      swap4\n      swap3\n      pop\n      pop\n      pop\n      jump\t// out\n        /* \"#utility.yul\":18801:18933   */\n    tag_210:\n      0x00\n        /* \"#utility.yul\":18891:18894   */\n      dup2\n        /* \"#utility.yul\":18883:18894   */\n      swap1\n      pop\n        /* \"#utility.yul\":18921:18925   */\n      0x20\n        /* \"#utility.yul\":18916:18919   */\n      dup3\n        /* \"#utility.yul\":18912:18926   */\n      add\n        /* \"#utility.yul\":18904:18926   */\n      swap1\n      pop\n        /* \"#utility.yul\":18873:18933   */\n      swap2\n      swap1\n      pop\n      jump\t// out\n        /* \"#utility.yul\":18939:19053   */\n    tag_206:\n      0x00\n        /* \"#utility.yul\":19040:19045   */\n      dup2\n        /* \"#utility.yul\":19034:19046   */\n      mload\n        /* \"#utility.yul\":19024:19046   */\n      swap1\n      pop\n        /* \"#utility.yul\":19013:19053   */\n      swap2\n      swap1\n      pop\n      jump\t// out\n        /* \"#utility.yul\":19059:19172   */\n    tag_216:\n      0x00\n        /* \"#utility.yul\":19161:19165   */\n      0x20\n        /* \"#utility.yul\":19156:19159   */\n      dup3\n        /* \"#utility.yul\":19152:19166   */\n      add\n        /* \"#utility.yul\":19144:19166   */\n      swap1\n      pop\n        /* \"#utility.yul\":19134:19172   */\n      swap2\n      swap1\n      pop\n      jump\t// out\n        /* \"#utility.yul\":19178:19362   */\n    tag_208:\n      0x00\n        /* \"#utility.yul\":19311:19317   */\n      dup3\n        /* \"#utility.yul\":19306:19309   */\n      dup3\n        /* \"#utility.yul\":19299:19318   */\n      mstore\n        /* \"#utility.yul\":19351:19355   */\n      0x20\n        /* \"#utility.yul\":19346:19349   */\n      dup3\n        /* \"#utility.yul\":19342:19356   */\n      add\n        /* \"#utility.yul\":19327:19356   */\n      swap1\n      pop\n        /* \"#utility.yul\":19289:19362   */\n      swap3\n      swap2\n      pop\n      pop\n      jump\t// out\n        /* \"#utility.yul\":19368:19537   */\n    tag_224:\n      0x00\n        /* \"#utility.yul\":19486:19492   */\n      dup3\n        /* \"#utility.yul\":19481:19484   */\n      dup3\n        /* \"#utility.yul\":19474:19493   */\n      mstore\n        /* \"#utility.yul\":19526:19530   */\n      0x20\n        /* \"#utility.yul\":19521:19524   */\n      dup3\n        /* \"#utility.yul\":19517:19531   */\n      add\n        /* \"#utility.yul\":19502:19531   */\n      swap1\n      pop\n        /* \"#utility.yul\":19464:19537   */\n      swap3\n      swap2\n      pop\n      pop\n      jump\t// out\n        /* \"#utility.yul\":19543:19848   */\n    tag_71:\n      0x00\n        /* \"#utility.yul\":19602:19622   */\n      tag_336\n        /* \"#utility.yul\":19620:19621   */\n      dup3\n        /* \"#utility.yul\":19602:19622   */\n      tag_283\n      jump\t// in\n    tag_336:\n        /* \"#utility.yul\":19597:19622   */\n      swap2\n      pop\n        /* \"#utility.yul\":19636:19656   */\n      tag_337\n        /* \"#utility.yul\":19654:19655   */\n      dup4\n        /* \"#utility.yul\":19636:19656   */\n      tag_283\n      jump\t// in\n    tag_337:\n        /* \"#utility.yul\":19631:19656   */\n      swap3\n      pop\n        /* \"#utility.yul\":19790:19791   */\n      dup3\n        /* \"#utility.yul\":19722:19788   */\n      0xffffffffffffffffffffffffffffffffffffffffffffffffffffffffffffffff\n        /* \"#utility.yul\":19718:19792   */\n      sub\n        /* \"#utility.yul\":19715:19716   */\n      dup3\n        /* \"#utility.yul\":19712:19793   */\n      gt\n        /* \"#utility.yul\":19709:19711   */\n      iszero\n      tag_338\n      jumpi\n        /* \"#utility.yul\":19796:19814   */\n      tag_339\n      tag_340\n      jump\t// in\n    tag_339:\n        /* \"#utility.yul\":19709:19711   */\n    tag_338:\n        /* \"#utility.yul\":19840:19841   */\n      dup3\n        /* \"#utility.yul\":19837:19838   */\n      dup3\n        /* \"#utility.yul\":19833:19842   */\n      add\n        /* \"#utility.yul\":19826:19842   */\n      swap1\n      pop\n        /* \"#utility.yul\":19587:19848   */\n      swap3\n      swap2\n      pop\n      pop\n      jump\t// out\n        /* \"#utility.yul\":19854:20045   */\n    tag_106:\n      0x00\n        /* \"#utility.yul\":19914:19934   */\n      tag_342\n        /* \"#utility.yul\":19932:19933   */\n      dup3\n        /* \"#utility.yul\":19914:19934   */\n      tag_283\n      jump\t// in\n    tag_342:\n        /* \"#utility.yul\":19909:19934   */\n      swap2\n      pop\n        /* \"#utility.yul\":19948:19968   */\n      tag_343\n        /* \"#utility.yul\":19966:19967   */\n      dup4\n        /* \"#utility.yul\":19948:19968   */\n      tag_283\n      jump\t// in\n    tag_343:\n        /* \"#utility.yul\":19943:19968   */\n      swap3\n      pop\n        /* \"#utility.yul\":19987:19988   */\n      dup3\n        /* \"#utility.yul\":19984:19985   */\n      dup3\n        /* \"#utility.yul\":19981:19989   */\n      lt\n        /* \"#utility.yul\":19978:19980   */\n      iszero\n      tag_344\n      jumpi\n        /* \"#utility.yul\":19992:20010   */\n      tag_345\n      tag_340\n      jump\t// in\n    tag_345:\n        /* \"#utility.yul\":19978:19980   */\n    tag_344:\n        /* \"#utility.yul\":20037:20038   */\n      dup3\n        /* \"#utility.yul\":20034:20035   */\n      dup3\n        /* \"#utility.yul\":20030:20039   */\n      sub\n        /* \"#utility.yul\":20022:20039   */\n      swap1\n      pop\n        /* \"#utility.yul\":19899:20045   */\n      swap3\n      swap2\n      pop\n      pop\n      jump\t// out\n        /* \"#utility.yul\":20051:20147   */\n    tag_202:\n      0x00\n        /* \"#utility.yul\":20117:20141   */\n      tag_347\n        /* \"#utility.yul\":20135:20140   */\n      dup3\n        /* \"#utility.yul\":20117:20141   */\n      tag_348\n      jump\t// in\n    tag_347:\n        /* \"#utility.yul\":20106:20141   */\n      swap1\n      pop\n        /* \"#utility.yul\":20096:20147   */\n      swap2\n      swap1\n      pop\n      jump\t// out\n        /* \"#utility.yul\":20153:20257   */\n    tag_198:\n      0x00\n        /* \"#utility.yul\":20227:20251   */\n      tag_350\n        /* \"#utility.yul\":20245:20250   */\n      dup3\n        /* \"#utility.yul\":20227:20251   */\n      tag_348\n      jump\t// in\n    tag_350:\n        /* \"#utility.yul\":20216:20251   */\n      swap1\n      pop\n        /* \"#utility.yul\":20206:20257   */\n      swap2\n      swap1\n      pop\n      jump\t// out\n        /* \"#utility.yul\":20263:20353   */\n    tag_220:\n      0x00\n        /* \"#utility.yul\":20340:20345   */\n      dup2\n        /* \"#utility.yul\":20333:20346   */\n      iszero\n        /* \"#utility.yul\":20326:20347   */\n      iszero\n        /* \"#utility.yul\":20315:20347   */\n      swap1\n      pop\n        /* \"#utility.yul\":20305:20353   */\n      swap2\n      swap1\n      pop\n      jump\t// out\n        /* \"#utility.yul\":20359:20485   */\n    tag_348:\n      0x00\n        /* \"#utility.yul\":20436:20478   */\n      0xffffffffffffffffffffffffffffffffffffffff\n        /* \"#utility.yul\":20429:20434   */\n      dup3\n        /* \"#utility.yul\":20425:20479   */\n      and\n        /* \"#utility.yul\":20414:20479   */\n      swap1\n      pop\n        /* \"#utility.yul\":20404:20485   */\n      swap2\n      swap1\n      pop\n      jump\t// out\n        /* \"#utility.yul\":20491:20568   */\n    tag_283:\n      0x00\n        /* \"#utility.yul\":20557:20562   */\n      dup2\n        /* \"#utility.yul\":20546:20562   */\n      swap1\n      pop\n        /* \"#utility.yul\":20536:20568   */\n      swap2\n      swap1\n      pop\n      jump\t// out\n        /* \"#utility.yul\":20574:20754   */\n    tag_340:\n        /* \"#utility.yul\":20622:20699   */\n      0x4e487b7100000000000000000000000000000000000000000000000000000000\n        /* \"#utility.yul\":20619:20620   */\n      0x00\n        /* \"#utility.yul\":20612:20700   */\n      mstore\n        /* \"#utility.yul\":20719:20723   */\n      0x11\n        /* \"#utility.yul\":20716:20717   */\n      0x04\n        /* \"#utility.yul\":20709:20724   */\n      mstore\n        /* \"#utility.yul\":20743:20747   */\n      0x24\n        /* \"#utility.yul\":20740:20741   */\n      0x00\n        /* \"#utility.yul\":20733:20748   */\n      revert\n        /* \"#utility.yul\":20760:20882   */\n    tag_172:\n        /* \"#utility.yul\":20833:20857   */\n      tag_356\n        /* \"#utility.yul\":20851:20856   */\n      dup2\n        /* \"#utility.yul\":20833:20857   */\n      tag_202\n      jump\t// in\n    tag_356:\n        /* \"#utility.yul\":20826:20831   */\n      dup2\n        /* \"#utility.yul\":20823:20858   */\n      eq\n        /* \"#utility.yul\":20813:20815   */\n      tag_357\n      jumpi\n        /* \"#utility.yul\":20872:20873   */\n      0x00\n        /* \"#utility.yul\":20869:20870   */\n      dup1\n        /* \"#utility.yul\":20862:20874   */\n      revert\n        /* \"#utility.yul\":20813:20815   */\n    tag_357:\n        /* \"#utility.yul\":20803:20882   */\n      pop\n      jump\t// out\n        /* \"#utility.yul\":20888:21010   */\n    tag_176:\n        /* \"#utility.yul\":20961:20985   */\n      tag_359\n        /* \"#utility.yul\":20979:20984   */\n      dup2\n        /* \"#utility.yul\":20961:20985   */\n      tag_283\n      jump\t// in\n    tag_359:\n        /* \"#utility.yul\":20954:20959   */\n      dup2\n        /* \"#utility.yul\":20951:20986   */\n      eq\n        /* \"#utility.yul\":20941:20943   */\n      tag_360\n      jumpi\n        /* \"#utility.yul\":21000:21001   */\n      0x00\n        /* \"#utility.yul\":20997:20998   */\n      dup1\n        /* \"#utility.yul\":20990:21002   */\n      revert\n        /* \"#utility.yul\":20941:20943   */\n    tag_360:\n        /* \"#utility.yul\":20931:21010   */\n      pop\n      jump\t// out\n\n    auxdata: 0xa26469706673582212209e3994d1eaef89b5c432ff4f53dfc0e9103fffea8aa60312609f6fb30c0088d764736f6c63430008000033\n}\n",
				"bytecode": {
					"linkReferences": {},
					"object": "608060405234801561001057600080fd5b50336000806101000a81548173ffffffffffffffffffffffffffffffffffffffff021916908373ffffffffffffffffffffffffffffffffffffffff1602179055506001600260008060009054906101000a900473ffffffffffffffffffffffffffffffffffffffff1673ffffffffffffffffffffffffffffffffffffffff1673ffffffffffffffffffffffffffffffffffffffff16815260200190815260200160002060006101000a81548160ff02191690831515021790555061217d806100d96000396000f3fe6080604052600436106100915760003560e01c8063a26a151411610059578063a26a151414610179578063c1e83336146101b6578063cb4e6b66146101df578063dea423701461021c578063f56f47a81461024557610091565b8063209aa100146100965780633f881611146100d3578063425743bc146100fe57806369eb16b2146101275780638b08de2814610150575b600080fd5b3480156100a257600080fd5b506100bd60048036038101906100b891906116f9565b61024f565b6040516100ca9190611f78565b60405180910390f35b3480156100df57600080fd5b506100e861059d565b6040516100f59190611d1f565b60405180910390f35b34801561010a57600080fd5b506101256004803603810190610120919061166b565b6105c1565b005b34801561013357600080fd5b5061014e60048036038101906101499190611694565b61074b565b005b34801561015c57600080fd5b5061017760048036038101906101729190611694565b610ac3565b005b34801561018557600080fd5b506101a0600480360381019061019b9190611694565b610d8a565b6040516101ad9190611f5c565b60405180910390f35b3480156101c257600080fd5b506101dd60048036038101906101d8919061166b565b610ed2565b005b3480156101eb57600080fd5b506102066004803603810190610201919061166b565b611048565b6040516102139190611d3a565b60405180910390f35b34801561022857600080fd5b50610243600480360381019061023e91906116d0565b6110e2565b005b61024d6114ef565b005b6000600160003373ffffffffffffffffffffffffffffffffffffffff1673ffffffffffffffffffffffffffffffffffffffff16815260200190815260200160002060000160009054906101000a900460ff166102e0576040517f08c379a00000000000000000000000000000000000000000000000000000000081526004016102d790611ddc565b60405180910390fd5b82600160003373ffffffffffffffffffffffffffffffffffffffff1673ffffffffffffffffffffffffffffffffffffffff168152602001908152602001600020600101541015610365576040517f08c379a000000000000000000000000000000000000000000000000000000000815260040161035c90611ebc565b60405180910390fd5b600060018060003373ffffffffffffffffffffffffffffffffffffffff1673ffffffffffffffffffffffffffffffffffffffff168152602001908152602001600020600301805490506103b89190612006565b90506000600160003373ffffffffffffffffffffffffffffffffffffffff1673ffffffffffffffffffffffffffffffffffffffff16815260200190815260200160002060020160008381526020019081526020016000209050818160000181905550338160010160006101000a81548173ffffffffffffffffffffffffffffffffffffffff021916908373ffffffffffffffffffffffffffffffffffffffff1602179055508481600201819055508381600301819055504281600401819055506000816005018190555060008160060160006101000a81548160ff02191690831515021790555060008160060160016101000a81548160ff02191690831515021790555060008160060160026101000a81548160ff021916908315150217905550600160003373ffffffffffffffffffffffffffffffffffffffff1673ffffffffffffffffffffffffffffffffffffffff1681526020019081526020016000206003018290806001815401808255809150506001900390600052602060002001600090919091909150553373ffffffffffffffffffffffffffffffffffffffff167f0d7150be5d539fdc82775ebdc49a82680eda44d3b26a2c76f5d6178c68912d1d868660405161058a929190611f93565b60405180910390a2819250505092915050565b60008054906101000a900473ffffffffffffffffffffffffffffffffffffffff1681565b600260003373ffffffffffffffffffffffffffffffffffffffff1673ffffffffffffffffffffffffffffffffffffffff16815260200190815260200160002060009054906101000a900460ff1661064d576040517f08c379a000000000000000000000000000000000000000000000000000000000815260040161064490611dfc565b60405180910390fd5b600160008273ffffffffffffffffffffffffffffffffffffffff1673ffffffffffffffffffffffffffffffffffffffff16815260200190815260200160002060000160009054906101000a900460ff16156106dd576040517f08c379a00000000000000000000000000000000000000000000000000000000081526004016106d490611edc565b60405180910390fd5b6000600160008373ffffffffffffffffffffffffffffffffffffffff1673ffffffffffffffffffffffffffffffffffffffff16815260200190815260200160002090506000816001018190555060018160000160006101000a81548160ff0219169083151502179055505050565b600260003373ffffffffffffffffffffffffffffffffffffffff1673ffffffffffffffffffffffffffffffffffffffff16815260200190815260200160002060009054906101000a900460ff166107d7576040517f08c379a00000000000000000000000000000000000000000000000000000000081526004016107ce90611dfc565b60405180910390fd5b6000600160008473ffffffffffffffffffffffffffffffffffffffff1673ffffffffffffffffffffffffffffffffffffffff1681526020019081526020016000209050600082118015610831575080600301805490508211155b610870576040517f08c379a000000000000000000000000000000000000000000000000000000000815260040161086790611efc565b60405180910390fd5b600081600201600084815260200190815260200160002090508060060160009054906101000a900460ff166108da576040517f08c379a00000000000000000000000000000000000000000000000000000000081526004016108d190611f1c565b60405180910390fd5b8060060160019054906101000a900460ff161561092c576040517f08c379a000000000000000000000000000000000000000000000000000000000815260040161092390611d5c565b60405180910390fd5b8060060160029054906101000a900460ff161561097e576040517f08c379a000000000000000000000000000000000000000000000000000000000815260040161097590611e5c565b60405180910390fd5b428160050154106109c4576040517f08c379a00000000000000000000000000000000000000000000000000000000081526004016109bb90611d9c565b60405180910390fd5b60008054906101000a900473ffffffffffffffffffffffffffffffffffffffff1673ffffffffffffffffffffffffffffffffffffffff166108fc82600201549081150290604051600060405180830381858888f19350505050158015610a2e573d6000803e3d6000fd5b5060018160060160026101000a81548160ff0219169083151502179055508060020154826001016000828254610a64919061205c565b925050819055508373ffffffffffffffffffffffffffffffffffffffff167f20a0b1dc781935ba0bbb6a4cd56d8d1fa7c8c14de23b10f7e34ec35bf57856f48260020154604051610ab59190611f78565b60405180910390a250505050565b600260003373ffffffffffffffffffffffffffffffffffffffff1673ffffffffffffffffffffffffffffffffffffffff16815260200190815260200160002060009054906101000a900460ff16610b4f576040517f08c379a0000000000000000000000000000000000000000000000000000000008152600401610b4690611dfc565b60405180910390fd5b6000600160008473ffffffffffffffffffffffffffffffffffffffff1673ffffffffffffffffffffffffffffffffffffffff1681526020019081526020016000209050600082118015610ba9575080600301805490508211155b610be8576040517f08c379a0000000000000000000000000000000000000000000000000000000008152600401610bdf90611efc565b60405180910390fd5b600081600201600084815260200190815260200160002090508060060160009054906101000a900460ff1615610c53576040517f08c379a0000000000000000000000000000000000000000000000000000000008152600401610c4a90611e1c565b60405180910390fd5b8060060160019054906101000a900460ff1615610ca5576040517f08c379a0000000000000000000000000000000000000000000000000000000008152600401610c9c90611d5c565b60405180910390fd5b8060060160029054906101000a900460ff1615610cf7576040517f08c379a0000000000000000000000000000000000000000000000000000000008152600401610cee90611e5c565b60405180910390fd5b60018160060160006101000a81548160ff021916908315150217905550806003015442610d249190612006565b81600501819055508373ffffffffffffffffffffffffffffffffffffffff167f445af7b4d2a198a6605faa46d0d2d39abc590cc71f27c8e3f413078291fb77c082600201548360050154604051610d7c929190611f93565b60405180910390a250505050565b610d926115d9565b600160008473ffffffffffffffffffffffffffffffffffffffff1673ffffffffffffffffffffffffffffffffffffffff168152602001908152602001600020600201600083815260200190815260200160002060405180610120016040529081600082015481526020016001820160009054906101000a900473ffffffffffffffffffffffffffffffffffffffff1673ffffffffffffffffffffffffffffffffffffffff1673ffffffffffffffffffffffffffffffffffffffff168152602001600282015481526020016003820154815260200160048201548152602001600582015481526020016006820160009054906101000a900460ff161515151581526020016006820160019054906101000a900460ff161515151581526020016006820160029054906101000a900460ff161515151581525050905092915050565b60008054906101000a900473ffffffffffffffffffffffffffffffffffffffff1673ffffffffffffffffffffffffffffffffffffffff163373ffffffffffffffffffffffffffffffffffffffff1614610f60576040517f08c379a0000000000000000000000000000000000000000000000000000000008152600401610f5790611e7c565b60405180910390fd5b600260008273ffffffffffffffffffffffffffffffffffffffff1673ffffffffffffffffffffffffffffffffffffffff16815260200190815260200160002060009054906101000a900460ff1615610fed576040517f08c379a0000000000000000000000000000000000000000000000000000000008152600401610fe490611e3c565b60405180910390fd5b6001600260008373ffffffffffffffffffffffffffffffffffffffff1673ffffffffffffffffffffffffffffffffffffffff16815260200190815260200160002060006101000a81548160ff02191690831515021790555050565b6060600160008373ffffffffffffffffffffffffffffffffffffffff1673ffffffffffffffffffffffffffffffffffffffff1681526020019081526020016000206003018054806020026020016040519081016040528092919081815260200182805480156110d657602002820191906000526020600020905b8154815260200190600101908083116110c2575b50505050509050919050565b600160003373ffffffffffffffffffffffffffffffffffffffff1673ffffffffffffffffffffffffffffffffffffffff16815260200190815260200160002060000160009054906101000a900460ff16611171576040517f08c379a000000000000000000000000000000000000000000000000000000000815260040161116890611ddc565b60405180910390fd5b6000600160003373ffffffffffffffffffffffffffffffffffffffff1673ffffffffffffffffffffffffffffffffffffffff16815260200190815260200160002090506000821180156111cb575080600301805490508211155b61120a576040517f08c379a000000000000000000000000000000000000000000000000000000000815260040161120190611efc565b60405180910390fd5b600081600201600084815260200190815260200160002090503373ffffffffffffffffffffffffffffffffffffffff168160010160009054906101000a900473ffffffffffffffffffffffffffffffffffffffff1673ffffffffffffffffffffffffffffffffffffffff16146112b5576040517f08c379a00000000000000000000000000000000000000000000000000000000081526004016112ac90611f3c565b60405180910390fd5b8060060160009054906101000a900460ff16611306576040517f08c379a00000000000000000000000000000000000000000000000000000000081526004016112fd90611f1c565b60405180910390fd5b8060060160019054906101000a900460ff1615611358576040517f08c379a000000000000000000000000000000000000000000000000000000000815260040161134f90611d7c565b60405180910390fd5b8060060160029054906101000a900460ff16156113aa576040517f08c379a00000000000000000000000000000000000000000000000000000000081526004016113a190611e9c565b60405180910390fd5b42816005015410156113f1576040517f08c379a00000000000000000000000000000000000000000000000000000000081526004016113e890611dbc565b60405180910390fd5b60008054906101000a900473ffffffffffffffffffffffffffffffffffffffff1673ffffffffffffffffffffffffffffffffffffffff166108fc82600201549081150290604051600060405180830381858888f1935050505015801561145b573d6000803e3d6000fd5b5060018160060160016101000a81548160ff0219169083151502179055508060020154826001016000828254611491919061205c565b925050819055503373ffffffffffffffffffffffffffffffffffffffff167fcafe7262442382b92dbcf9d83f09d266be4eb5af9cf783bc0a28eab4015defd882600201546040516114e29190611f78565b60405180910390a2505050565b600160003373ffffffffffffffffffffffffffffffffffffffff1673ffffffffffffffffffffffffffffffffffffffff16815260200190815260200160002060000160009054906101000a900460ff1661157e576040517f08c379a000000000000000000000000000000000000000000000000000000000815260040161157590611ddc565b60405180910390fd5b34600160003373ffffffffffffffffffffffffffffffffffffffff1673ffffffffffffffffffffffffffffffffffffffff16815260200190815260200160002060010160008282546115d09190612006565b92505081905550565b60405180610120016040528060008152602001600073ffffffffffffffffffffffffffffffffffffffff168152602001600081526020016000815260200160008152602001600081526020016000151581526020016000151581526020016000151581525090565b60008135905061165081612119565b92915050565b60008135905061166581612130565b92915050565b60006020828403121561167d57600080fd5b600061168b84828501611641565b91505092915050565b600080604083850312156116a757600080fd5b60006116b585828601611641565b92505060206116c685828601611656565b9150509250929050565b6000602082840312156116e257600080fd5b60006116f084828501611656565b91505092915050565b6000806040838503121561170c57600080fd5b600061171a85828601611656565b925050602061172b85828601611656565b9150509250929050565b60006117418383611d01565b60208301905092915050565b611756816120a2565b82525050565b61176581612090565b82525050565b600061177682611fcc565b6117808185611fe4565b935061178b83611fbc565b8060005b838110156117bc5781516117a38882611735565b97506117ae83611fd7565b92505060018101905061178f565b5085935050505092915050565b6117d2816120b4565b82525050565b60006117e5601e83611ff5565b91507f456c207072657374616d6f20796120667565207265656d626f6c7361646f00006000830152602082019050919050565b6000611825601f83611ff5565b91507f456c207072657374616d6f2079612065737461207265656d626f6c7361646f006000830152602082019050919050565b6000611865601e83611ff5565b91507f456c207469656d706f206c696d697465206e6f2068612076656e6369646f00006000830152602082019050919050565b60006118a5601b83611ff5565b91507f456c207469656d706f206c696d6974652068612076656e6369646f00000000006000830152602082019050919050565b60006118e5601783611ff5565b91507f4e6f20657320756e20636c69656e74652061637469766f0000000000000000006000830152602082019050919050565b6000611925600e83611ff5565b91507f4e6f20657320656d706c6561646f0000000000000000000000000000000000006000830152602082019050919050565b6000611965601b83611ff5565b91507f456c207072657374616d6f20796120667565206170726f6261646f00000000006000830152602082019050919050565b60006119a5602383611ff5565b91507f456c207072657374616d697374612079612065737461206461646f206465206160008301527f6c746100000000000000000000000000000000000000000000000000000000006020830152604082019050919050565b6000611a0b601c83611ff5565b91507f456c207072657374616d6f20796120667565206c697175696461646f000000006000830152602082019050919050565b6000611a4b602b83611ff5565b91507f4e6f20706f736565207065726d69736f73207061726120656a6563757461722060008301527f6573746120616363696f6e0000000000000000000000000000000000000000006020830152604082019050919050565b6000611ab1601a83611ff5565b91507f456c207072657374616d6f2065737461206c697175696461646f0000000000006000830152602082019050919050565b6000611af1601e83611ff5565b91507f53616c646f20646520676172616e74696120696e737566696369656e746500006000830152602082019050919050565b6000611b31601f83611ff5565b91507f456c20636c69656e74652079612065737461206461646f20646520616c7461006000830152602082019050919050565b6000611b71601883611ff5565b91507f4964206465207072657374616d6f206e6f2076616c69646f00000000000000006000830152602082019050919050565b6000611bb1601c83611ff5565b91507f456c207072657374616d6f206e6f2065737461206170726f6261646f000000006000830152602082019050919050565b6000611bf1603083611ff5565b91507f4e6f207469656e6573207065726d69736f732070617261207265656d626f6c7360008301527f61722065737465207072657374616d6f000000000000000000000000000000006020830152604082019050919050565b61012082016000820151611c616000850182611d01565b506020820151611c74602085018261175c565b506040820151611c876040850182611d01565b506060820151611c9a6060850182611d01565b506080820151611cad6080850182611d01565b5060a0820151611cc060a0850182611d01565b5060c0820151611cd360c08501826117c9565b5060e0820151611ce660e08501826117c9565b50610100820151611cfb6101008501826117c9565b50505050565b611d0a816120e0565b82525050565b611d19816120e0565b82525050565b6000602082019050611d34600083018461174d565b92915050565b60006020820190508181036000830152611d54818461176b565b905092915050565b60006020820190508181036000830152611d75816117d8565b9050919050565b60006020820190508181036000830152611d9581611818565b9050919050565b60006020820190508181036000830152611db581611858565b9050919050565b60006020820190508181036000830152611dd581611898565b9050919050565b60006020820190508181036000830152611df5816118d8565b9050919050565b60006020820190508181036000830152611e1581611918565b9050919050565b60006020820190508181036000830152611e3581611958565b9050919050565b60006020820190508181036000830152611e5581611998565b9050919050565b60006020820190508181036000830152611e75816119fe565b9050919050565b60006020820190508181036000830152611e9581611a3e565b9050919050565b60006020820190508181036000830152611eb581611aa4565b9050919050565b60006020820190508181036000830152611ed581611ae4565b9050919050565b60006020820190508181036000830152611ef581611b24565b9050919050565b60006020820190508181036000830152611f1581611b64565b9050919050565b60006020820190508181036000830152611f3581611ba4565b9050919050565b60006020820190508181036000830152611f5581611be4565b9050919050565b600061012082019050611f726000830184611c4a565b92915050565b6000602082019050611f8d6000830184611d10565b92915050565b6000604082019050611fa86000830185611d10565b611fb56020830184611d10565b9392505050565b6000819050602082019050919050565b600081519050919050565b6000602082019050919050565b600082825260208201905092915050565b600082825260208201905092915050565b6000612011826120e0565b915061201c836120e0565b9250827fffffffffffffffffffffffffffffffffffffffffffffffffffffffffffffffff03821115612051576120506120ea565b5b828201905092915050565b6000612067826120e0565b9150612072836120e0565b925082821015612085576120846120ea565b5b828203905092915050565b600061209b826120c0565b9050919050565b60006120ad826120c0565b9050919050565b60008115159050919050565b600073ffffffffffffffffffffffffffffffffffffffff82169050919050565b6000819050919050565b7f4e487b7100000000000000000000000000000000000000000000000000000000600052601160045260246000fd5b61212281612090565b811461212d57600080fd5b50565b612139816120e0565b811461214457600080fd5b5056fea26469706673582212209e3994d1eaef89b5c432ff4f53dfc0e9103fffea8aa60312609f6fb30c0088d764736f6c63430008000033",
					"opcodes": "PUSH1 0x80 PUSH1 0x40 MSTORE CALLVALUE DUP1 ISZERO PUSH2 0x10 JUMPI PUSH1 0x0 DUP1 REVERT JUMPDEST POP CALLER PUSH1 0x0 DUP1 PUSH2 0x100 EXP DUP2 SLOAD DUP2 PUSH20 0xFFFFFFFFFFFFFFFFFFFFFFFFFFFFFFFFFFFFFFFF MUL NOT AND SWAP1 DUP4 PUSH20 0xFFFFFFFFFFFFFFFFFFFFFFFFFFFFFFFFFFFFFFFF AND MUL OR SWAP1 SSTORE POP PUSH1 0x1 PUSH1 0x2 PUSH1 0x0 DUP1 PUSH1 0x0 SWAP1 SLOAD SWAP1 PUSH2 0x100 EXP SWAP1 DIV PUSH20 0xFFFFFFFFFFFFFFFFFFFFFFFFFFFFFFFFFFFFFFFF AND PUSH20 0xFFFFFFFFFFFFFFFFFFFFFFFFFFFFFFFFFFFFFFFF AND PUSH20 0xFFFFFFFFFFFFFFFFFFFFFFFFFFFFFFFFFFFFFFFF AND DUP2 MSTORE PUSH1 0x20 ADD SWAP1 DUP2 MSTORE PUSH1 0x20 ADD PUSH1 0x0 KECCAK256 PUSH1 0x0 PUSH2 0x100 EXP DUP2 SLOAD DUP2 PUSH1 0xFF MUL NOT AND SWAP1 DUP4 ISZERO ISZERO MUL OR SWAP1 SSTORE POP PUSH2 0x217D DUP1 PUSH2 0xD9 PUSH1 0x0 CODECOPY PUSH1 0x0 RETURN INVALID PUSH1 0x80 PUSH1 0x40 MSTORE PUSH1 0x4 CALLDATASIZE LT PUSH2 0x91 JUMPI PUSH1 0x0 CALLDATALOAD PUSH1 0xE0 SHR DUP1 PUSH4 0xA26A1514 GT PUSH2 0x59 JUMPI DUP1 PUSH4 0xA26A1514 EQ PUSH2 0x179 JUMPI DUP1 PUSH4 0xC1E83336 EQ PUSH2 0x1B6 JUMPI DUP1 PUSH4 0xCB4E6B66 EQ PUSH2 0x1DF JUMPI DUP1 PUSH4 0xDEA42370 EQ PUSH2 0x21C JUMPI DUP1 PUSH4 0xF56F47A8 EQ PUSH2 0x245 JUMPI PUSH2 0x91 JUMP JUMPDEST DUP1 PUSH4 0x209AA100 EQ PUSH2 0x96 JUMPI DUP1 PUSH4 0x3F881611 EQ PUSH2 0xD3 JUMPI DUP1 PUSH4 0x425743BC EQ PUSH2 0xFE JUMPI DUP1 PUSH4 0x69EB16B2 EQ PUSH2 0x127 JUMPI DUP1 PUSH4 0x8B08DE28 EQ PUSH2 0x150 JUMPI JUMPDEST PUSH1 0x0 DUP1 REVERT JUMPDEST CALLVALUE DUP1 ISZERO PUSH2 0xA2 JUMPI PUSH1 0x0 DUP1 REVERT JUMPDEST POP PUSH2 0xBD PUSH1 0x4 DUP1 CALLDATASIZE SUB DUP2 ADD SWAP1 PUSH2 0xB8 SWAP2 SWAP1 PUSH2 0x16F9 JUMP JUMPDEST PUSH2 0x24F JUMP JUMPDEST PUSH1 0x40 MLOAD PUSH2 0xCA SWAP2 SWAP1 PUSH2 0x1F78 JUMP JUMPDEST PUSH1 0x40 MLOAD DUP1 SWAP2 SUB SWAP1 RETURN JUMPDEST CALLVALUE DUP1 ISZERO PUSH2 0xDF JUMPI PUSH1 0x0 DUP1 REVERT JUMPDEST POP PUSH2 0xE8 PUSH2 0x59D JUMP JUMPDEST PUSH1 0x40 MLOAD PUSH2 0xF5 SWAP2 SWAP1 PUSH2 0x1D1F JUMP JUMPDEST PUSH1 0x40 MLOAD DUP1 SWAP2 SUB SWAP1 RETURN JUMPDEST CALLVALUE DUP1 ISZERO PUSH2 0x10A JUMPI PUSH1 0x0 DUP1 REVERT JUMPDEST POP PUSH2 0x125 PUSH1 0x4 DUP1 CALLDATASIZE SUB DUP2 ADD SWAP1 PUSH2 0x120 SWAP2 SWAP1 PUSH2 0x166B JUMP JUMPDEST PUSH2 0x5C1 JUMP JUMPDEST STOP JUMPDEST CALLVALUE DUP1 ISZERO PUSH2 0x133 JUMPI PUSH1 0x0 DUP1 REVERT JUMPDEST POP PUSH2 0x14E PUSH1 0x4 DUP1 CALLDATASIZE SUB DUP2 ADD SWAP1 PUSH2 0x149 SWAP2 SWAP1 PUSH2 0x1694 JUMP JUMPDEST PUSH2 0x74B JUMP JUMPDEST STOP JUMPDEST CALLVALUE DUP1 ISZERO PUSH2 0x15C JUMPI PUSH1 0x0 DUP1 REVERT JUMPDEST POP PUSH2 0x177 PUSH1 0x4 DUP1 CALLDATASIZE SUB DUP2 ADD SWAP1 PUSH2 0x172 SWAP2 SWAP1 PUSH2 0x1694 JUMP JUMPDEST PUSH2 0xAC3 JUMP JUMPDEST STOP JUMPDEST CALLVALUE DUP1 ISZERO PUSH2 0x185 JUMPI PUSH1 0x0 DUP1 REVERT JUMPDEST POP PUSH2 0x1A0 PUSH1 0x4 DUP1 CALLDATASIZE SUB DUP2 ADD SWAP1 PUSH2 0x19B SWAP2 SWAP1 PUSH2 0x1694 JUMP JUMPDEST PUSH2 0xD8A JUMP JUMPDEST PUSH1 0x40 MLOAD PUSH2 0x1AD SWAP2 SWAP1 PUSH2 0x1F5C JUMP JUMPDEST PUSH1 0x40 MLOAD DUP1 SWAP2 SUB SWAP1 RETURN JUMPDEST CALLVALUE DUP1 ISZERO PUSH2 0x1C2 JUMPI PUSH1 0x0 DUP1 REVERT JUMPDEST POP PUSH2 0x1DD PUSH1 0x4 DUP1 CALLDATASIZE SUB DUP2 ADD SWAP1 PUSH2 0x1D8 SWAP2 SWAP1 PUSH2 0x166B JUMP JUMPDEST PUSH2 0xED2 JUMP JUMPDEST STOP JUMPDEST CALLVALUE DUP1 ISZERO PUSH2 0x1EB JUMPI PUSH1 0x0 DUP1 REVERT JUMPDEST POP PUSH2 0x206 PUSH1 0x4 DUP1 CALLDATASIZE SUB DUP2 ADD SWAP1 PUSH2 0x201 SWAP2 SWAP1 PUSH2 0x166B JUMP JUMPDEST PUSH2 0x1048 JUMP JUMPDEST PUSH1 0x40 MLOAD PUSH2 0x213 SWAP2 SWAP1 PUSH2 0x1D3A JUMP JUMPDEST PUSH1 0x40 MLOAD DUP1 SWAP2 SUB SWAP1 RETURN JUMPDEST CALLVALUE DUP1 ISZERO PUSH2 0x228 JUMPI PUSH1 0x0 DUP1 REVERT JUMPDEST POP PUSH2 0x243 PUSH1 0x4 DUP1 CALLDATASIZE SUB DUP2 ADD SWAP1 PUSH2 0x23E SWAP2 SWAP1 PUSH2 0x16D0 JUMP JUMPDEST PUSH2 0x10E2 JUMP JUMPDEST STOP JUMPDEST PUSH2 0x24D PUSH2 0x14EF JUMP JUMPDEST STOP JUMPDEST PUSH1 0x0 PUSH1 0x1 PUSH1 0x0 CALLER PUSH20 0xFFFFFFFFFFFFFFFFFFFFFFFFFFFFFFFFFFFFFFFF AND PUSH20 0xFFFFFFFFFFFFFFFFFFFFFFFFFFFFFFFFFFFFFFFF AND DUP2 MSTORE PUSH1 0x20 ADD SWAP1 DUP2 MSTORE PUSH1 0x20 ADD PUSH1 0x0 KECCAK256 PUSH1 0x0 ADD PUSH1 0x0 SWAP1 SLOAD SWAP1 PUSH2 0x100 EXP SWAP1 DIV PUSH1 0xFF AND PUSH2 0x2E0 JUMPI PUSH1 0x40 MLOAD PUSH32 0x8C379A000000000000000000000000000000000000000000000000000000000 DUP2 MSTORE PUSH1 0x4 ADD PUSH2 0x2D7 SWAP1 PUSH2 0x1DDC JUMP JUMPDEST PUSH1 0x40 MLOAD DUP1 SWAP2 SUB SWAP1 REVERT JUMPDEST DUP3 PUSH1 0x1 PUSH1 0x0 CALLER PUSH20 0xFFFFFFFFFFFFFFFFFFFFFFFFFFFFFFFFFFFFFFFF AND PUSH20 0xFFFFFFFFFFFFFFFFFFFFFFFFFFFFFFFFFFFFFFFF AND DUP2 MSTORE PUSH1 0x20 ADD SWAP1 DUP2 MSTORE PUSH1 0x20 ADD PUSH1 0x0 KECCAK256 PUSH1 0x1 ADD SLOAD LT ISZERO PUSH2 0x365 JUMPI PUSH1 0x40 MLOAD PUSH32 0x8C379A000000000000000000000000000000000000000000000000000000000 DUP2 MSTORE PUSH1 0x4 ADD PUSH2 0x35C SWAP1 PUSH2 0x1EBC JUMP JUMPDEST PUSH1 0x40 MLOAD DUP1 SWAP2 SUB SWAP1 REVERT JUMPDEST PUSH1 0x0 PUSH1 0x1 DUP1 PUSH1 0x0 CALLER PUSH20 0xFFFFFFFFFFFFFFFFFFFFFFFFFFFFFFFFFFFFFFFF AND PUSH20 0xFFFFFFFFFFFFFFFFFFFFFFFFFFFFFFFFFFFFFFFF AND DUP2 MSTORE PUSH1 0x20 ADD SWAP1 DUP2 MSTORE PUSH1 0x20 ADD PUSH1 0x0 KECCAK256 PUSH1 0x3 ADD DUP1 SLOAD SWAP1 POP PUSH2 0x3B8 SWAP2 SWAP1 PUSH2 0x2006 JUMP JUMPDEST SWAP1 POP PUSH1 0x0 PUSH1 0x1 PUSH1 0x0 CALLER PUSH20 0xFFFFFFFFFFFFFFFFFFFFFFFFFFFFFFFFFFFFFFFF AND PUSH20 0xFFFFFFFFFFFFFFFFFFFFFFFFFFFFFFFFFFFFFFFF AND DUP2 MSTORE PUSH1 0x20 ADD SWAP1 DUP2 MSTORE PUSH1 0x20 ADD PUSH1 0x0 KECCAK256 PUSH1 0x2 ADD PUSH1 0x0 DUP4 DUP2 MSTORE PUSH1 0x20 ADD SWAP1 DUP2 MSTORE PUSH1 0x20 ADD PUSH1 0x0 KECCAK256 SWAP1 POP DUP2 DUP2 PUSH1 0x0 ADD DUP2 SWAP1 SSTORE POP CALLER DUP2 PUSH1 0x1 ADD PUSH1 0x0 PUSH2 0x100 EXP DUP2 SLOAD DUP2 PUSH20 0xFFFFFFFFFFFFFFFFFFFFFFFFFFFFFFFFFFFFFFFF MUL NOT AND SWAP1 DUP4 PUSH20 0xFFFFFFFFFFFFFFFFFFFFFFFFFFFFFFFFFFFFFFFF AND MUL OR SWAP1 SSTORE POP DUP5 DUP2 PUSH1 0x2 ADD DUP2 SWAP1 SSTORE POP DUP4 DUP2 PUSH1 0x3 ADD DUP2 SWAP1 SSTORE POP TIMESTAMP DUP2 PUSH1 0x4 ADD DUP2 SWAP1 SSTORE POP PUSH1 0x0 DUP2 PUSH1 0x5 ADD DUP2 SWAP1 SSTORE POP PUSH1 0x0 DUP2 PUSH1 0x6 ADD PUSH1 0x0 PUSH2 0x100 EXP DUP2 SLOAD DUP2 PUSH1 0xFF MUL NOT AND SWAP1 DUP4 ISZERO ISZERO MUL OR SWAP1 SSTORE POP PUSH1 0x0 DUP2 PUSH1 0x6 ADD PUSH1 0x1 PUSH2 0x100 EXP DUP2 SLOAD DUP2 PUSH1 0xFF MUL NOT AND SWAP1 DUP4 ISZERO ISZERO MUL OR SWAP1 SSTORE POP PUSH1 0x0 DUP2 PUSH1 0x6 ADD PUSH1 0x2 PUSH2 0x100 EXP DUP2 SLOAD DUP2 PUSH1 0xFF MUL NOT AND SWAP1 DUP4 ISZERO ISZERO MUL OR SWAP1 SSTORE POP PUSH1 0x1 PUSH1 0x0 CALLER PUSH20 0xFFFFFFFFFFFFFFFFFFFFFFFFFFFFFFFFFFFFFFFF AND PUSH20 0xFFFFFFFFFFFFFFFFFFFFFFFFFFFFFFFFFFFFFFFF AND DUP2 MSTORE PUSH1 0x20 ADD SWAP1 DUP2 MSTORE PUSH1 0x20 ADD PUSH1 0x0 KECCAK256 PUSH1 0x3 ADD DUP3 SWAP1 DUP1 PUSH1 0x1 DUP2 SLOAD ADD DUP1 DUP3 SSTORE DUP1 SWAP2 POP POP PUSH1 0x1 SWAP1 SUB SWAP1 PUSH1 0x0 MSTORE PUSH1 0x20 PUSH1 0x0 KECCAK256 ADD PUSH1 0x0 SWAP1 SWAP2 SWAP1 SWAP2 SWAP1 SWAP2 POP SSTORE CALLER PUSH20 0xFFFFFFFFFFFFFFFFFFFFFFFFFFFFFFFFFFFFFFFF AND PUSH32 0xD7150BE5D539FDC82775EBDC49A82680EDA44D3B26A2C76F5D6178C68912D1D DUP7 DUP7 PUSH1 0x40 MLOAD PUSH2 0x58A SWAP3 SWAP2 SWAP1 PUSH2 0x1F93 JUMP JUMPDEST PUSH1 0x40 MLOAD DUP1 SWAP2 SUB SWAP1 LOG2 DUP2 SWAP3 POP POP POP SWAP3 SWAP2 POP POP JUMP JUMPDEST PUSH1 0x0 DUP1 SLOAD SWAP1 PUSH2 0x100 EXP SWAP1 DIV PUSH20 0xFFFFFFFFFFFFFFFFFFFFFFFFFFFFFFFFFFFFFFFF AND DUP2 JUMP JUMPDEST PUSH1 0x2 PUSH1 0x0 CALLER PUSH20 0xFFFFFFFFFFFFFFFFFFFFFFFFFFFFFFFFFFFFFFFF AND PUSH20 0xFFFFFFFFFFFFFFFFFFFFFFFFFFFFFFFFFFFFFFFF AND DUP2 MSTORE PUSH1 0x20 ADD SWAP1 DUP2 MSTORE PUSH1 0x20 ADD PUSH1 0x0 KECCAK256 PUSH1 0x0 SWAP1 SLOAD SWAP1 PUSH2 0x100 EXP SWAP1 DIV PUSH1 0xFF AND PUSH2 0x64D JUMPI PUSH1 0x40 MLOAD PUSH32 0x8C379A000000000000000000000000000000000000000000000000000000000 DUP2 MSTORE PUSH1 0x4 ADD PUSH2 0x644 SWAP1 PUSH2 0x1DFC JUMP JUMPDEST PUSH1 0x40 MLOAD DUP1 SWAP2 SUB SWAP1 REVERT JUMPDEST PUSH1 0x1 PUSH1 0x0 DUP3 PUSH20 0xFFFFFFFFFFFFFFFFFFFFFFFFFFFFFFFFFFFFFFFF AND PUSH20 0xFFFFFFFFFFFFFFFFFFFFFFFFFFFFFFFFFFFFFFFF AND DUP2 MSTORE PUSH1 0x20 ADD SWAP1 DUP2 MSTORE PUSH1 0x20 ADD PUSH1 0x0 KECCAK256 PUSH1 0x0 ADD PUSH1 0x0 SWAP1 SLOAD SWAP1 PUSH2 0x100 EXP SWAP1 DIV PUSH1 0xFF AND ISZERO PUSH2 0x6DD JUMPI PUSH1 0x40 MLOAD PUSH32 0x8C379A000000000000000000000000000000000000000000000000000000000 DUP2 MSTORE PUSH1 0x4 ADD PUSH2 0x6D4 SWAP1 PUSH2 0x1EDC JUMP JUMPDEST PUSH1 0x40 MLOAD DUP1 SWAP2 SUB SWAP1 REVERT JUMPDEST PUSH1 0x0 PUSH1 0x1 PUSH1 0x0 DUP4 PUSH20 0xFFFFFFFFFFFFFFFFFFFFFFFFFFFFFFFFFFFFFFFF AND PUSH20 0xFFFFFFFFFFFFFFFFFFFFFFFFFFFFFFFFFFFFFFFF AND DUP2 MSTORE PUSH1 0x20 ADD SWAP1 DUP2 MSTORE PUSH1 0x20 ADD PUSH1 0x0 KECCAK256 SWAP1 POP PUSH1 0x0 DUP2 PUSH1 0x1 ADD DUP2 SWAP1 SSTORE POP PUSH1 0x1 DUP2 PUSH1 0x0 ADD PUSH1 0x0 PUSH2 0x100 EXP DUP2 SLOAD DUP2 PUSH1 0xFF MUL NOT AND SWAP1 DUP4 ISZERO ISZERO MUL OR SWAP1 SSTORE POP POP POP JUMP JUMPDEST PUSH1 0x2 PUSH1 0x0 CALLER PUSH20 0xFFFFFFFFFFFFFFFFFFFFFFFFFFFFFFFFFFFFFFFF AND PUSH20 0xFFFFFFFFFFFFFFFFFFFFFFFFFFFFFFFFFFFFFFFF AND DUP2 MSTORE PUSH1 0x20 ADD SWAP1 DUP2 MSTORE PUSH1 0x20 ADD PUSH1 0x0 KECCAK256 PUSH1 0x0 SWAP1 SLOAD SWAP1 PUSH2 0x100 EXP SWAP1 DIV PUSH1 0xFF AND PUSH2 0x7D7 JUMPI PUSH1 0x40 MLOAD PUSH32 0x8C379A000000000000000000000000000000000000000000000000000000000 DUP2 MSTORE PUSH1 0x4 ADD PUSH2 0x7CE SWAP1 PUSH2 0x1DFC JUMP JUMPDEST PUSH1 0x40 MLOAD DUP1 SWAP2 SUB SWAP1 REVERT JUMPDEST PUSH1 0x0 PUSH1 0x1 PUSH1 0x0 DUP5 PUSH20 0xFFFFFFFFFFFFFFFFFFFFFFFFFFFFFFFFFFFFFFFF AND PUSH20 0xFFFFFFFFFFFFFFFFFFFFFFFFFFFFFFFFFFFFFFFF AND DUP2 MSTORE PUSH1 0x20 ADD SWAP1 DUP2 MSTORE PUSH1 0x20 ADD PUSH1 0x0 KECCAK256 SWAP1 POP PUSH1 0x0 DUP3 GT DUP1 ISZERO PUSH2 0x831 JUMPI POP DUP1 PUSH1 0x3 ADD DUP1 SLOAD SWAP1 POP DUP3 GT ISZERO JUMPDEST PUSH2 0x870 JUMPI PUSH1 0x40 MLOAD PUSH32 0x8C379A000000000000000000000000000000000000000000000000000000000 DUP2 MSTORE PUSH1 0x4 ADD PUSH2 0x867 SWAP1 PUSH2 0x1EFC JUMP JUMPDEST PUSH1 0x40 MLOAD DUP1 SWAP2 SUB SWAP1 REVERT JUMPDEST PUSH1 0x0 DUP2 PUSH1 0x2 ADD PUSH1 0x0 DUP5 DUP2 MSTORE PUSH1 0x20 ADD SWAP1 DUP2 MSTORE PUSH1 0x20 ADD PUSH1 0x0 KECCAK256 SWAP1 POP DUP1 PUSH1 0x6 ADD PUSH1 0x0 SWAP1 SLOAD SWAP1 PUSH2 0x100 EXP SWAP1 DIV PUSH1 0xFF AND PUSH2 0x8DA JUMPI PUSH1 0x40 MLOAD PUSH32 0x8C379A000000000000000000000000000000000000000000000000000000000 DUP2 MSTORE PUSH1 0x4 ADD PUSH2 0x8D1 SWAP1 PUSH2 0x1F1C JUMP JUMPDEST PUSH1 0x40 MLOAD DUP1 SWAP2 SUB SWAP1 REVERT JUMPDEST DUP1 PUSH1 0x6 ADD PUSH1 0x1 SWAP1 SLOAD SWAP1 PUSH2 0x100 EXP SWAP1 DIV PUSH1 0xFF AND ISZERO PUSH2 0x92C JUMPI PUSH1 0x40 MLOAD PUSH32 0x8C379A000000000000000000000000000000000000000000000000000000000 DUP2 MSTORE PUSH1 0x4 ADD PUSH2 0x923 SWAP1 PUSH2 0x1D5C JUMP JUMPDEST PUSH1 0x40 MLOAD DUP1 SWAP2 SUB SWAP1 REVERT JUMPDEST DUP1 PUSH1 0x6 ADD PUSH1 0x2 SWAP1 SLOAD SWAP1 PUSH2 0x100 EXP SWAP1 DIV PUSH1 0xFF AND ISZERO PUSH2 0x97E JUMPI PUSH1 0x40 MLOAD PUSH32 0x8C379A000000000000000000000000000000000000000000000000000000000 DUP2 MSTORE PUSH1 0x4 ADD PUSH2 0x975 SWAP1 PUSH2 0x1E5C JUMP JUMPDEST PUSH1 0x40 MLOAD DUP1 SWAP2 SUB SWAP1 REVERT JUMPDEST TIMESTAMP DUP2 PUSH1 0x5 ADD SLOAD LT PUSH2 0x9C4 JUMPI PUSH1 0x40 MLOAD PUSH32 0x8C379A000000000000000000000000000000000000000000000000000000000 DUP2 MSTORE PUSH1 0x4 ADD PUSH2 0x9BB SWAP1 PUSH2 0x1D9C JUMP JUMPDEST PUSH1 0x40 MLOAD DUP1 SWAP2 SUB SWAP1 REVERT JUMPDEST PUSH1 0x0 DUP1 SLOAD SWAP1 PUSH2 0x100 EXP SWAP1 DIV PUSH20 0xFFFFFFFFFFFFFFFFFFFFFFFFFFFFFFFFFFFFFFFF AND PUSH20 0xFFFFFFFFFFFFFFFFFFFFFFFFFFFFFFFFFFFFFFFF AND PUSH2 0x8FC DUP3 PUSH1 0x2 ADD SLOAD SWAP1 DUP2 ISZERO MUL SWAP1 PUSH1 0x40 MLOAD PUSH1 0x0 PUSH1 0x40 MLOAD DUP1 DUP4 SUB DUP2 DUP6 DUP9 DUP9 CALL SWAP4 POP POP POP POP ISZERO DUP1 ISZERO PUSH2 0xA2E JUMPI RETURNDATASIZE PUSH1 0x0 DUP1 RETURNDATACOPY RETURNDATASIZE PUSH1 0x0 REVERT JUMPDEST POP PUSH1 0x1 DUP2 PUSH1 0x6 ADD PUSH1 0x2 PUSH2 0x100 EXP DUP2 SLOAD DUP2 PUSH1 0xFF MUL NOT AND SWAP1 DUP4 ISZERO ISZERO MUL OR SWAP1 SSTORE POP DUP1 PUSH1 0x2 ADD SLOAD DUP3 PUSH1 0x1 ADD PUSH1 0x0 DUP3 DUP3 SLOAD PUSH2 0xA64 SWAP2 SWAP1 PUSH2 0x205C JUMP JUMPDEST SWAP3 POP POP DUP2 SWAP1 SSTORE POP DUP4 PUSH20 0xFFFFFFFFFFFFFFFFFFFFFFFFFFFFFFFFFFFFFFFF AND PUSH32 0x20A0B1DC781935BA0BBB6A4CD56D8D1FA7C8C14DE23B10F7E34EC35BF57856F4 DUP3 PUSH1 0x2 ADD SLOAD PUSH1 0x40 MLOAD PUSH2 0xAB5 SWAP2 SWAP1 PUSH2 0x1F78 JUMP JUMPDEST PUSH1 0x40 MLOAD DUP1 SWAP2 SUB SWAP1 LOG2 POP POP POP POP JUMP JUMPDEST PUSH1 0x2 PUSH1 0x0 CALLER PUSH20 0xFFFFFFFFFFFFFFFFFFFFFFFFFFFFFFFFFFFFFFFF AND PUSH20 0xFFFFFFFFFFFFFFFFFFFFFFFFFFFFFFFFFFFFFFFF AND DUP2 MSTORE PUSH1 0x20 ADD SWAP1 DUP2 MSTORE PUSH1 0x20 ADD PUSH1 0x0 KECCAK256 PUSH1 0x0 SWAP1 SLOAD SWAP1 PUSH2 0x100 EXP SWAP1 DIV PUSH1 0xFF AND PUSH2 0xB4F JUMPI PUSH1 0x40 MLOAD PUSH32 0x8C379A000000000000000000000000000000000000000000000000000000000 DUP2 MSTORE PUSH1 0x4 ADD PUSH2 0xB46 SWAP1 PUSH2 0x1DFC JUMP JUMPDEST PUSH1 0x40 MLOAD DUP1 SWAP2 SUB SWAP1 REVERT JUMPDEST PUSH1 0x0 PUSH1 0x1 PUSH1 0x0 DUP5 PUSH20 0xFFFFFFFFFFFFFFFFFFFFFFFFFFFFFFFFFFFFFFFF AND PUSH20 0xFFFFFFFFFFFFFFFFFFFFFFFFFFFFFFFFFFFFFFFF AND DUP2 MSTORE PUSH1 0x20 ADD SWAP1 DUP2 MSTORE PUSH1 0x20 ADD PUSH1 0x0 KECCAK256 SWAP1 POP PUSH1 0x0 DUP3 GT DUP1 ISZERO PUSH2 0xBA9 JUMPI POP DUP1 PUSH1 0x3 ADD DUP1 SLOAD SWAP1 POP DUP3 GT ISZERO JUMPDEST PUSH2 0xBE8 JUMPI PUSH1 0x40 MLOAD PUSH32 0x8C379A000000000000000000000000000000000000000000000000000000000 DUP2 MSTORE PUSH1 0x4 ADD PUSH2 0xBDF SWAP1 PUSH2 0x1EFC JUMP JUMPDEST PUSH1 0x40 MLOAD DUP1 SWAP2 SUB SWAP1 REVERT JUMPDEST PUSH1 0x0 DUP2 PUSH1 0x2 ADD PUSH1 0x0 DUP5 DUP2 MSTORE PUSH1 0x20 ADD SWAP1 DUP2 MSTORE PUSH1 0x20 ADD PUSH1 0x0 KECCAK256 SWAP1 POP DUP1 PUSH1 0x6 ADD PUSH1 0x0 SWAP1 SLOAD SWAP1 PUSH2 0x100 EXP SWAP1 DIV PUSH1 0xFF AND ISZERO PUSH2 0xC53 JUMPI PUSH1 0x40 MLOAD PUSH32 0x8C379A000000000000000000000000000000000000000000000000000000000 DUP2 MSTORE PUSH1 0x4 ADD PUSH2 0xC4A SWAP1 PUSH2 0x1E1C JUMP JUMPDEST PUSH1 0x40 MLOAD DUP1 SWAP2 SUB SWAP1 REVERT JUMPDEST DUP1 PUSH1 0x6 ADD PUSH1 0x1 SWAP1 SLOAD SWAP1 PUSH2 0x100 EXP SWAP1 DIV PUSH1 0xFF AND ISZERO PUSH2 0xCA5 JUMPI PUSH1 0x40 MLOAD PUSH32 0x8C379A000000000000000000000000000000000000000000000000000000000 DUP2 MSTORE PUSH1 0x4 ADD PUSH2 0xC9C SWAP1 PUSH2 0x1D5C JUMP JUMPDEST PUSH1 0x40 MLOAD DUP1 SWAP2 SUB SWAP1 REVERT JUMPDEST DUP1 PUSH1 0x6 ADD PUSH1 0x2 SWAP1 SLOAD SWAP1 PUSH2 0x100 EXP SWAP1 DIV PUSH1 0xFF AND ISZERO PUSH2 0xCF7 JUMPI PUSH1 0x40 MLOAD PUSH32 0x8C379A000000000000000000000000000000000000000000000000000000000 DUP2 MSTORE PUSH1 0x4 ADD PUSH2 0xCEE SWAP1 PUSH2 0x1E5C JUMP JUMPDEST PUSH1 0x40 MLOAD DUP1 SWAP2 SUB SWAP1 REVERT JUMPDEST PUSH1 0x1 DUP2 PUSH1 0x6 ADD PUSH1 0x0 PUSH2 0x100 EXP DUP2 SLOAD DUP2 PUSH1 0xFF MUL NOT AND SWAP1 DUP4 ISZERO ISZERO MUL OR SWAP1 SSTORE POP DUP1 PUSH1 0x3 ADD SLOAD TIMESTAMP PUSH2 0xD24 SWAP2 SWAP1 PUSH2 0x2006 JUMP JUMPDEST DUP2 PUSH1 0x5 ADD DUP2 SWAP1 SSTORE POP DUP4 PUSH20 0xFFFFFFFFFFFFFFFFFFFFFFFFFFFFFFFFFFFFFFFF AND PUSH32 0x445AF7B4D2A198A6605FAA46D0D2D39ABC590CC71F27C8E3F413078291FB77C0 DUP3 PUSH1 0x2 ADD SLOAD DUP4 PUSH1 0x5 ADD SLOAD PUSH1 0x40 MLOAD PUSH2 0xD7C SWAP3 SWAP2 SWAP1 PUSH2 0x1F93 JUMP JUMPDEST PUSH1 0x40 MLOAD DUP1 SWAP2 SUB SWAP1 LOG2 POP POP POP POP JUMP JUMPDEST PUSH2 0xD92 PUSH2 0x15D9 JUMP JUMPDEST PUSH1 0x1 PUSH1 0x0 DUP5 PUSH20 0xFFFFFFFFFFFFFFFFFFFFFFFFFFFFFFFFFFFFFFFF AND PUSH20 0xFFFFFFFFFFFFFFFFFFFFFFFFFFFFFFFFFFFFFFFF AND DUP2 MSTORE PUSH1 0x20 ADD SWAP1 DUP2 MSTORE PUSH1 0x20 ADD PUSH1 0x0 KECCAK256 PUSH1 0x2 ADD PUSH1 0x0 DUP4 DUP2 MSTORE PUSH1 0x20 ADD SWAP1 DUP2 MSTORE PUSH1 0x20 ADD PUSH1 0x0 KECCAK256 PUSH1 0x40 MLOAD DUP1 PUSH2 0x120 ADD PUSH1 0x40 MSTORE SWAP1 DUP2 PUSH1 0x0 DUP3 ADD SLOAD DUP2 MSTORE PUSH1 0x20 ADD PUSH1 0x1 DUP3 ADD PUSH1 0x0 SWAP1 SLOAD SWAP1 PUSH2 0x100 EXP SWAP1 DIV PUSH20 0xFFFFFFFFFFFFFFFFFFFFFFFFFFFFFFFFFFFFFFFF AND PUSH20 0xFFFFFFFFFFFFFFFFFFFFFFFFFFFFFFFFFFFFFFFF AND PUSH20 0xFFFFFFFFFFFFFFFFFFFFFFFFFFFFFFFFFFFFFFFF AND DUP2 MSTORE PUSH1 0x20 ADD PUSH1 0x2 DUP3 ADD SLOAD DUP2 MSTORE PUSH1 0x20 ADD PUSH1 0x3 DUP3 ADD SLOAD DUP2 MSTORE PUSH1 0x20 ADD PUSH1 0x4 DUP3 ADD SLOAD DUP2 MSTORE PUSH1 0x20 ADD PUSH1 0x5 DUP3 ADD SLOAD DUP2 MSTORE PUSH1 0x20 ADD PUSH1 0x6 DUP3 ADD PUSH1 0x0 SWAP1 SLOAD SWAP1 PUSH2 0x100 EXP SWAP1 DIV PUSH1 0xFF AND ISZERO ISZERO ISZERO ISZERO DUP2 MSTORE PUSH1 0x20 ADD PUSH1 0x6 DUP3 ADD PUSH1 0x1 SWAP1 SLOAD SWAP1 PUSH2 0x100 EXP SWAP1 DIV PUSH1 0xFF AND ISZERO ISZERO ISZERO ISZERO DUP2 MSTORE PUSH1 0x20 ADD PUSH1 0x6 DUP3 ADD PUSH1 0x2 SWAP1 SLOAD SWAP1 PUSH2 0x100 EXP SWAP1 DIV PUSH1 0xFF AND ISZERO ISZERO ISZERO ISZERO DUP2 MSTORE POP POP SWAP1 POP SWAP3 SWAP2 POP POP JUMP JUMPDEST PUSH1 0x0 DUP1 SLOAD SWAP1 PUSH2 0x100 EXP SWAP1 DIV PUSH20 0xFFFFFFFFFFFFFFFFFFFFFFFFFFFFFFFFFFFFFFFF AND PUSH20 0xFFFFFFFFFFFFFFFFFFFFFFFFFFFFFFFFFFFFFFFF AND CALLER PUSH20 0xFFFFFFFFFFFFFFFFFFFFFFFFFFFFFFFFFFFFFFFF AND EQ PUSH2 0xF60 JUMPI PUSH1 0x40 MLOAD PUSH32 0x8C379A000000000000000000000000000000000000000000000000000000000 DUP2 MSTORE PUSH1 0x4 ADD PUSH2 0xF57 SWAP1 PUSH2 0x1E7C JUMP JUMPDEST PUSH1 0x40 MLOAD DUP1 SWAP2 SUB SWAP1 REVERT JUMPDEST PUSH1 0x2 PUSH1 0x0 DUP3 PUSH20 0xFFFFFFFFFFFFFFFFFFFFFFFFFFFFFFFFFFFFFFFF AND PUSH20 0xFFFFFFFFFFFFFFFFFFFFFFFFFFFFFFFFFFFFFFFF AND DUP2 MSTORE PUSH1 0x20 ADD SWAP1 DUP2 MSTORE PUSH1 0x20 ADD PUSH1 0x0 KECCAK256 PUSH1 0x0 SWAP1 SLOAD SWAP1 PUSH2 0x100 EXP SWAP1 DIV PUSH1 0xFF AND ISZERO PUSH2 0xFED JUMPI PUSH1 0x40 MLOAD PUSH32 0x8C379A000000000000000000000000000000000000000000000000000000000 DUP2 MSTORE PUSH1 0x4 ADD PUSH2 0xFE4 SWAP1 PUSH2 0x1E3C JUMP JUMPDEST PUSH1 0x40 MLOAD DUP1 SWAP2 SUB SWAP1 REVERT JUMPDEST PUSH1 0x1 PUSH1 0x2 PUSH1 0x0 DUP4 PUSH20 0xFFFFFFFFFFFFFFFFFFFFFFFFFFFFFFFFFFFFFFFF AND PUSH20 0xFFFFFFFFFFFFFFFFFFFFFFFFFFFFFFFFFFFFFFFF AND DUP2 MSTORE PUSH1 0x20 ADD SWAP1 DUP2 MSTORE PUSH1 0x20 ADD PUSH1 0x0 KECCAK256 PUSH1 0x0 PUSH2 0x100 EXP DUP2 SLOAD DUP2 PUSH1 0xFF MUL NOT AND SWAP1 DUP4 ISZERO ISZERO MUL OR SWAP1 SSTORE POP POP JUMP JUMPDEST PUSH1 0x60 PUSH1 0x1 PUSH1 0x0 DUP4 PUSH20 0xFFFFFFFFFFFFFFFFFFFFFFFFFFFFFFFFFFFFFFFF AND PUSH20 0xFFFFFFFFFFFFFFFFFFFFFFFFFFFFFFFFFFFFFFFF AND DUP2 MSTORE PUSH1 0x20 ADD SWAP1 DUP2 MSTORE PUSH1 0x20 ADD PUSH1 0x0 KECCAK256 PUSH1 0x3 ADD DUP1 SLOAD DUP1 PUSH1 0x20 MUL PUSH1 0x20 ADD PUSH1 0x40 MLOAD SWAP1 DUP2 ADD PUSH1 0x40 MSTORE DUP1 SWAP3 SWAP2 SWAP1 DUP2 DUP2 MSTORE PUSH1 0x20 ADD DUP3 DUP1 SLOAD DUP1 ISZERO PUSH2 0x10D6 JUMPI PUSH1 0x20 MUL DUP3 ADD SWAP2 SWAP1 PUSH1 0x0 MSTORE PUSH1 0x20 PUSH1 0x0 KECCAK256 SWAP1 JUMPDEST DUP2 SLOAD DUP2 MSTORE PUSH1 0x20 ADD SWAP1 PUSH1 0x1 ADD SWAP1 DUP1 DUP4 GT PUSH2 0x10C2 JUMPI JUMPDEST POP POP POP POP POP SWAP1 POP SWAP2 SWAP1 POP JUMP JUMPDEST PUSH1 0x1 PUSH1 0x0 CALLER PUSH20 0xFFFFFFFFFFFFFFFFFFFFFFFFFFFFFFFFFFFFFFFF AND PUSH20 0xFFFFFFFFFFFFFFFFFFFFFFFFFFFFFFFFFFFFFFFF AND DUP2 MSTORE PUSH1 0x20 ADD SWAP1 DUP2 MSTORE PUSH1 0x20 ADD PUSH1 0x0 KECCAK256 PUSH1 0x0 ADD PUSH1 0x0 SWAP1 SLOAD SWAP1 PUSH2 0x100 EXP SWAP1 DIV PUSH1 0xFF AND PUSH2 0x1171 JUMPI PUSH1 0x40 MLOAD PUSH32 0x8C379A000000000000000000000000000000000000000000000000000000000 DUP2 MSTORE PUSH1 0x4 ADD PUSH2 0x1168 SWAP1 PUSH2 0x1DDC JUMP JUMPDEST PUSH1 0x40 MLOAD DUP1 SWAP2 SUB SWAP1 REVERT JUMPDEST PUSH1 0x0 PUSH1 0x1 PUSH1 0x0 CALLER PUSH20 0xFFFFFFFFFFFFFFFFFFFFFFFFFFFFFFFFFFFFFFFF AND PUSH20 0xFFFFFFFFFFFFFFFFFFFFFFFFFFFFFFFFFFFFFFFF AND DUP2 MSTORE PUSH1 0x20 ADD SWAP1 DUP2 MSTORE PUSH1 0x20 ADD PUSH1 0x0 KECCAK256 SWAP1 POP PUSH1 0x0 DUP3 GT DUP1 ISZERO PUSH2 0x11CB JUMPI POP DUP1 PUSH1 0x3 ADD DUP1 SLOAD SWAP1 POP DUP3 GT ISZERO JUMPDEST PUSH2 0x120A JUMPI PUSH1 0x40 MLOAD PUSH32 0x8C379A000000000000000000000000000000000000000000000000000000000 DUP2 MSTORE PUSH1 0x4 ADD PUSH2 0x1201 SWAP1 PUSH2 0x1EFC JUMP JUMPDEST PUSH1 0x40 MLOAD DUP1 SWAP2 SUB SWAP1 REVERT JUMPDEST PUSH1 0x0 DUP2 PUSH1 0x2 ADD PUSH1 0x0 DUP5 DUP2 MSTORE PUSH1 0x20 ADD SWAP1 DUP2 MSTORE PUSH1 0x20 ADD PUSH1 0x0 KECCAK256 SWAP1 POP CALLER PUSH20 0xFFFFFFFFFFFFFFFFFFFFFFFFFFFFFFFFFFFFFFFF AND DUP2 PUSH1 0x1 ADD PUSH1 0x0 SWAP1 SLOAD SWAP1 PUSH2 0x100 EXP SWAP1 DIV PUSH20 0xFFFFFFFFFFFFFFFFFFFFFFFFFFFFFFFFFFFFFFFF AND PUSH20 0xFFFFFFFFFFFFFFFFFFFFFFFFFFFFFFFFFFFFFFFF AND EQ PUSH2 0x12B5 JUMPI PUSH1 0x40 MLOAD PUSH32 0x8C379A000000000000000000000000000000000000000000000000000000000 DUP2 MSTORE PUSH1 0x4 ADD PUSH2 0x12AC SWAP1 PUSH2 0x1F3C JUMP JUMPDEST PUSH1 0x40 MLOAD DUP1 SWAP2 SUB SWAP1 REVERT JUMPDEST DUP1 PUSH1 0x6 ADD PUSH1 0x0 SWAP1 SLOAD SWAP1 PUSH2 0x100 EXP SWAP1 DIV PUSH1 0xFF AND PUSH2 0x1306 JUMPI PUSH1 0x40 MLOAD PUSH32 0x8C379A000000000000000000000000000000000000000000000000000000000 DUP2 MSTORE PUSH1 0x4 ADD PUSH2 0x12FD SWAP1 PUSH2 0x1F1C JUMP JUMPDEST PUSH1 0x40 MLOAD DUP1 SWAP2 SUB SWAP1 REVERT JUMPDEST DUP1 PUSH1 0x6 ADD PUSH1 0x1 SWAP1 SLOAD SWAP1 PUSH2 0x100 EXP SWAP1 DIV PUSH1 0xFF AND ISZERO PUSH2 0x1358 JUMPI PUSH1 0x40 MLOAD PUSH32 0x8C379A000000000000000000000000000000000000000000000000000000000 DUP2 MSTORE PUSH1 0x4 ADD PUSH2 0x134F SWAP1 PUSH2 0x1D7C JUMP JUMPDEST PUSH1 0x40 MLOAD DUP1 SWAP2 SUB SWAP1 REVERT JUMPDEST DUP1 PUSH1 0x6 ADD PUSH1 0x2 SWAP1 SLOAD SWAP1 PUSH2 0x100 EXP SWAP1 DIV PUSH1 0xFF AND ISZERO PUSH2 0x13AA JUMPI PUSH1 0x40 MLOAD PUSH32 0x8C379A000000000000000000000000000000000000000000000000000000000 DUP2 MSTORE PUSH1 0x4 ADD PUSH2 0x13A1 SWAP1 PUSH2 0x1E9C JUMP JUMPDEST PUSH1 0x40 MLOAD DUP1 SWAP2 SUB SWAP1 REVERT JUMPDEST TIMESTAMP DUP2 PUSH1 0x5 ADD SLOAD LT ISZERO PUSH2 0x13F1 JUMPI PUSH1 0x40 MLOAD PUSH32 0x8C379A000000000000000000000000000000000000000000000000000000000 DUP2 MSTORE PUSH1 0x4 ADD PUSH2 0x13E8 SWAP1 PUSH2 0x1DBC JUMP JUMPDEST PUSH1 0x40 MLOAD DUP1 SWAP2 SUB SWAP1 REVERT JUMPDEST PUSH1 0x0 DUP1 SLOAD SWAP1 PUSH2 0x100 EXP SWAP1 DIV PUSH20 0xFFFFFFFFFFFFFFFFFFFFFFFFFFFFFFFFFFFFFFFF AND PUSH20 0xFFFFFFFFFFFFFFFFFFFFFFFFFFFFFFFFFFFFFFFF AND PUSH2 0x8FC DUP3 PUSH1 0x2 ADD SLOAD SWAP1 DUP2 ISZERO MUL SWAP1 PUSH1 0x40 MLOAD PUSH1 0x0 PUSH1 0x40 MLOAD DUP1 DUP4 SUB DUP2 DUP6 DUP9 DUP9 CALL SWAP4 POP POP POP POP ISZERO DUP1 ISZERO PUSH2 0x145B JUMPI RETURNDATASIZE PUSH1 0x0 DUP1 RETURNDATACOPY RETURNDATASIZE PUSH1 0x0 REVERT JUMPDEST POP PUSH1 0x1 DUP2 PUSH1 0x6 ADD PUSH1 0x1 PUSH2 0x100 EXP DUP2 SLOAD DUP2 PUSH1 0xFF MUL NOT AND SWAP1 DUP4 ISZERO ISZERO MUL OR SWAP1 SSTORE POP DUP1 PUSH1 0x2 ADD SLOAD DUP3 PUSH1 0x1 ADD PUSH1 0x0 DUP3 DUP3 SLOAD PUSH2 0x1491 SWAP2 SWAP1 PUSH2 0x205C JUMP JUMPDEST SWAP3 POP POP DUP2 SWAP1 SSTORE POP CALLER PUSH20 0xFFFFFFFFFFFFFFFFFFFFFFFFFFFFFFFFFFFFFFFF AND PUSH32 0xCAFE7262442382B92DBCF9D83F09D266BE4EB5AF9CF783BC0A28EAB4015DEFD8 DUP3 PUSH1 0x2 ADD SLOAD PUSH1 0x40 MLOAD PUSH2 0x14E2 SWAP2 SWAP1 PUSH2 0x1F78 JUMP JUMPDEST PUSH1 0x40 MLOAD DUP1 SWAP2 SUB SWAP1 LOG2 POP POP POP JUMP JUMPDEST PUSH1 0x1 PUSH1 0x0 CALLER PUSH20 0xFFFFFFFFFFFFFFFFFFFFFFFFFFFFFFFFFFFFFFFF AND PUSH20 0xFFFFFFFFFFFFFFFFFFFFFFFFFFFFFFFFFFFFFFFF AND DUP2 MSTORE PUSH1 0x20 ADD SWAP1 DUP2 MSTORE PUSH1 0x20 ADD PUSH1 0x0 KECCAK256 PUSH1 0x0 ADD PUSH1 0x0 SWAP1 SLOAD SWAP1 PUSH2 0x100 EXP SWAP1 DIV PUSH1 0xFF AND PUSH2 0x157E JUMPI PUSH1 0x40 MLOAD PUSH32 0x8C379A000000000000000000000000000000000000000000000000000000000 DUP2 MSTORE PUSH1 0x4 ADD PUSH2 0x1575 SWAP1 PUSH2 0x1DDC JUMP JUMPDEST PUSH1 0x40 MLOAD DUP1 SWAP2 SUB SWAP1 REVERT JUMPDEST CALLVALUE PUSH1 0x1 PUSH1 0x0 CALLER PUSH20 0xFFFFFFFFFFFFFFFFFFFFFFFFFFFFFFFFFFFFFFFF AND PUSH20 0xFFFFFFFFFFFFFFFFFFFFFFFFFFFFFFFFFFFFFFFF AND DUP2 MSTORE PUSH1 0x20 ADD SWAP1 DUP2 MSTORE PUSH1 0x20 ADD PUSH1 0x0 KECCAK256 PUSH1 0x1 ADD PUSH1 0x0 DUP3 DUP3 SLOAD PUSH2 0x15D0 SWAP2 SWAP1 PUSH2 0x2006 JUMP JUMPDEST SWAP3 POP POP DUP2 SWAP1 SSTORE POP JUMP JUMPDEST PUSH1 0x40 MLOAD DUP1 PUSH2 0x120 ADD PUSH1 0x40 MSTORE DUP1 PUSH1 0x0 DUP2 MSTORE PUSH1 0x20 ADD PUSH1 0x0 PUSH20 0xFFFFFFFFFFFFFFFFFFFFFFFFFFFFFFFFFFFFFFFF AND DUP2 MSTORE PUSH1 0x20 ADD PUSH1 0x0 DUP2 MSTORE PUSH1 0x20 ADD PUSH1 0x0 DUP2 MSTORE PUSH1 0x20 ADD PUSH1 0x0 DUP2 MSTORE PUSH1 0x20 ADD PUSH1 0x0 DUP2 MSTORE PUSH1 0x20 ADD PUSH1 0x0 ISZERO ISZERO DUP2 MSTORE PUSH1 0x20 ADD PUSH1 0x0 ISZERO ISZERO DUP2 MSTORE PUSH1 0x20 ADD PUSH1 0x0 ISZERO ISZERO DUP2 MSTORE POP SWAP1 JUMP JUMPDEST PUSH1 0x0 DUP2 CALLDATALOAD SWAP1 POP PUSH2 0x1650 DUP2 PUSH2 0x2119 JUMP JUMPDEST SWAP3 SWAP2 POP POP JUMP JUMPDEST PUSH1 0x0 DUP2 CALLDATALOAD SWAP1 POP PUSH2 0x1665 DUP2 PUSH2 0x2130 JUMP JUMPDEST SWAP3 SWAP2 POP POP JUMP JUMPDEST PUSH1 0x0 PUSH1 0x20 DUP3 DUP5 SUB SLT ISZERO PUSH2 0x167D JUMPI PUSH1 0x0 DUP1 REVERT JUMPDEST PUSH1 0x0 PUSH2 0x168B DUP5 DUP3 DUP6 ADD PUSH2 0x1641 JUMP JUMPDEST SWAP2 POP POP SWAP3 SWAP2 POP POP JUMP JUMPDEST PUSH1 0x0 DUP1 PUSH1 0x40 DUP4 DUP6 SUB SLT ISZERO PUSH2 0x16A7 JUMPI PUSH1 0x0 DUP1 REVERT JUMPDEST PUSH1 0x0 PUSH2 0x16B5 DUP6 DUP3 DUP7 ADD PUSH2 0x1641 JUMP JUMPDEST SWAP3 POP POP PUSH1 0x20 PUSH2 0x16C6 DUP6 DUP3 DUP7 ADD PUSH2 0x1656 JUMP JUMPDEST SWAP2 POP POP SWAP3 POP SWAP3 SWAP1 POP JUMP JUMPDEST PUSH1 0x0 PUSH1 0x20 DUP3 DUP5 SUB SLT ISZERO PUSH2 0x16E2 JUMPI PUSH1 0x0 DUP1 REVERT JUMPDEST PUSH1 0x0 PUSH2 0x16F0 DUP5 DUP3 DUP6 ADD PUSH2 0x1656 JUMP JUMPDEST SWAP2 POP POP SWAP3 SWAP2 POP POP JUMP JUMPDEST PUSH1 0x0 DUP1 PUSH1 0x40 DUP4 DUP6 SUB SLT ISZERO PUSH2 0x170C JUMPI PUSH1 0x0 DUP1 REVERT JUMPDEST PUSH1 0x0 PUSH2 0x171A DUP6 DUP3 DUP7 ADD PUSH2 0x1656 JUMP JUMPDEST SWAP3 POP POP PUSH1 0x20 PUSH2 0x172B DUP6 DUP3 DUP7 ADD PUSH2 0x1656 JUMP JUMPDEST SWAP2 POP POP SWAP3 POP SWAP3 SWAP1 POP JUMP JUMPDEST PUSH1 0x0 PUSH2 0x1741 DUP4 DUP4 PUSH2 0x1D01 JUMP JUMPDEST PUSH1 0x20 DUP4 ADD SWAP1 POP SWAP3 SWAP2 POP POP JUMP JUMPDEST PUSH2 0x1756 DUP2 PUSH2 0x20A2 JUMP JUMPDEST DUP3 MSTORE POP POP JUMP JUMPDEST PUSH2 0x1765 DUP2 PUSH2 0x2090 JUMP JUMPDEST DUP3 MSTORE POP POP JUMP JUMPDEST PUSH1 0x0 PUSH2 0x1776 DUP3 PUSH2 0x1FCC JUMP JUMPDEST PUSH2 0x1780 DUP2 DUP6 PUSH2 0x1FE4 JUMP JUMPDEST SWAP4 POP PUSH2 0x178B DUP4 PUSH2 0x1FBC JUMP JUMPDEST DUP1 PUSH1 0x0 JUMPDEST DUP4 DUP2 LT ISZERO PUSH2 0x17BC JUMPI DUP2 MLOAD PUSH2 0x17A3 DUP9 DUP3 PUSH2 0x1735 JUMP JUMPDEST SWAP8 POP PUSH2 0x17AE DUP4 PUSH2 0x1FD7 JUMP JUMPDEST SWAP3 POP POP PUSH1 0x1 DUP2 ADD SWAP1 POP PUSH2 0x178F JUMP JUMPDEST POP DUP6 SWAP4 POP POP POP POP SWAP3 SWAP2 POP POP JUMP JUMPDEST PUSH2 0x17D2 DUP2 PUSH2 0x20B4 JUMP JUMPDEST DUP3 MSTORE POP POP JUMP JUMPDEST PUSH1 0x0 PUSH2 0x17E5 PUSH1 0x1E DUP4 PUSH2 0x1FF5 JUMP JUMPDEST SWAP2 POP PUSH32 0x456C207072657374616D6F20796120667565207265656D626F6C7361646F0000 PUSH1 0x0 DUP4 ADD MSTORE PUSH1 0x20 DUP3 ADD SWAP1 POP SWAP2 SWAP1 POP JUMP JUMPDEST PUSH1 0x0 PUSH2 0x1825 PUSH1 0x1F DUP4 PUSH2 0x1FF5 JUMP JUMPDEST SWAP2 POP PUSH32 0x456C207072657374616D6F2079612065737461207265656D626F6C7361646F00 PUSH1 0x0 DUP4 ADD MSTORE PUSH1 0x20 DUP3 ADD SWAP1 POP SWAP2 SWAP1 POP JUMP JUMPDEST PUSH1 0x0 PUSH2 0x1865 PUSH1 0x1E DUP4 PUSH2 0x1FF5 JUMP JUMPDEST SWAP2 POP PUSH32 0x456C207469656D706F206C696D697465206E6F2068612076656E6369646F0000 PUSH1 0x0 DUP4 ADD MSTORE PUSH1 0x20 DUP3 ADD SWAP1 POP SWAP2 SWAP1 POP JUMP JUMPDEST PUSH1 0x0 PUSH2 0x18A5 PUSH1 0x1B DUP4 PUSH2 0x1FF5 JUMP JUMPDEST SWAP2 POP PUSH32 0x456C207469656D706F206C696D6974652068612076656E6369646F0000000000 PUSH1 0x0 DUP4 ADD MSTORE PUSH1 0x20 DUP3 ADD SWAP1 POP SWAP2 SWAP1 POP JUMP JUMPDEST PUSH1 0x0 PUSH2 0x18E5 PUSH1 0x17 DUP4 PUSH2 0x1FF5 JUMP JUMPDEST SWAP2 POP PUSH32 0x4E6F20657320756E20636C69656E74652061637469766F000000000000000000 PUSH1 0x0 DUP4 ADD MSTORE PUSH1 0x20 DUP3 ADD SWAP1 POP SWAP2 SWAP1 POP JUMP JUMPDEST PUSH1 0x0 PUSH2 0x1925 PUSH1 0xE DUP4 PUSH2 0x1FF5 JUMP JUMPDEST SWAP2 POP PUSH32 0x4E6F20657320656D706C6561646F000000000000000000000000000000000000 PUSH1 0x0 DUP4 ADD MSTORE PUSH1 0x20 DUP3 ADD SWAP1 POP SWAP2 SWAP1 POP JUMP JUMPDEST PUSH1 0x0 PUSH2 0x1965 PUSH1 0x1B DUP4 PUSH2 0x1FF5 JUMP JUMPDEST SWAP2 POP PUSH32 0x456C207072657374616D6F20796120667565206170726F6261646F0000000000 PUSH1 0x0 DUP4 ADD MSTORE PUSH1 0x20 DUP3 ADD SWAP1 POP SWAP2 SWAP1 POP JUMP JUMPDEST PUSH1 0x0 PUSH2 0x19A5 PUSH1 0x23 DUP4 PUSH2 0x1FF5 JUMP JUMPDEST SWAP2 POP PUSH32 0x456C207072657374616D697374612079612065737461206461646F2064652061 PUSH1 0x0 DUP4 ADD MSTORE PUSH32 0x6C74610000000000000000000000000000000000000000000000000000000000 PUSH1 0x20 DUP4 ADD MSTORE PUSH1 0x40 DUP3 ADD SWAP1 POP SWAP2 SWAP1 POP JUMP JUMPDEST PUSH1 0x0 PUSH2 0x1A0B PUSH1 0x1C DUP4 PUSH2 0x1FF5 JUMP JUMPDEST SWAP2 POP PUSH32 0x456C207072657374616D6F20796120667565206C697175696461646F00000000 PUSH1 0x0 DUP4 ADD MSTORE PUSH1 0x20 DUP3 ADD SWAP1 POP SWAP2 SWAP1 POP JUMP JUMPDEST PUSH1 0x0 PUSH2 0x1A4B PUSH1 0x2B DUP4 PUSH2 0x1FF5 JUMP JUMPDEST SWAP2 POP PUSH32 0x4E6F20706F736565207065726D69736F73207061726120656A65637574617220 PUSH1 0x0 DUP4 ADD MSTORE PUSH32 0x6573746120616363696F6E000000000000000000000000000000000000000000 PUSH1 0x20 DUP4 ADD MSTORE PUSH1 0x40 DUP3 ADD SWAP1 POP SWAP2 SWAP1 POP JUMP JUMPDEST PUSH1 0x0 PUSH2 0x1AB1 PUSH1 0x1A DUP4 PUSH2 0x1FF5 JUMP JUMPDEST SWAP2 POP PUSH32 0x456C207072657374616D6F2065737461206C697175696461646F000000000000 PUSH1 0x0 DUP4 ADD MSTORE PUSH1 0x20 DUP3 ADD SWAP1 POP SWAP2 SWAP1 POP JUMP JUMPDEST PUSH1 0x0 PUSH2 0x1AF1 PUSH1 0x1E DUP4 PUSH2 0x1FF5 JUMP JUMPDEST SWAP2 POP PUSH32 0x53616C646F20646520676172616E74696120696E737566696369656E74650000 PUSH1 0x0 DUP4 ADD MSTORE PUSH1 0x20 DUP3 ADD SWAP1 POP SWAP2 SWAP1 POP JUMP JUMPDEST PUSH1 0x0 PUSH2 0x1B31 PUSH1 0x1F DUP4 PUSH2 0x1FF5 JUMP JUMPDEST SWAP2 POP PUSH32 0x456C20636C69656E74652079612065737461206461646F20646520616C746100 PUSH1 0x0 DUP4 ADD MSTORE PUSH1 0x20 DUP3 ADD SWAP1 POP SWAP2 SWAP1 POP JUMP JUMPDEST PUSH1 0x0 PUSH2 0x1B71 PUSH1 0x18 DUP4 PUSH2 0x1FF5 JUMP JUMPDEST SWAP2 POP PUSH32 0x4964206465207072657374616D6F206E6F2076616C69646F0000000000000000 PUSH1 0x0 DUP4 ADD MSTORE PUSH1 0x20 DUP3 ADD SWAP1 POP SWAP2 SWAP1 POP JUMP JUMPDEST PUSH1 0x0 PUSH2 0x1BB1 PUSH1 0x1C DUP4 PUSH2 0x1FF5 JUMP JUMPDEST SWAP2 POP PUSH32 0x456C207072657374616D6F206E6F2065737461206170726F6261646F00000000 PUSH1 0x0 DUP4 ADD MSTORE PUSH1 0x20 DUP3 ADD SWAP1 POP SWAP2 SWAP1 POP JUMP JUMPDEST PUSH1 0x0 PUSH2 0x1BF1 PUSH1 0x30 DUP4 PUSH2 0x1FF5 JUMP JUMPDEST SWAP2 POP PUSH32 0x4E6F207469656E6573207065726D69736F732070617261207265656D626F6C73 PUSH1 0x0 DUP4 ADD MSTORE PUSH32 0x61722065737465207072657374616D6F00000000000000000000000000000000 PUSH1 0x20 DUP4 ADD MSTORE PUSH1 0x40 DUP3 ADD SWAP1 POP SWAP2 SWAP1 POP JUMP JUMPDEST PUSH2 0x120 DUP3 ADD PUSH1 0x0 DUP3 ADD MLOAD PUSH2 0x1C61 PUSH1 0x0 DUP6 ADD DUP3 PUSH2 0x1D01 JUMP JUMPDEST POP PUSH1 0x20 DUP3 ADD MLOAD PUSH2 0x1C74 PUSH1 0x20 DUP6 ADD DUP3 PUSH2 0x175C JUMP JUMPDEST POP PUSH1 0x40 DUP3 ADD MLOAD PUSH2 0x1C87 PUSH1 0x40 DUP6 ADD DUP3 PUSH2 0x1D01 JUMP JUMPDEST POP PUSH1 0x60 DUP3 ADD MLOAD PUSH2 0x1C9A PUSH1 0x60 DUP6 ADD DUP3 PUSH2 0x1D01 JUMP JUMPDEST POP PUSH1 0x80 DUP3 ADD MLOAD PUSH2 0x1CAD PUSH1 0x80 DUP6 ADD DUP3 PUSH2 0x1D01 JUMP JUMPDEST POP PUSH1 0xA0 DUP3 ADD MLOAD PUSH2 0x1CC0 PUSH1 0xA0 DUP6 ADD DUP3 PUSH2 0x1D01 JUMP JUMPDEST POP PUSH1 0xC0 DUP3 ADD MLOAD PUSH2 0x1CD3 PUSH1 0xC0 DUP6 ADD DUP3 PUSH2 0x17C9 JUMP JUMPDEST POP PUSH1 0xE0 DUP3 ADD MLOAD PUSH2 0x1CE6 PUSH1 0xE0 DUP6 ADD DUP3 PUSH2 0x17C9 JUMP JUMPDEST POP PUSH2 0x100 DUP3 ADD MLOAD PUSH2 0x1CFB PUSH2 0x100 DUP6 ADD DUP3 PUSH2 0x17C9 JUMP JUMPDEST POP POP POP POP JUMP JUMPDEST PUSH2 0x1D0A DUP2 PUSH2 0x20E0 JUMP JUMPDEST DUP3 MSTORE POP POP JUMP JUMPDEST PUSH2 0x1D19 DUP2 PUSH2 0x20E0 JUMP JUMPDEST DUP3 MSTORE POP POP JUMP JUMPDEST PUSH1 0x0 PUSH1 0x20 DUP3 ADD SWAP1 POP PUSH2 0x1D34 PUSH1 0x0 DUP4 ADD DUP5 PUSH2 0x174D JUMP JUMPDEST SWAP3 SWAP2 POP POP JUMP JUMPDEST PUSH1 0x0 PUSH1 0x20 DUP3 ADD SWAP1 POP DUP2 DUP2 SUB PUSH1 0x0 DUP4 ADD MSTORE PUSH2 0x1D54 DUP2 DUP5 PUSH2 0x176B JUMP JUMPDEST SWAP1 POP SWAP3 SWAP2 POP POP JUMP JUMPDEST PUSH1 0x0 PUSH1 0x20 DUP3 ADD SWAP1 POP DUP2 DUP2 SUB PUSH1 0x0 DUP4 ADD MSTORE PUSH2 0x1D75 DUP2 PUSH2 0x17D8 JUMP JUMPDEST SWAP1 POP SWAP2 SWAP1 POP JUMP JUMPDEST PUSH1 0x0 PUSH1 0x20 DUP3 ADD SWAP1 POP DUP2 DUP2 SUB PUSH1 0x0 DUP4 ADD MSTORE PUSH2 0x1D95 DUP2 PUSH2 0x1818 JUMP JUMPDEST SWAP1 POP SWAP2 SWAP1 POP JUMP JUMPDEST PUSH1 0x0 PUSH1 0x20 DUP3 ADD SWAP1 POP DUP2 DUP2 SUB PUSH1 0x0 DUP4 ADD MSTORE PUSH2 0x1DB5 DUP2 PUSH2 0x1858 JUMP JUMPDEST SWAP1 POP SWAP2 SWAP1 POP JUMP JUMPDEST PUSH1 0x0 PUSH1 0x20 DUP3 ADD SWAP1 POP DUP2 DUP2 SUB PUSH1 0x0 DUP4 ADD MSTORE PUSH2 0x1DD5 DUP2 PUSH2 0x1898 JUMP JUMPDEST SWAP1 POP SWAP2 SWAP1 POP JUMP JUMPDEST PUSH1 0x0 PUSH1 0x20 DUP3 ADD SWAP1 POP DUP2 DUP2 SUB PUSH1 0x0 DUP4 ADD MSTORE PUSH2 0x1DF5 DUP2 PUSH2 0x18D8 JUMP JUMPDEST SWAP1 POP SWAP2 SWAP1 POP JUMP JUMPDEST PUSH1 0x0 PUSH1 0x20 DUP3 ADD SWAP1 POP DUP2 DUP2 SUB PUSH1 0x0 DUP4 ADD MSTORE PUSH2 0x1E15 DUP2 PUSH2 0x1918 JUMP JUMPDEST SWAP1 POP SWAP2 SWAP1 POP JUMP JUMPDEST PUSH1 0x0 PUSH1 0x20 DUP3 ADD SWAP1 POP DUP2 DUP2 SUB PUSH1 0x0 DUP4 ADD MSTORE PUSH2 0x1E35 DUP2 PUSH2 0x1958 JUMP JUMPDEST SWAP1 POP SWAP2 SWAP1 POP JUMP JUMPDEST PUSH1 0x0 PUSH1 0x20 DUP3 ADD SWAP1 POP DUP2 DUP2 SUB PUSH1 0x0 DUP4 ADD MSTORE PUSH2 0x1E55 DUP2 PUSH2 0x1998 JUMP JUMPDEST SWAP1 POP SWAP2 SWAP1 POP JUMP JUMPDEST PUSH1 0x0 PUSH1 0x20 DUP3 ADD SWAP1 POP DUP2 DUP2 SUB PUSH1 0x0 DUP4 ADD MSTORE PUSH2 0x1E75 DUP2 PUSH2 0x19FE JUMP JUMPDEST SWAP1 POP SWAP2 SWAP1 POP JUMP JUMPDEST PUSH1 0x0 PUSH1 0x20 DUP3 ADD SWAP1 POP DUP2 DUP2 SUB PUSH1 0x0 DUP4 ADD MSTORE PUSH2 0x1E95 DUP2 PUSH2 0x1A3E JUMP JUMPDEST SWAP1 POP SWAP2 SWAP1 POP JUMP JUMPDEST PUSH1 0x0 PUSH1 0x20 DUP3 ADD SWAP1 POP DUP2 DUP2 SUB PUSH1 0x0 DUP4 ADD MSTORE PUSH2 0x1EB5 DUP2 PUSH2 0x1AA4 JUMP JUMPDEST SWAP1 POP SWAP2 SWAP1 POP JUMP JUMPDEST PUSH1 0x0 PUSH1 0x20 DUP3 ADD SWAP1 POP DUP2 DUP2 SUB PUSH1 0x0 DUP4 ADD MSTORE PUSH2 0x1ED5 DUP2 PUSH2 0x1AE4 JUMP JUMPDEST SWAP1 POP SWAP2 SWAP1 POP JUMP JUMPDEST PUSH1 0x0 PUSH1 0x20 DUP3 ADD SWAP1 POP DUP2 DUP2 SUB PUSH1 0x0 DUP4 ADD MSTORE PUSH2 0x1EF5 DUP2 PUSH2 0x1B24 JUMP JUMPDEST SWAP1 POP SWAP2 SWAP1 POP JUMP JUMPDEST PUSH1 0x0 PUSH1 0x20 DUP3 ADD SWAP1 POP DUP2 DUP2 SUB PUSH1 0x0 DUP4 ADD MSTORE PUSH2 0x1F15 DUP2 PUSH2 0x1B64 JUMP JUMPDEST SWAP1 POP SWAP2 SWAP1 POP JUMP JUMPDEST PUSH1 0x0 PUSH1 0x20 DUP3 ADD SWAP1 POP DUP2 DUP2 SUB PUSH1 0x0 DUP4 ADD MSTORE PUSH2 0x1F35 DUP2 PUSH2 0x1BA4 JUMP JUMPDEST SWAP1 POP SWAP2 SWAP1 POP JUMP JUMPDEST PUSH1 0x0 PUSH1 0x20 DUP3 ADD SWAP1 POP DUP2 DUP2 SUB PUSH1 0x0 DUP4 ADD MSTORE PUSH2 0x1F55 DUP2 PUSH2 0x1BE4 JUMP JUMPDEST SWAP1 POP SWAP2 SWAP1 POP JUMP JUMPDEST PUSH1 0x0 PUSH2 0x120 DUP3 ADD SWAP1 POP PUSH2 0x1F72 PUSH1 0x0 DUP4 ADD DUP5 PUSH2 0x1C4A JUMP JUMPDEST SWAP3 SWAP2 POP POP JUMP JUMPDEST PUSH1 0x0 PUSH1 0x20 DUP3 ADD SWAP1 POP PUSH2 0x1F8D PUSH1 0x0 DUP4 ADD DUP5 PUSH2 0x1D10 JUMP JUMPDEST SWAP3 SWAP2 POP POP JUMP JUMPDEST PUSH1 0x0 PUSH1 0x40 DUP3 ADD SWAP1 POP PUSH2 0x1FA8 PUSH1 0x0 DUP4 ADD DUP6 PUSH2 0x1D10 JUMP JUMPDEST PUSH2 0x1FB5 PUSH1 0x20 DUP4 ADD DUP5 PUSH2 0x1D10 JUMP JUMPDEST SWAP4 SWAP3 POP POP POP JUMP JUMPDEST PUSH1 0x0 DUP2 SWAP1 POP PUSH1 0x20 DUP3 ADD SWAP1 POP SWAP2 SWAP1 POP JUMP JUMPDEST PUSH1 0x0 DUP2 MLOAD SWAP1 POP SWAP2 SWAP1 POP JUMP JUMPDEST PUSH1 0x0 PUSH1 0x20 DUP3 ADD SWAP1 POP SWAP2 SWAP1 POP JUMP JUMPDEST PUSH1 0x0 DUP3 DUP3 MSTORE PUSH1 0x20 DUP3 ADD SWAP1 POP SWAP3 SWAP2 POP POP JUMP JUMPDEST PUSH1 0x0 DUP3 DUP3 MSTORE PUSH1 0x20 DUP3 ADD SWAP1 POP SWAP3 SWAP2 POP POP JUMP JUMPDEST PUSH1 0x0 PUSH2 0x2011 DUP3 PUSH2 0x20E0 JUMP JUMPDEST SWAP2 POP PUSH2 0x201C DUP4 PUSH2 0x20E0 JUMP JUMPDEST SWAP3 POP DUP3 PUSH32 0xFFFFFFFFFFFFFFFFFFFFFFFFFFFFFFFFFFFFFFFFFFFFFFFFFFFFFFFFFFFFFFFF SUB DUP3 GT ISZERO PUSH2 0x2051 JUMPI PUSH2 0x2050 PUSH2 0x20EA JUMP JUMPDEST JUMPDEST DUP3 DUP3 ADD SWAP1 POP SWAP3 SWAP2 POP POP JUMP JUMPDEST PUSH1 0x0 PUSH2 0x2067 DUP3 PUSH2 0x20E0 JUMP JUMPDEST SWAP2 POP PUSH2 0x2072 DUP4 PUSH2 0x20E0 JUMP JUMPDEST SWAP3 POP DUP3 DUP3 LT ISZERO PUSH2 0x2085 JUMPI PUSH2 0x2084 PUSH2 0x20EA JUMP JUMPDEST JUMPDEST DUP3 DUP3 SUB SWAP1 POP SWAP3 SWAP2 POP POP JUMP JUMPDEST PUSH1 0x0 PUSH2 0x209B DUP3 PUSH2 0x20C0 JUMP JUMPDEST SWAP1 POP SWAP2 SWAP1 POP JUMP JUMPDEST PUSH1 0x0 PUSH2 0x20AD DUP3 PUSH2 0x20C0 JUMP JUMPDEST SWAP1 POP SWAP2 SWAP1 POP JUMP JUMPDEST PUSH1 0x0 DUP2 ISZERO ISZERO SWAP1 POP SWAP2 SWAP1 POP JUMP JUMPDEST PUSH1 0x0 PUSH20 0xFFFFFFFFFFFFFFFFFFFFFFFFFFFFFFFFFFFFFFFF DUP3 AND SWAP1 POP SWAP2 SWAP1 POP JUMP JUMPDEST PUSH1 0x0 DUP2 SWAP1 POP SWAP2 SWAP1 POP JUMP JUMPDEST PUSH32 0x4E487B7100000000000000000000000000000000000000000000000000000000 PUSH1 0x0 MSTORE PUSH1 0x11 PUSH1 0x4 MSTORE PUSH1 0x24 PUSH1 0x0 REVERT JUMPDEST PUSH2 0x2122 DUP2 PUSH2 0x2090 JUMP JUMPDEST DUP2 EQ PUSH2 0x212D JUMPI PUSH1 0x0 DUP1 REVERT JUMPDEST POP JUMP JUMPDEST PUSH2 0x2139 DUP2 PUSH2 0x20E0 JUMP JUMPDEST DUP2 EQ PUSH2 0x2144 JUMPI PUSH1 0x0 DUP1 REVERT JUMPDEST POP JUMP INVALID LOG2 PUSH5 0x6970667358 0x22 SLT KECCAK256 SWAP15 CODECOPY SWAP5 0xD1 0xEA 0xEF DUP10 0xB5 0xC4 ORIGIN SELFDESTRUCT 0x4F MSTORE8 0xDF 0xC0 0xE9 LT EXTCODEHASH SELFDESTRUCT 0xEA DUP11 0xA6 SUB SLT PUSH1 0x9F PUSH16 0xB30C0088D764736F6C63430008000033 "
				},
				"gasEstimates": {
					"creation": {
						"codeDepositCost": "1714600",
						"executionCost": "44458",
						"totalCost": "1759058"
					},
					"external": {
						"altaCliente(address)": "28390",
						"altaPrestamista(address)": "23247",
						"aprobarPrestamo(address,uint256)": "infinite",
						"depositarGarantia()": "infinite",
						"liquidarGarantia(address,uint256)": "infinite",
						"obtenerDetalleDePrestamo(address,uint256)": "infinite",
						"obtenerPrestamosPorPrestatario(address)": "infinite",
						"reembolsarPrestamo(uint256)": "infinite",
						"socioPrincipal()": "1234",
						"solicitarPrestamo(uint256,uint256)": "infinite"
					}
				},
				"methodIdentifiers": {
					"altaCliente(address)": "425743bc",
					"altaPrestamista(address)": "c1e83336",
					"aprobarPrestamo(address,uint256)": "8b08de28",
					"depositarGarantia()": "f56f47a8",
					"liquidarGarantia(address,uint256)": "69eb16b2",
					"obtenerDetalleDePrestamo(address,uint256)": "a26a1514",
					"obtenerPrestamosPorPrestatario(address)": "cb4e6b66",
					"reembolsarPrestamo(uint256)": "dea42370",
					"socioPrincipal()": "3f881611",
					"solicitarPrestamo(uint256,uint256)": "209aa100"
				}
			},
			"storageLayout": {
				"storage": [
					{
						"astId": 3,
						"contract": "Prueva VS Code/proyecto-final-daniel-salinas/contract/banco-prestamo.sol:Banco",
						"label": "socioPrincipal",
						"offset": 0,
						"slot": "0",
						"type": "t_address_payable"
					},
					{
						"astId": 40,
						"contract": "Prueva VS Code/proyecto-final-daniel-salinas/contract/banco-prestamo.sol:Banco",
						"label": "clientes",
						"offset": 0,
						"slot": "1",
						"type": "t_mapping(t_address,t_struct(Cliente)35_storage)"
					},
					{
						"astId": 44,
						"contract": "Prueva VS Code/proyecto-final-daniel-salinas/contract/banco-prestamo.sol:Banco",
						"label": "empleadosPrestamista",
						"offset": 0,
						"slot": "2",
						"type": "t_mapping(t_address,t_bool)"
					}
				],
				"types": {
					"t_address": {
						"encoding": "inplace",
						"label": "address",
						"numberOfBytes": "20"
					},
					"t_address_payable": {
						"encoding": "inplace",
						"label": "address payable",
						"numberOfBytes": "20"
					},
					"t_array(t_uint256)dyn_storage": {
						"base": "t_uint256",
						"encoding": "dynamic_array",
						"label": "uint256[]",
						"numberOfBytes": "32"
					},
					"t_bool": {
						"encoding": "inplace",
						"label": "bool",
						"numberOfBytes": "1"
					},
					"t_mapping(t_address,t_bool)": {
						"encoding": "mapping",
						"key": "t_address",
						"label": "mapping(address => bool)",
						"numberOfBytes": "32",
						"value": "t_bool"
					},
					"t_mapping(t_address,t_struct(Cliente)35_storage)": {
						"encoding": "mapping",
						"key": "t_address",
						"label": "mapping(address => struct Banco.Cliente)",
						"numberOfBytes": "32",
						"value": "t_struct(Cliente)35_storage"
					},
					"t_mapping(t_uint256,t_struct(Prestamo)22_storage)": {
						"encoding": "mapping",
						"key": "t_uint256",
						"label": "mapping(uint256 => struct Banco.Prestamo)",
						"numberOfBytes": "32",
						"value": "t_struct(Prestamo)22_storage"
					},
					"t_struct(Cliente)35_storage": {
						"encoding": "inplace",
						"label": "struct Banco.Cliente",
						"members": [
							{
								"astId": 24,
								"contract": "Prueva VS Code/proyecto-final-daniel-salinas/contract/banco-prestamo.sol:Banco",
								"label": "activado",
								"offset": 0,
								"slot": "0",
								"type": "t_bool"
							},
							{
								"astId": 26,
								"contract": "Prueva VS Code/proyecto-final-daniel-salinas/contract/banco-prestamo.sol:Banco",
								"label": "saldoGarantia",
								"offset": 0,
								"slot": "1",
								"type": "t_uint256"
							},
							{
								"astId": 31,
								"contract": "Prueva VS Code/proyecto-final-daniel-salinas/contract/banco-prestamo.sol:Banco",
								"label": "prestamos",
								"offset": 0,
								"slot": "2",
								"type": "t_mapping(t_uint256,t_struct(Prestamo)22_storage)"
							},
							{
								"astId": 34,
								"contract": "Prueva VS Code/proyecto-final-daniel-salinas/contract/banco-prestamo.sol:Banco",
								"label": "prestamoIds",
								"offset": 0,
								"slot": "3",
								"type": "t_array(t_uint256)dyn_storage"
							}
						],
						"numberOfBytes": "128"
					},
					"t_struct(Prestamo)22_storage": {
						"encoding": "inplace",
						"label": "struct Banco.Prestamo",
						"members": [
							{
								"astId": 5,
								"contract": "Prueva VS Code/proyecto-final-daniel-salinas/contract/banco-prestamo.sol:Banco",
								"label": "id",
								"offset": 0,
								"slot": "0",
								"type": "t_uint256"
							},
							{
								"astId": 7,
								"contract": "Prueva VS Code/proyecto-final-daniel-salinas/contract/banco-prestamo.sol:Banco",
								"label": "prestatario",
								"offset": 0,
								"slot": "1",
								"type": "t_address"
							},
							{
								"astId": 9,
								"contract": "Prueva VS Code/proyecto-final-daniel-salinas/contract/banco-prestamo.sol:Banco",
								"label": "monto",
								"offset": 0,
								"slot": "2",
								"type": "t_uint256"
							},
							{
								"astId": 11,
								"contract": "Prueva VS Code/proyecto-final-daniel-salinas/contract/banco-prestamo.sol:Banco",
								"label": "plazo",
								"offset": 0,
								"slot": "3",
								"type": "t_uint256"
							},
							{
								"astId": 13,
								"contract": "Prueva VS Code/proyecto-final-daniel-salinas/contract/banco-prestamo.sol:Banco",
								"label": "tiempoSolicitud",
								"offset": 0,
								"slot": "4",
								"type": "t_uint256"
							},
							{
								"astId": 15,
								"contract": "Prueva VS Code/proyecto-final-daniel-salinas/contract/banco-prestamo.sol:Banco",
								"label": "tiempoLimite",
								"offset": 0,
								"slot": "5",
								"type": "t_uint256"
							},
							{
								"astId": 17,
								"contract": "Prueva VS Code/proyecto-final-daniel-salinas/contract/banco-prestamo.sol:Banco",
								"label": "aprobado",
								"offset": 0,
								"slot": "6",
								"type": "t_bool"
							},
							{
								"astId": 19,
								"contract": "Prueva VS Code/proyecto-final-daniel-salinas/contract/banco-prestamo.sol:Banco",
								"label": "reembolsado",
								"offset": 1,
								"slot": "6",
								"type": "t_bool"
							},
							{
								"astId": 21,
								"contract": "Prueva VS Code/proyecto-final-daniel-salinas/contract/banco-prestamo.sol:Banco",
								"label": "liquidado",
								"offset": 2,
								"slot": "6",
								"type": "t_bool"
							}
						],
						"numberOfBytes": "224"
					},
					"t_uint256": {
						"encoding": "inplace",
						"label": "uint256",
						"numberOfBytes": "32"
					}
				}
			},
			"userdoc": {
				"kind": "user",
				"methods": {},
				"version": 1
			}
		}
	}
}